:100000000C942D000C9490010C9417030C9417037E
:100010000C9417030C9417030C9417030C941703F8
:100020000C9417030C9417030C9417030C945A02A6
:100030000C9417030C9417030C9417030C941703D8
:100040000C9417030C9417030C9417030C946B0176
:100050000C9417030060008D800011241FBECFE5B3
:10006000D4E0DEBFCDBFE4E5F0E040E017C0B591DD
:10007000A59135912591059107FD0CC0959185912C
:10008000EF01F92FE82F05900D92A217B307D9F7CA
:10009000FE0104C01D92A217B307E1F7E935F4078A
:0E00A00031F70E945E000C94B702F894FFCF77
:0D00AE00543A3235B04320483A3630250030
:1000BC00CF93DF93CDB7DEB72D970FB6F894DEBF95
:1000CC000FBECDBF83E085BF8BB780648BBF7894A8
:1000DC000E94DE020E94D60087E690E00E94A002F9
:1000EC0081E490E00E940D0368E070E088EB9BE0F7
:1000FC000E941E020E94790282E390E00E94860216
:10010C00BC010E9408030E94FB028AE090E00E945E
:10011C0086028CBF2EEA30E040E08DE0F901DE0172
:10012C001196742F0E94930261E070E080E00E94AF
:10013C00CC02CE0101960E946C0281B3806481BB1B
:10014C00C12CD12C76010E94220180918B00882336
:10015C0049F080916300813729F482B3806482BBBB
:10016C0010928B008091830090918400A091850067
:10017C00B09186008C199D09AE09BF098115944078
:10018C00A105B10500F360E070E08AE00E94CC02AA
:10019C0081E40E94C2020E94D5026B017C01D3CF84
:1001AC008FEF8ABB1BBA8FE295E70197F1F700C07E
:1001BC00000083E00E94F2018FE39FE10197F1F7C9
:1001CC0000C0000083E00E94F20187EC90E00197F0
:1001DC00F1F700C0000083E00E94F2018FEC97E081
:1001EC000197F1F700C0000082E00E94F2018FEC51
:1001FC0097E00197F1F700C0000060E088E20E94F0
:10020C0009028FEC97E00197F1F700C0000060E065
:10021C008CE00E9409028FEC97E00197F1F700C087
:10022C00000060E086E00E9409028FEC97E00197E5
:08023C00F1F700C00000089575
:100244000E9411030E94020380ED0E94E60280E0F6
:100254000E94E6020E9414030E94020381ED0E94A0
:10026400E6020E94ED02809362000E94ED028093F8
:1002740061000E94F402809360000E941403809144
:1002840062000E94AC0280936200809161000E942F
:10029400AC0280936100809160000E94AC02809364
:1002A400600060E070E080E00E94CC028091600019
:1002B4000E94D7018AE30E94C202809161000E94D9
:1002C400D7018AE30E94C202809162000E94D70192
:0202D40008958B
:1002D6001F920F920FB60F9211248F939F93AF9395
:1002E600BF938091830090918400A0918500B09186
:1002F60086000196A11DB11D809383009093840012
:10030600A0938500B0938600BF91AF919F918F9186
:0A0316000F900FBE0F901F90189576
:100320001F920F920FB60F9211248F939F93AF934A
:10033000BF938091870090918800A0918900B0912F
:100340008A000196A11DB11D8093870090938800BB
:10035000A0938900B0938A00BF91AF919F918F9134
:0A0360000F900FBE0F901F9018952C
:10036A00A1E21A2EAA1BBB1BFD010DC0AA1FBB1FAF
:10037A00EE1FFF1FA217B307E407F50720F0A21B21
:10038A00B30BE40BF50B661F771F881F991F1A948E
:10039A0069F760957095809590959B01AC01BD01B8
:0403AA00CF010895E2
:1003AE00CF93DF93D82FCDEC8C9FC12D1124C69502
:1003BE00C695C69580E38C0F0E94C202CC0F8C2F7F
:1003CE00880F880FC80F8D2F8C1B805D0E94C20274
:0603DE00DF91CF910895AC
:1003E4008295807F9BB398609BBB95E89A95F1F7C3
:1003F40000009BB39F709BBB9BB3892B8BBB8BB3C0
:0E040400877F8BBB85E88A95F1F7000008958D
:10041200CF93C82F611104C08BB38B7F8BBB03C0FA
:100422008BB384608BBB8C2F82958F700E94F201FC
:0A0432008C2F0E94F201CF91089573
:10043C009C01629FC001639F900D729F900D1124CF
:10044C009C0140E050E060E072E18AE790E00E949D
:08045C00B501C90101970895E3
:1004640097FB072E16F4009407D077FD09D00E945D
:10047400460207FC05D03EF4909581959F4F089560
:08048400709561957F4F08950A
:10048C00AA1BBB1B51E107C0AA1FBB1FA617B707AE
:10049C0010F0A61BB70B881F991F5A95A9F78095CA
:0804AC009095BC01CD010895FB
:1004B4001F920F920FB60F9211248F938CB18093D9
:1004C4008C0081E080938B008F910F900FBE0F9072
:0404D4001F901895C8
:1004D800CF93DF93EC0103C021960E94C20288816A
:0A04E8008111FACFDF91CF91089542
:1004F2009C0191B3906391BB1DBC1CBC82EA8FBD71
:0A0502008AE18EBD37BD26BD0895C5
:10050C002FEFAC01249FC001259F900D112464E6B0
:0A051C0070E00E943202CB01089546
:10052600992777FD05C005900D920197E1F708958B
:0A05360001900D920197E1F708957E
:1005400090BD89B98AB188698AB98BB182608BB94B
:0805500080B58E6880BD08959E
:10055800982F92959F70990F292F220F220F920F93
:060568008F70890F089559
:10056E00EC010E941C030E941B03CE010E941D037E
:06057E00CE010E941903EA
:1005840061E00E9409028FE19EE40197F1F700C047
:0405940000000895C6
:1005980090E4699F800D112460E080680E94090240
:0205A8000895B4
:1005AA00609183007091840080918500909186000B
:0205BA000895A2
:1005BC008BE083BF89B7826089BF8DE78CBF0895BC
:0E05CC0083B984E886BF06B607FEFDCF08950A
:0E05DA0084EC86BF06B607FEFDCF83B1089500
:0E05E80084E886BF06B607FEFDCF83B10895F6
:0E05F60087B3886087BB12BE8BE683BF089573
:0C06040084EA86BF06B607FEFDCF08950D
:0A0610009BBD8ABD79BD68BD089549
:08061A005D9BFECF8CB9089531
:0606220080E280B908959A
:0606280084E986BF08957D
:04062E000C94000028
:040632000E945500CD
:02063600089525
:02063800089523
:02063A00089521
:00000001FF
