:100000000C942D000C94190D0C9402100C940210F9
:100010000C9402100C9402100C9402100C94021018
:100020000C9402100C9402100C9402100C94D80E34
:100030000C9402100C9402100C9402100C940210F8
:100040000C9402100C9402100C9402100C94410DAC
:100050000C94021000600070800011241FBECFE5D8
:10006000D4E0DEBFCDBFE4E5F0E040E017C0B591DD
:10007000A59135912591059107FD0CC0959185912C
:10008000EF01F92FE82F05900D92A217B307D9F7CA
:10009000FE0104C01D92A217B307E1F7E935F4078A
:0E00A00031F70E9435070C947B0FF894FFCFC8
:1000AE0068076C094C836A9074A07AC000806888D7
:0600BE0000846C82008149
:0700C400286E756C6C290029
:0600CB00256420256400FD
:0600D100286E696C290095
:1000D800A3EAB0E0E2E7F0E00C94C60D4C01590148
:1000E800C756DF4F488359836A83C959D040212CAA
:1000F800312C6E012BE8C20ED11C85E2782E260128
:1001080030E8632ECE018D569F4FC456DF4F99833A
:100118008883CC59D0409C0140E8CF55DF4F2883D5
:1001280039834A83C15AD040C756DF4F4881C959DD
:10013800D040C656DF4F5881CA59D040C556DF4F08
:100148006881CB59D040FA01849167FD808188236A
:1001580009F4C9C3CF57DF4F19821882C158D0405C
:100168008FEF9FEFCD57DF4F99838883C358D040D7
:10017800CB57DF4F19821882C558D040A1E0B0E0B4
:10018800AC0FBD1FC957DF4FB983A883C758D040EC
:10019800E0E8F0E0C757DF4FF983E883C958D0405B
:1001A800CA01A62FE12CF12CFC012491A7FD208186
:1001B80021111BC0E114F10401F19701C4010E944F
:1001C800B60CC756DF4F88819981AA81C959D0409A
:1001D8008E0D9F1DA11DF7FCAA95C756DF4F88837A
:1001E8009983AA83C959D04008C00196A11D253218
:1001F80009F3FFEFEF1AFF0AD7CFC756DF4F888101
:100208009981AA81C959D040FC012491A7FD208178
:10021800253209F056C39C014A2F2F5F3F4F4F4F9D
:10022800C256DF4F288339834A83CE59D040C756F8
:10023800DF4F288339834A83C959D040C756DF4FD7
:1002480088819981AA81C959D040FC012491A7FDD0
:1002580020812B3241F4CF57DF4F28813981C15893
:10026800D04024600BC02C32CCF02D3259F5CF573A
:10027800DF4F28813981C158D0402160CF57DF4FE7
:1002880039832883C158D0400196A11DC756DF4F36
:1002980088839983AA83C959D040D0CF203241F4AA
:1002A800CF57DF4F28813981C158D0402860E6CF29
:1002B800233291F4CF57DF4F28813981C158D0407C
:1002C8002061DCCF203341F4CF57DF4F28813981BB
:1002D800C158D0402260D2CF2A3299F50196A11D8B
:1002E800C756DF4F88839983AA83C959D040D5015F
:1002F800ED91FC911197CF0102968D939C9380818B
:100308009181CB57DF4F99838883C558D04097FF99
:100318003EC0CF57DF4F28813981C158D040B1E066
:100328002B27CF57DF4F39832883C158D040919569
:1003380081959109CB57DF4F99838883C558D04061
:1003480026C0BC018A2F0E946E0CCB57DF4F9983C1
:100358008883C558D040C756DF4F288139814A81E4
:10036800C959D040F901849147FD8081082E000CBD
:10037800990BC0970A9758F42F5F3F4F4F4FC756B6
:10038800DF4F288339834A83C959D040E4CFCF57F8
:10039800DF4F88819981C158D04080FF07C08D7F89
:1003A800CF57DF4F99838883C158D040C756DF4F56
:1003B80088819981AA81C959D040FC012491A7FD5F
:1003C80020812E3209F058C0CD57DF4F198218828C
:1003D800C358D0409C014A2F2F5F3F4F4F4FC756FD
:1003E800DF4F288339834A83C959D040F901549192
:1003F80047FD50815A32D1F40296A11DC756DF4FEE
:1004080088839983AA83C959D040D501ED91FC917D
:100418001197CF0102968D939C9380819181CD573E
:10042800DF4F99838883C358D04026C0842FB901F1
:100438000E946E0CCD57DF4F99838883C358D040F4
:10044800C756DF4F288139814A81C959D040F901FF
:10045800849147FD8081082E000C990BC0970A975C
:1004680058F42F5F3F4F4F4FC756DF4F28833983CC
:100478004A83C959D040E4CFCE0187569F4F0E9486
:10048800410B182FC756DF4F2881C959D040C6568F
:10049800DF4F8881CA59D040C556DF4F9881CB5964
:1004A800D040E22FF82F849197FD8081082E000C10
:1004B800990B0E94C60F8936910509F45AC0B4F405
:1004C8008336910509F466C144F48532910509F42F
:1004D800A1C18136910529F1B3C18436910509F48A
:1004E80048C0883691050CF42DC1AAC18037910502
:1004F80009F4CBC04CF48E36910509F419C18F3636
:10050800910509F47CC09CC18537910509F454C054
:100518008837910509F496C08337910509F090C191
:1005280058C1612F70E0A501C6010E94880D892B72
:1005380009F4B7C1C756DF4F88819981AA81C95983
:10054800D0409C014A2F2F5F3F4F4F4FC756DF4F78
:10055800288339834A83C959D040FC012491A7FDD7
:100568002081A601BE016F577F4FC4010E94FF0F73
:1005780095C1612F70E0950141E050E0C6010E94ED
:100588007C06892B09F48DC1C756DF4F8881998174
:10059800AA81C959D0400196A11DC756DF4F88834B
:1005A8009983AA83C959D040A601BE016F577F4FCE
:1005B800C4010E94BD0572C1612F70E0950140E041
:1005C80050E0C6010E947C06892B09F46AC1C7560F
:1005D800DF4F88819981AA81C959D0400196A11D10
:1005E800C756DF4F88839983AA83C959D040A6018B
:1005F800BE016F577F4FC4010E94460A4FC1612F49
:1006080070E0950140E050E0C6010E947C06892B0D
:1006180009F447C1C756DF4F88819981AA81C95912
:10062800D0400196A11DC756DF4F88839983AA83BE
:10063800C959D040A601BE016F577F4FC4010E941F
:1006480077092CC1612F70E0950140E050E0C601A8
:100658000E947C06892B09F424C1C756DF4F888184
:100668009981AA81C959D0409C014A2F2F5F3F4FD9
:100678004F4FC756DF4F288339834A83C959D04023
:10068800FC012491A7FD20814BC0950140E050E07A
:1006980060EF70E0C6010E947C06892B09F401C155
:1006A800C756DF4F88819981AA81C959D0400196E0
:1006B800A11DC756DF4F88839983AA83C959D040A3
:1006C80086E021ED30E040E0F901DE01AD56BF4F94
:1006D800742F0E943F0FD6012C9111963C911197CF
:1006E80012964C91129713965C91139714966C91ED
:1006F800149715967C91159716968C9116971796C0
:100708009C91A0E00E94640F51F400E010E0CF55E6
:10071800DF4F288139814A81C15AD040B9C028E7C2
:10072800A601BE016F577F4FC4010E947D04B6C069
:10073800612F70E09501A1014E0D5F1DC6010E9459
:100748000B09AFC0612F70E0A501C6010E94880D9A
:10075800892B09F4A6C0C756DF4F88819981AA81E1
:10076800C959D0409C014A2F2F5F3F4F4F4FC75662
:10077800DF4F288339834A83C959D040FC0124912B
:10078800A7FD2081A601BE016F577F4FC4010E94BB
:10079800FF0F84C0103809F084C0C756DF4F888126
:1007A8009981AA81C959D0400196A11DC756DF4F2A
:1007B80088839983AA83C959D040D501ED91FC91CA
:1007C8001197CF0102968D939C938081F6018083C7
:1007D8005BC0103809F065C0C756DF4F8881998122
:1007E800AA81C959D0400196A11DC756DF4F8883F9
:1007F8009983AA83C959D040D501ED91FC911197ED
:10080800CF0103968D939C9320813181428100E032
:1008180010E03EC0103809F044C0C756DF4F888149
:100828009981AA81C959D0400196A11DC756DF4FA9
:1008380088839983AA83C959D040F601708224C05D
:10084800D6017C92C256DF4F288139814A81CE5920
:10085800D040C756DF4F288339834A83C959D040CF
:10086800CF57DF4F19821882C158D040CB57DF4F7E
:1008780019821882C558D0408FEF9FEFCD57DF4FB0
:1008880099838883C358D04001E010E0462D920137
:10089800BE016F577F4FC4010E94E1098E0D9F1D55
:1008A80011C0C756DF4F88819981AA81C959D040A4
:1008B8000196A11DC756DF4F88839983AA83C9591A
:1008C800D040C7017101E80EF91EE214F3044CF49C
:1008D8008FE490E090936400809363008FEF9FEF24
:1008E80003C0170121CCC101CD55DF4FE2E10C94C3
:0208F800FD0DF4
:1008FA00A4E1B0E0E3E8F4E00C94C60D98878F8396
:10090A007A8369835C8B4B8B122FDB011296ED91F4
:10091A00FC91139714962D913C9115973E832D8344
:10092A00ED90FC90119716962D903C901797F7FD35
:10093A0003C0E894E1F802C0E1E0F0E0C701807189
:10094A0099279A878987E4FE1FC0AB89BC892C91B5
:10095A0011963C91119712964C91129713965C91AD
:10096A00139714966C91149715967C911597169671
:10097A008C91169717969C91A0E00E94640F21F023
:10098A008D819E81029702C08D819E819701287078
:10099A0033273C872B87E3FC0197AB89BC894C90B2
:1009AA0011965C90119712966C90129713967C9000
:1009BA00139714968C90149715969C9015971696E3
:1009CA00AC9016971796BC90A981BA811896CD90CB
:1009DA00DC901997B1E0CB1AD108D101AC0DBD1D3D
:1009EA001C929C838B839F01281B390B3E872D8782
:1009FA00C70182709927988B8F87812F012E000C4F
:100A0A00990BDC01A154B109BA8BA98B32E0C31648
:100A1A00D10434F489859A85892B09F04CC073C0B6
:100A2A009201A301B401C501A0E00E94640F81F103
:100A3A00B1E0CB1AD108C2018F7099278A3091058B
:100A4A0014F4C09602C0895A9F4FE989FA897A97A5
:100A5A0048F49C012062215631092A31310510F4EB
:100A6A000E94B50FF101EC0DFD1D80832B813C81A5
:100A7A00215031093C832B839201A301B401C501A2
:100A8A0004E00E94AA0D29013A014B015C01BECF84
:100A9A008D859E85AB81BC818A0F9B1F181619060E
:100AAA003CF21A161B060CF0B5CFEF85F889EF2B2E
:100ABA0009F0BECFAFCFAB89BC892C9111963C917E
:100ACA00119712964C91129713965C91139714965C
:100ADA006C91149715967C91159716968C9116978A
:100AEA0017969C91A0E00E94640F69F0F101EC0D49
:100AFA00FD1D31971083B2E0CB1AD108F101EC0D3C
:100B0A00FD1D80E38083EB85FC85EF2B41F0F1E04E
:100B1A00CF1AD108F101EC0DFD1D80E28083A98175
:100B2A00BA8118962D913C911997215031092C19A7
:100B3A003D09C20CD31CA60160E80D811E818F817C
:100B4A0098850E9484089C01EF81F88580819181B3
:100B5A0090FF09C0A981BA8112968D919C91139731
:100B6A00821793070CF4C9016496E2E10C94FD0D17
:100B7A00ADE0B0E0E3ECF5E00C94C60D9A87898706
:100B8A007C836B83FA01DB011296CD90DC9013977C
:100B9A0014968D919C9115979E838D83ED90FC9070
:100BAA001197FA82E98216960D90BC91A02DB8870A
:100BBA00AF83208031804280538064807580868034
:100BCA0097808101B42DF52DE62D7B868C869D8636
:100BDA009101A201B301C401A0E00E94640F4CF488
:100BEA000E94FA0E8901B42FF52FE62F7B878C8796
:100BFA009D87D7FC04C0E894E1F8FA82E982910162
:100C0A00A201B301C401A0E0ED80FE800E94640F3E
:100C1A001CF0898182FF04C081E0E81AF10805C04E
:100C2A0083FF03C091E0E91AF108CE0101965C0145
:100C3A008AE0C82ED12C2B2F3F2F4E2F5B856C8537
:100C4A007D858B819C810E94DF07FC019101A201B5
:100C5A00B301C401A0E00E94640F1CF0898182FFE5
:100C6A0012C031970F8118850E0F1F1F9101A20123
:100C7A00B301C401A0E00E94640F14F08BE201C02A
:100C8A008DE2D80108C083FF07C03197AF81B885CC
:100C9A00AE0FBF1F80E28C93E980FA80AB81BC81E2
:100CAA0018962D913C911997215031092E1B3F0B13
:100CBA008F819885E80FF91FAF0160E80D811E81C9
:100CCA0089859A850E9484089C01A985BA858D9197
:100CDA009C9190FF07C0EB81FC81828193818217EE
:0E0CEA0093070CF4C9012D96E2E10C94FD0D68
:100CF8000F931F93CF93DF93FC01D90168387105D7
:100D080031F194F461387105B1F12CF46038710552
:100D180009F478C09FC06238710509F459C0643875
:100D2800710509F46FC096C0603A710509F448C0AE
:100D38002CF46039710509F44BC08CC0603C710516
:100D480009F476C0603F710509F472C083C0CD9183
:100D5800DC911197CE0102968D939C93452B39F027
:100D68009881892F880F880B908381835BC0888145
:100D78008083118268C0CD91DC911197CE010496D1
:100D88008D939C93452B99F088819981AA81BB8189
:100D9800AC01BD01770F440B542FBA0180839183B6
:100DA800A283B383448345834683478328C008814D
:100DB80019812A813B81008311832283338345C0B3
:100DC800CD91DC911197CE0102968D939C9323C00F
:100DD800CD91DC911197CE0108968D939C937881E3
:100DE80069815A814B813C812D819E818F817083DD
:100DF800618352834383348325839683878381E089
:100E080090E02AC0CD91DC911197CE0102968D9386
:100E18009C93452BA1F099812881892F880F880BF5
:100E28002083918382838383848385838683E6CF2B
:100E3800CD91DC911197CE0102968D939C930881F8
:100E480019810083118312821382148215821682FB
:100E58001782D5CF80E090E0DF91CF911F910F915D
:020E68000895EB
:100E6A00CF93DF93CDB7DEB760970FB6F894DEBFA6
:100E7A000FBECDBF78940E94BE0F0E94900B87E6EA
:100E8A0090E00E944C0F81E490E00E94F50F83E00D
:100E9A0085BF8BB780648BBF68E070E088EB9BE00E
:100EAA000E94890E0E94250F82E390E00E94320F71
:100EBA00BC010E94F00F0E94E30F8AE090E00E94BA
:100ECA00320F8CBF81B3806481BBC12CD12C7601D7
:100EDA00812C912C54010E94DC0B80916500909129
:100EEA006600A0916700B09168008C199D09AE094F
:100EFA00BF09883B9B40A105B10588F0CE01019648
:100F0A000E94EA0C61E070E080E00E949A0FCE0134
:100F1A0001960E94180F0E94A30F6B017C01809119
:100F2A006E00882351F080916F00813731F492B3BB
:100F3A0080E4892782BB10926E0060E070E08CE04A
:100F4A000E949A0F8091690090916A00A0916B00AB
:100F5A00B0916C000E94900F80916D00882309F473
:100F6A00BACF60E070E08BE00E949A0F87E40E949B
:100F7A00900F8091650090916600A0916700B091F2
:100F8A00680088199909AA09BB09883E9340A105F6
:100F9A00B10508F4A0CF60E070E08BE00E949A0FE0
:100FAA0080E20E94900F10926D000E94A30F4B01E5
:040FBA005C0191CF76
:100FBE00A2E1B0E0E5EEF7E00C94C60DFC010A8B61
:100FCE001B832C83732E642E552E462E7D83CC864A
:100FDE00D886BF82AE82868197819B878A87D5010C
:100FEE004D915C91228133818085918501971C0101
:100FFE0037FF02C021E030E0EA85FB85E80FF91FDC
:10100E0010824701E1E0F0E0FA83E983C9018E190D
:10101E009F099E878D87DA01A270BB27B88BAF8799
:10102E00B885BB0FBB0BB98B1214130474F0A981D6
:10103E00BA81AB2B09F05CC0AE81BF818D919C91C2
:10104E0011978F7E8D939C9353C02A893B814C813F
:10105E00572D662D752D842D9D81A0E00E94640F65
:10106E00B1F1E1E02E1A3108FC85F987AF2EB88474
:10107E00C988DC2CEC2CFC2C0C2D1C2D2A893B81D8
:10108E004C81572D662D752D842D9D810E940A0F42
:10109E00C90129839A83EA85FB85E20DF31D805DE4
:1010AE00808381E0881A91082A893B814C81572DD3
:1010BE00662D752D842D9D810E940C0F2A8B3B83EE
:1010CE004C83752E662E572E482E9D83ADCF8D8563
:1010DE009E85880D991D181619061CF218141904F0
:1010EE000CF0A5CFEF85F889EF2B09F0BACF9FCF83
:0A10FE00C1016296E2E10C94FD0DC1
:101108002F923F924F926F927F928F92AF92BF929F
:10111800CF92DF92EF92FF920F931F93CF93DF93BB
:10112800CDB7DEB766970FB6F894DEBF0FBECDBF5A
:101138005C013A01862E6901C701817099279C8B51
:101148008B8BE0FC1DC020173107D4F47801EC1814
:10115800FD08FE8AED8AA70191E1E916F10410F075
:1011680040E150E060E270E0CE0101969A8B898BF5
:101178000E94AC0F89899A891C0120E8422E0BC075
:101188009601682DA301C5010E94B60CC016D106B0
:10119800ECF2C60125C090E1E916F10458F020E10F
:1011A80030E0642DA101C5010E94B60C80E1E81A67
:1011B800F108F1CF2D893E892F70332789899A89C3
:1011C800AC0160E8C5010E94B60C8B899C89892B0B
:1011D80031F49601682DA301C5010E94B60CC8011F
:1011E80066960FB6F894DEBF0FBECDBFDF91CF91E4
:1011F8001F910F91FF90EF90DF90CF90BF90AF902D
:0E1208008F907F906F904F903F902F900895A1
:10121600CF93DF93DC01F90164387105D9F164F4E9
:101226006138710521F16238710509F440C06038F2
:10123600710509F054C02EC060397105C1F184F4FE
:101246006838710509F04BC0C081D181CE01029684
:1012560091838083E881F981ED93FC9340833CC0C0
:10126600603A7105B9F0603C7105A1F038C0C081E3
:10127600D181CE01029691838083E881F981ED9335
:10128600FC93052E000C660B770B4083518362831B
:10129600738322C0C081D181CE010296918380835F
:1012A600E881F981ED93FC935183408315C0C08199
:1012B600D181CE01029691838083E881F981ED93F5
:1012C600FC9351834083852F880F880B8283838309
:1012D600848385838683878381E090E002C080E0F3
:0812E60090E0DF91CF91089523
:1012EE00A2E0B0E0EDE7F9E00C94C60D1C014B0155
:1012FE00FA01DB0112962D913C91139714964D90A5
:10130E005C9015978D919C9111979A83898316966F
:10131E006D907C90179737FD03C08D7F9A838983DC
:10132E0000811181228133814481558166817781CB
:10133E00FE0131965F0188E0C82ED12C7201C401E6
:10134E000E94DF07298124FF06C00197F301E80FF1
:10135E00F91F20E32083298123FF06C00197F301A3
:10136E00E80FF91F20E22083E980FA80D401189655
:10137E002D913C91199721503109281B390B860D5F
:10138E00971DAC0160E88201C1010E9484089C0196
:10139E00F1018081918190FF08C0D40112968D9148
:1013AE009C911397821793070CF4C9012296E2E1E0
:0413BE000C94FD0D81
:1013C2002F923F924F926F927F928F92AF92BF92E3
:1013D200CF92DF92EF92FF920F931F93CF93DF93FF
:1013E200CDB7DEB727970FB6F894DEBF0FBECDBFDD
:1013F2006C017B013901842E980184EC282E80E057
:10140200382E80E0482E87E0F101AE014F5F5F4F3A
:10141200DA01742D0E943F0FF70102811381A4802B
:10142200B580E080F18061147104810419F43A01FD
:10143200F0E88F2E2115310529F4882DB3010E9481
:101442005E0E9C0117FD04C00217130708F49801F1
:101452008501682DA301C6010E94840827960FB654
:10146200F894DEBF0FBECDBFDF91CF911F910F91D8
:10147200FF90EF90DF90CF90BF90AF908F907F90D2
:0A1482006F904F903F902F90089557
:10148C00A2E0B0E0ECE4FAE00C94C60D3C014B0198
:10149C00FA01DB0112962D913C91139714964D9005
:1014AC005C9015978D919C9111979A8389831696D0
:1014BC002D903C90179737FD03C08D7F9A838983BD
:1014CC00008111812281338144815581668177812C
:1014DC00FE0131965F018AE0C82ED12C7201C40145
:1014EC000E94DF07E980FA80D40118962D913C9177
:1014FC00199721503109281B390B820D931DAC0112
:10150C0060E88201C3010E9484089C01F301808180
:10151C00918190FF08C0D40112968D919C911397E4
:10152C00821793070CF4C9012296E2E10C94FD0D8D
:10153C006F927F928F92EF92FF920F931F93CF93A4
:10154C00DF93CDB7DEB761970FB6F894DEBF0FBE51
:10155C00CDBFFE01319651E1DF011D925A95E9F79D
:10156C00A2E0B1E0BA83A9839C838B8377FF09C087
:10157C008FE490E090936400809363008FEF9FEF73
:10158C0019C03901842E7C01615071097F836E83EF
:10159C009801682DA301CF010E94180E488559852A
:1015AC002E813F814217530708F49A01F701E20F8D
:1015BC00F31F108261960FB6F894DEBF0FBECDBF3D
:1015CC00DF91CF911F910F91FF90EF908F907F90B3
:0415DC006F9008956F
:1015E00088249924F401E401B0E49F93AA279A1572
:1015F0008B049C04ED05FE05CF05D007A10798F4E8
:10160000AD2FDC2FCF2FFE2FE92D982C892E982F70
:10161000872F762F652F542F432F322F2227B85034
:1016200031F7BF9127C01B2EBF91BB27220F331F5D
:10163000441F551F661F771F881F991F881C991C00
:10164000EE1FFF1FCC1FDD1FAA1FBB1F8A149B04A8
:10165000EC05FD05CE05DF05A007B10748F08A18A7
:101660009B08EC09FD09CE09DF09A00BB10B216035
:101670001A94E1F62EF49401AF01BE01CD01000CE5
:021680000895CB
:10168200CF92DF92EF92DC0190E0292F30E0220F1F
:10169200331F6901032E000CEE086E2DA601425580
:1016A2005F4F6F4F6A01E62EFA018491E7FC808159
:1016B20081110DC02F5F3F4F032E000C440B2255AA
:1016C2003F4F4F4FF901849147FD808124C0CD9057
:1016D200DD90EC901297F6014491E7FC408184136F
:1016E20015C02F5F3F4F032E000C440B22553F4F76
:1016F2004F4FF901949147FD90815FEFC51AD50ACA
:10170200E50ACD92DD92EC92129701C09F5F9B3069
:0E17120008F4BBCF892FEF90DF90CF900895A1
:101720008FEF8ABB1BBA8FE295E70197F1F700C0F4
:10173000000083E00E94470E8FE39FE10197F1F7DD
:1017400000C0000083E00E94470E87EC90E0019704
:10175000F1F700C0000083E00E94470E8FEC97E095
:101760000197F1F700C0000082E00E94470E8FEC65
:1017700097E00197F1F700C0000060E088E20E9466
:10178000740E8FEC97E00197F1F700C0000060E065
:101790008CE00E94740E8FEC97E00197F1F700C087
:1017A000000060E086E00E94740E8FEC97E00197E5
:0817B000F1F700C000000895EC
:1017B8000E94F90F0E94EA0F80ED0E94CE0F80E090
:1017C8000E94CE0F0E94FC0F0E94EA0F81ED0E943A
:1017D800CE0F0E94D50F809362000E94D50F809390
:1017E80061000E94DC0F809360000E94FC0F8091D2
:1017F80062000E94700F80936200809161000E94D5
:10180800700F80936100809160000E94700F809338
:10181800600060E070E080E00E949A0F80916000B4
:101828000E94E20D8AE30E94900F809161000E945D
:10183800E20D8AE30E94900F809162000E94E20DFF
:02184800089501
:10184A000F931F93CF93DF93DB012D913C91119757
:10185A0030FF25C017964D915C91189715962D91DA
:10186A003C9116974217530778F41296ED91FC9122
:10187A001397808312962D913C9113972F5F3F4FB8
:10188A0013963C932E93129717962D913C91189785
:10189A002F5F3F4F18963C932E93179715C01D96AE
:1018AA00ED91FC911E97309719F48FEF9FEF0CC0C2
:1018BA008B01EC010995892BC1F7F8018781908585
:1018CA00019690878783CE01DF91CF911F910F9167
:0218DA0008956F
:1018DC00CF939B01482FF901849147FD8081803281
:1018EC00C9F1682F082E000C770B6950710965300F
:1018FC00710580F18B3249F5A0E0B0E02F5F3F4FCE
:10190C004F4F02C0A0E0B0E080E090E0CAE0F901E7
:10191C00649147FD6081062E000C770B60537109B2
:10192C006A30710560F4C89FF001C99FF00D112455
:10193C002F5F3F4F4F4FCF01861B970BE8CFAB2B41
:10194C0069F491958195910909C08D32D9F6A1E080
:10195C00B0E0D4CF2F5F3F4F4F4FBDCFCF91089505
:10196C006F927F928F92CF92DF92EF920F931F9391
:10197C00CF93DF938C016A01E62EE9013A01862EA2
:10198C00620E731E811C37FD8A94C614D704E804BA
:10199C0079F0F6018491E7FC8081B801082E000CE7
:1019AC00990B0E94250C8FEFC81AD80AE80AEDCFC4
:1019BC00CE01DF91CF911F910F91EF90DF90CF90DF
:0819CC008F907F906F90089549
:1019D4000F931F93CF93DF93C82FD92F0E94EA0E42
:1019E4000E94860F0E94300E182F0E94300E0E9413
:1019F400300E082F0E94300E1F920F931F921F93D8
:101A04008BEC90E0A0E0AF939F938F93DF93CF9301
:101A14000E94C50E8DB79EB709960FB6F8949EBF67
:0E1A24000FBE8DBFDF91CF911F910F910895DE
:101A32001F920F920FB60F9211248F939F93AF9321
:101A4200BF938091690090916A00A0916B00B09160
:101A52006C000196A11DB11D8093690090936A00EC
:101A6200A0936B00B0936C0081E080936D00BF91F6
:101A7200AF919F918F910F900FBE0F901F9018956D
:101A82001F920F920FB60F9211248F939F93AF93D1
:101A9200BF938091650090916600A0916700B0911C
:101AA20068000196A11DB11D8093650090936600A8
:101AB200A0936700B0936800BF91AF919F918F91FF
:0A1AC2000F900FBE0F901F901895B3
:101ACC00A1E21A2EAA1BBB1BFD010DC0AA1FBB1F36
:101ADC00EE1FFF1FA217B307E407F50720F0A21BA8
:101AEC00B30BE40BF50B661F771F881F991F1A9415
:101AFC0069F760957095809590959B01AC01BD013F
:041B0C00CF01089568
:101B1000FA0160387105CCF0623871051CF0633849
:101B2000710599F4A081B1819D012C5F3F4F3183F4
:101B300020834D915D916D917C91FC014083518397
:101B40006283738381E090E0089580E090E00895DF
:101B500097FB10F8169400080F93083098F008507F
:101B6000232F342F452F562F672F782F892F902D15
:101B7000F4CF0594979587957795679557954795F1
:0C1B8000379527950A95AAF70F91089554
:101B8C002F923F924F925F926F927F928F929F9281
:101B9C00AF92BF92CF92DF92EF92FF920F931F936F
:101BAC00CF93DF93CDB7DEB7CA1BDB0B0FB6F89420
:081BBC00DEBF0FBECDBF09948E
:101BC400CF93DF93D82FCDEC8C9FC12D1124C695D4
:101BD400C695C69580E38C0F0E94900FCC0F8C2F76
:101BE400880F880FC80F8D2F8C1B805D0E94900F6B
:061BF400DF91CF9108957E
:101BFA002A88398848885F846E847D848C849B8493
:101C0A00AA84B984C884DF80EE80FD800C811B81A0
:101C1A00AA81B981CE0FD11D0FB6F894DEBF0FBECF
:061C2A00CDBFED0108959D
:101C3000A2E0B0E0EEE1FEE00C94D40D8C013A831A
:101C400029839E012F5F3F4F0E946C00F801208185
:101C500024FF02C08FEF9FEF2296E4E00C940B0E5E
:101C600020E030E080E00FC0879BFECF90E59A95A2
:101C7000F1F7879B05C090E0880F991F816001C034
:0E1C8000880F2F5F3F4F2830310574F3089511
:101C8E008295807F9BB398609BBB95E89A95F1F700
:101C9E0000009BB39F709BBB9BB3892B8BBB8BB3FD
:0E1CAE00877F8BBB85E88A95F1F700000895CB
:101CBC00CF92DF92EF926B01E82EA82FCB01FC01A3
:101CCC002491A7FD2081222319F00196A11DF7CFA5
:0C1CDC008C199D09EF90DF90CF900895C7
:101CE800CF93C82F611104C08BB38B7F8BBB03C00C
:101CF8008BB384608BBB8C2F82958F700E94470EAC
:0A1D08008C2F0E94470ECF91089522
:101D12009C01629FC001639F900D729F900D1124E0
:101D22009C0140E050E060E072E18AE790E00E94AE
:081D3200660DC9010197089537
:101D3A0097FB072E16F4009407D077FD09D00E946E
:101D4A00B10E07FC05D03EF4909581959F4F0895FA
:081D5A00709561957F4F08951B
:101D6200AA1BBB1B51E107C0AA1FBB1FA617B707BF
:101D720010F0A61BB70B881F991F5A95A9F78095DB
:081D82009095BC01CD0108950C
:101D8A00A0E0B0E0EBECFEE00C94D60D9E01265FDD
:101D9A003F4F4F81588569858D819E810E94580FDA
:061DAA00E2E00C940D0EB6
:101DB0001F920F920FB60F9211248F938CB18093C4
:101DC0006F0081E080936E008F910F900FBE0F9097
:041DD0001F901895B3
:101DD40081B3806881BB82B38F7782BB8FE39CE938
:101DE4000197F1F700C0000082B3806882BB0895B8
:101DF4006095709580959095309540955095219576
:101E04003F4F4F4F5F4F6F4F7F4F8F4F9F4F0895FF
:101E1400689401C0E8948F929F92CF93DF930E94BD
:0C1E2400F00ADF91CF919F908F900895FD
:101E3000CF93DF93EC0103C021960E94900F88811D
:0A1E40008111FACFDF91CF910895D0
:101E4A009C0191B3906391BB1DBC1CBC82EA8FBDFF
:0A1E5A008AE18EBD37BD26BD089554
:101E64002FEFAC01249FC001259F900D112464E63F
:0A1E740070E00E949D0ECB0108955E
:101E7E00992777FD05C005900D920197E1F708951A
:0A1E8E0001900D920197E1F708950D
:101E980090BD89B98AB188698AB98BB182608BB9DA
:081EA80080B58E6880BD08952D
:101EB0000F931F9389019A01462F6FEF7FE70E94CE
:081EC0009E0A1F910F91089585
:101EC8000024A7FD00942A17300540055005600539
:081ED8007005800590050895D6
:101EE000982F92959F70990F292F220F220F920FF2
:061EF0008F70890F0895B8
:101EF600EC010E9407100E940610CE010E940810F5
:061F0600CE010E94041050
:101F0C0081B38F7781BB8799FECF879BFECF879953
:041F1C00FECF089557
:101F200061E00E94740E8FE19EE40197F1F700C01A
:041F30000000089510
:101F340090E4699F800D112460E080680E94740E13
:021F44000895FE
:101F460060916500709166008091670090916800CD
:021F56000895EC
:101F5800FC01480F591FE417F50711F06193FBCFF7
:021F68000895DA
:101F6A009C01215631092A31310510F48F759927C0
:021F7A000895C8
:101F7C008BE083BF89B7826089BF8DE78CBF0895E2
:101F8C009C01215431092A31310508F480620895ED
:0E1F9C0083B984E886BF06B607FEFDCF089520
:0E1FAA0084EC86BF06B607FEFDCF83B1089516
:0E1FB80084E886BF06B607FEFDCF83B108950C
:0E1FC60087B3886087BB12BE8BE683BF089589
:0C1FD40084EA86BF06B607FEFDCF089524
:0A1FE0009BBD8ABD79BD68BD089560
:081FEA005D9BFECF8CB9089548
:061FF20080E280B90895B1
:061FF80084E986BF089594
:061FFE0080E090E0089570
:042004000C94000038
:042008000E945500DD
:02200C00089535
:02200E00089533
:02201000089531
:00000001FF
