:100000000C942A000C949A010C9447000C9447001D
:100010000C9447000C9447000C9447000C94470044
:100020000C9447000C9447000C9447000C94F10189
:100030000C9447000C9447000C9447000C94470024
:100040000C9447000C9447000C9447000C94BD009E
:100050000C94470011241FBECFE5D4E0DEBFCDBF16
:1000600010E0A0E6B0E0E4E4FFE002C005900D92ED
:10007000A639B107D9F720E0A6E9B0E001C01D928A
:10008000AF3CB207E1F70E9481030C94A0070C94E7
:100090000000A79A85B38C6F85BB0895809160009E
:1000A00090916100499690936100809360008091E7
:1000B0006000909161008E36910524F010926100ED
:1000C000109260000895E82FF0E0EA56FF4F90810B
:1000D000992321F0913001F110820AC023B330E05E
:1000E000082E02C0359527950A94E2F720FF02C03A
:1000F00080E00895AFE3BCE91197F1F700C000007C
:1001000023B330E002C0359527958A95E2F720FDAC
:10011000EFCF81E08083089523B330E0082E02C042
:10012000359527950A94E2F720FFE2CFAFE3BCE9CB
:100130001197F1F700C0000023B330E002C03595FD
:1001400027958A95E2F720FFD3CFC6CF86E00E949D
:10015000630081110E944E0082E00E9463008823A8
:1001600019F085B3805885BB08958BE083BF89B7AC
:10017000826089BF8DE78CBF08951F920F920FB6E2
:100180000F9211248F939F93AF93BF9380919E0002
:1001900090919F00A091A000B091A1000196A11D97
:1001A000B11D80939E0090939F00A093A000B093F8
:1001B000A100BF91AF919F918F910F900FBE0F90B3
:1001C0001F90189560919E0070919F008091A000F3
:1001D0009091A100089580E280B9089584EA86BFD5
:1001E00006B607FEFDCF089584E986BF089583B95A
:1001F00084E886BF06B607FEFDCF089584EC86BF6F
:1002000006B607FEFDCF83B1089584E886BF06B623
:1002100007FEFDCF83B108956AE00E946404292F90
:1002200030E1839FC0011124822B0895982F92956D
:100230009F708F702AE0929F800D11240895CF93B4
:10024000DF93C62FD22F80E280B90E94EE0080EDAE
:100250000E94F70080E00E94F70080E00E94F70013
:100260008D2F0E940C010E94F7008C2F0E940C0120
:100270000E94F70084E986BFDF91CF910895CF9364
:100280006AE00E946404C92F805D0E94460380E3F7
:100290008C0FCF910C9446031F93CF93DF93D82FED
:1002A000162F80E280B90E94EE0080ED0E94F700D8
:1002B00080E00E94F700C4E9C6BF0E94EE0081ED15
:1002C0000E94F7000E94FE008093AE000E94FE0094
:1002D0008093AD000E9405018093AC00C6BF809161
:1002E000AE000E9416018093AE008091AD000E9486
:1002F00016018093AD008091AC000E94160180939E
:10030000AC00612F8D2F0E9450038091AC000E94A1
:100310003F018AE30E9446038091AD000E943F01A5
:100320008AE30E9446038091AE00DF91CF911F9136
:100330000C943F011F920F920FB60F9211242F932E
:100340003F934F935F938F939F93EF93FF9381E03E
:100350008093A900E091A300F0E0EC55FF4F2091BD
:10036000A20081E090E0AC0102C0440F551F2A9525
:10037000E2F78081842B8083FF91EF919F918F9191
:100380005F914F913F912F910F900FBE0F901F9053
:100390001895FC01BC016B5F7F4F90E080E04191BC
:1003A00050E030E020E0DA01022E02C0B595A795BA
:1003B0000A94E2F7A0FD01962F5F3F4F28303105E8
:1003C00091F7E617F70759F7089590BD89B988E9BD
:1003D0008AB9599A86E880BD08955D9BFECF8CB995
:1003E00008951F920F920FB60F9211248F93EF93DF
:1003F000FF93CF93DF931F92CDB7DEB719828CB1F5
:10040000898389818D3021F08091AA008F31B0F0ED
:10041000E091AA00F0E0E155FF4F10821092AA008F
:1004200081E08093AB000F90DF91CF91FF91EF912E
:100430008F910F900FBE0F901F901895E091AA001A
:10044000F0E08981E155FF4F80838091AA008F5FA2
:100450008093AA00E8CFCF93DF93EC0189918111BB
:1004600003C0DF91CF9108950E94ED01F7CF8FEA8D
:1004700090E00E942B021092AB0008950F931F93FF
:10048000CF93DF93CDB7DEB729970FB6F894DEBFD1
:100490000FBECDBF8091AB008823C9F143E050E08F
:1004A00064E770E08FEA90E00E94BA04892B21F49F
:1004B00082E690E00E942B0244E050E068E770E0A2
:1004C0008FEA90E00E94BA04892B61F58091AE001A
:1004D0001F928F938091AD001F928F938091AC00FB
:1004E0001F928F938DE790E09F938F938E010F5F04
:1004F0001F4F1F930F930E94C804C8010E942B0234
:100500000FB6F894DEBF0FBECDBF1092AB00299698
:100510000FB6F894DEBF0FBECDBFDF91CF911F9114
:100520000F9108958CE890E00E942B028FEA90E0F2
:100530000E942B0282E990E00E942B02E6CF9C01F0
:10054000629FC001639F900D729F900D11249C01CA
:1005500050E040E060E072E18AE790E00E948404AD
:10056000C901019708959C0191B3906391BB1DBC93
:100570001CBC82EA8FBD8AE18EBD37BD26BD0895C1
:10058000BB9A12BE8BE683BF08959BBD8ABD79BD21
:1005900068BD08952FEFAC01249FC001259F900DE9
:1005A000112464E670E00E947004CB010895DB9A88
:1005B00095E89A95F1F700009BB39F709BBB9BB3A6
:1005C0008295807F892B8BBBDB9885E88A95F1F734
:1005D00000000895CF93C82F61110AC0DA988C2FBC
:1005E00082958F700E94D7028C2FCF910C94D702E6
:1005F000DA9AF5CF8EEF8ABB1BBA8FE295E70197A7
:10060000F1F700C0000083E00E94D7028FE39FE172
:100610000197F1F700C0000083E00E94D70287EC49
:1006200090E00197F1F700C0000083E00E94D7023C
:100630008FEC97E00197F1F700C0000082E00E9484
:10064000D7028FEC97E00197F1F700C0000060E05F
:1006500088E20E94EA028FEC97E00197F1F700C070
:10066000000060E08CE00E94EA028FEC97E00197C6
:10067000F1F700C0000060E086E00E94EA028FEC23
:1006800097E00197F1F700C00000089561E00E9433
:10069000EA028FE19EE40197F1F700C0000008959F
:1006A0006295660F660F607C860F60E080680C9430
:1006B000EA02CF93DF93EC018991811103C0DF91AE
:1006C000CF9108950E944603F7CF0F931F93CF93C6
:1006D000DF938B0128E0829FC001112460E08064D9
:1006E0000E94EA02E801085F1F4F61E089910E94C1
:1006F000EA02C017D107C9F7DF91CF911F910F917F
:10070000089578940E94B5000E94EB000E94490071
:100710000E94FA0287E690E00E94E50186E690E0FA
:100720000E942B0282E085BF8BB780648BBF68E09C
:1007300070E080ED97E00E949F020E94B30282E386
:1007400090E00E94CA02BC010E94C5020E94C00241
:10075000412C512C3201812C912C5401C12CD12CD3
:1007600076018EE6282E80E0382E02E610E0C1E009
:10077000D0E00E94A60080916000909161000E94EC
:10078000CA028CBF80919E0090919F00A091A00012
:10079000B091A10088199909AA09BB09843F914029
:1007A000A105B10550F070E060E084E090E00E94A7
:1007B0004C010E94E2004B015C018091A90088235A
:1007C00059F160E080E00E94500387E40E944603F4
:1007D00061E086E00E94500384EA90E00E94C90133
:1007E0009F938F933F922F921F930F930E94C80461
:1007F00082E690E00E94590361E088E00E94500385
:1008000081E790E00E9459031092A9000F900F9089
:100810000F900F900F900F9080919E0090919F00ED
:10082000A091A000B091A1008C199D09AE09BF094B
:10083000883E9340A105B10558F060E080E00E9439
:10084000500380E20E9446030E94E2006B017C019B
:1008500080919E0090919F00A091A000B091A10076
:1008600084199509A609B709883E9340A105B105E9
:1008700040F10E94E2002B013C018091A2008F5FB9
:100880008093A200883058F08091A3008F5F8093FE
:10089000A3001092A200853010F01092A300E09106
:1008A000A300F0E0EC55FF4F8091A2009E0102C032
:1008B000220F331F8A95E2F7C90180959081892321
:1008C00080830E943E0255CF991B79E004C0991F96
:1008D000961708F0961B881F7A95C9F7809508959A
:1008E00097FB072E16F4009407D077FD09D00E94DD
:1008F000A60407FC05D03EF4909581959F4F08957E
:10090000709561957F4F0895A1E21A2EAA1BBB1B1B
:10091000FD010DC0AA1FBB1FEE1FFF1FA217B307CB
:10092000E407F50720F0A21BB30BE40BF50B661FE1
:10093000771F881F991F1A9469F7609570958095A5
:1009400090959B01AC01BD01CF010895AA1BBB1B73
:1009500051E107C0AA1FBB1FA617B70710F0A61BBF
:10096000B70B881F991F5A95A9F780959095BC01E0
:10097000CD010895FB01DC014150504030F08D91D4
:100980000190801919F40020B9F7881B990B08957C
:10099000AEE0B0E0EEECF4E00C9477070D891E8930
:1009A00086E08C831A8309838FEF9FE79E838D8374
:1009B000AE01475E5F4F6F89788DCE0101960E9430
:1009C000EB042F813885020F131FF80110822E9639
:1009D000E4E00C949307ABE0B0E0E1EFF4E00C94BA
:1009E00069077C013B018A01FC0117821682838121
:1009F00081FFC8C1CE0101965C01F7019381F3012B
:100A000093FD859193FF81913F01882309F453C1A0
:100A1000853239F493FD859193FF81913F018532B1
:100A200029F4B70190E00E94DB06E7CF912C212C3E
:100A3000312CFFE1F31538F08B3211F190F4803254
:100A400009F1833229F137FC3CC020ED280F2A3010
:100A500050F536FE20C08AE0989E200D1124922E7B
:100A600006C08D3291F0803371F7689430F8F3014D
:100A700093FD859193FF81913F018111DACF21C0D0
:100A8000689431F8689432F8F2CF689433F8EFCF75
:100A9000689434F8ECCFEAE02E9E200D1124222E2B
:100AA000689435F8E4CF8E3229F436FC04C168949A
:100AB00036F8DDCF8C3619F4689437F8D8CF8836FD
:100AC000B1F2982F9F7D95549330E0F08336A1F1D9
:100AD0008337C1F1833509F063C02801F2E04F0E7E
:100AE000511CF801C080D180692D70E036FC02C035
:100AF0006FEF7FEFC6010E94C5064C01689437F87E
:100B000082010AC00C5F1F4FFFE3F983882483949E
:100B1000912C6501E89437F833FE2DC0522C8114D6
:100B2000910471F5552009F468CFB70180E290E097
:100B30000E94DB065A94F6CFF801808189830E5F0C
:100B40001F4FE4CF2801F2E04F0E511CF801C08086
:100B5000D180692D70E036FC02C06FEF7FEFC601D7
:100B60000E94D0064C018201D5CFB70180E290E00F
:100B70000E94DB062A942814190409F0B0F7CECF9E
:100B8000F60137FC859137FE81916F01B70190E046
:100B90000E94DB0651105A94F1E08F1A9108BFCFE2
:100BA000843619F0893609F077C0F80137FE6BC03A
:100BB00060817181828193810C5F1F4FF32DFF76DD
:100BC0003F2E97FF09C090958095709561957F4F56
:100BD0008F4F9F4F689437F82AE030E0A5010E94BC
:100BE0000B07C82ECA188C2C432C36FE0CC0E89478
:100BF00040F8C91440F434FE05C032FC03C0F32DA4
:100C0000FE7E4F2E892C44FE95C0FE01EC0DF11D99
:100C10008081803309F087C0242D297E422E842DC7
:100C20008870582E43FC95C040FE8FC09C2C8214C7
:100C300018F42C0C922C981844FE91C0B70180E354
:100C400090E00E94DB0642FE09C088E790E041FE8A
:100C500002C088E590E0B7010E94DB06C91408F4E1
:100C60008AC0CA94D12C9FEFC91AD90ACA0CDB1CBE
:100C7000F60182916F01B70190E00E94DB06AC148F
:100C8000BD04B1F74FCF60817181072E000C880B36
:100C9000990B0E5F1F4F92CFD32CE894D4F82AE023
:100CA00030E0853739F1232D297FD22E8F3601F19F
:100CB00048F48835A9F0F701868197812B96E2E107
:100CC0000C948507803749F08837A9F7D4FE02C015
:100CD0006894D2F820E130E00DC06894D4F8F6CFE3
:100CE00034FE03C0822F8660D82E20E132E002C09D
:100CF00028E030E0F801D7FE0FC060817181828169
:100D000093810C5F1F4FA5010E940B07C82ECA18C4
:100D10003D2CE89437F867CF6081718190E080E0E6
:100D20000E5F1F4FF0CF42FC02C0839478CF8394B4
:100D3000839475CF842D867809F471CFF6CFB701EF
:100D400080E290E00E94DB0683948214C0F3512C71
:100D500073CF522C5818821408F46ECFF8CF842D1C
:100D6000867809F47BCF8BE241FE80E247FC8DE27E
:100D7000B70190E071CFB70180E390E00E94DB06FD
:100D80009A946CCF8FEF9FEF99CFFC010590615043
:100D900070400110D8F7809590958E0F9F1F089591
:100DA000FC016150704001900110D8F7809590953A
:100DB0008E0F9F1F08950F931F93CF93DF93182FCC
:100DC000092FEB018B8181FD09C01FEF0FEF812FF0
:100DD000902FDF91CF911F910F91089582FF14C042
:100DE0002E813F818C819D81281739073CF4E88151
:100DF000F981CF0101969983888310838E819F8129
:100E000001969F838E83E3CFE885F985812F09952D
:100E1000892BA1F3DACFFA01AA27283051F120312A
:100E200081F1E8946F936E7F6E5F7F4F8F4F9F4F7E
:100E3000AF4FB1E03ED0B4E03CD0670F781F891FC0
:100E40009A1FA11D680F791F8A1F911DA11D6A0F8E
:100E5000711D811D911DA11D20D009F468943F9141
:100E60002AE0269F11243019305D3193DEF6CF0140
:100E70000895462F4770405D4193B3E00FD0C9F706
:100E8000F6CF462F4F70405D4A3318F0495D31FD73
:100E90004052419302D0A9F7EACFB4E0A6959795C6
:100EA000879577956795BA95C9F70097610571059C
:100EB00008959B01AC010A2E0694579547953795E6
:100EC0002795BA95C9F7620F731F841F951FA01D40
:100ED00008952F923F924F925F926F927F928F92DE
:100EE0009F92AF92BF92CF92DF92EF92FF920F93B9
:100EF0001F93CF93DF93CDB7DEB7CA1BDB0B0FB6C3
:100F0000F894DEBF0FBECDBF09942A88398848887F
:100F10005F846E847D848C849B84AA84B984C88415
:100F2000DF80EE80FD800C811B81AA81B981CE0F0C
:100F3000D11D0FB6F894DEBF0FBECDBFED010895F1
:040F4000F894FFCF53
:100F44001900303000005541525420454E002564AC
:100F5400007552006765740074696D650025303250
:100F6400643A253032643A25303264004745543AB5
:060F740020000D0A000040
:00000001FF
