:100000000C942A000C9450010C9447000C94470067
:100010000C9447000C9447000C9447000C94470044
:100020000C9447000C9447000C9447000C946A030E
:100030000C9447000C9447000C9447000C94470024
:100040000C9447000C9447000C9447000C94300328
:100050000C94470011241FBECFE5D4E0DEBFCDBF16
:1000600011E0A0E6B0E0E0E0F2E102C005900D9200
:10007000AA31B107D9F721E0AAE1B1E001C01D9290
:10008000A637B207E1F70E94AB040C94FE080C946B
:10009000000084B38F7884BB85B3806785BB8E9A5C
:1000A000969A089580916000875E809360008091A9
:1000B00060008E3610F0109260008091600090E039
:1000C0000E9404038CBF0895E82FF0E0E65EFE4F27
:1000D0009081992319F0913001F138C025B330E0B7
:1000E000082E02C0359527950A94E2F720FD2FC00F
:1000F000AFE3BCE91197F1F700C0000025B330E091
:10010000A90102C0559547958A95E2F740FD1FC0A9
:1001100081E0808381E090E0089525B330E0082EEF
:1001200002C0359527950A94E2F720FF10C0AFE38F
:10013000BCE91197F1F700C0000025B330E0A90138
:1001400002C0559547958A95E2F740FD108280E000
:1001500090E0089586E00E946400892B11F00E94CF
:10016000520085E00E946400892B21F092B380E464
:10017000892782BB08956AE00E945505292F30E146
:10018000839FC0011124822B0895982F92959F7010
:100190008F702AE0929F800D11240895CF936AE01A
:1001A0000E945505C92F805D0E94B60280E38C0F26
:1001B000CF910C94B602CF93DF93C82FD62F0E9415
:1001C000010280ED0E94320280E00E94320280E053
:1001D0000E9432028D2F0E94BB000E9432028C2F9F
:1001E0000E94BB000E943202DF91CF910C942F023B
:1001F000CF93DF93C82FD62F0E940102892B09F4D9
:1002000044C080ED0E94320280E00E9432020E94CF
:100210002F020E94010281ED0E9432020E943902E7
:10022000809351010E943902809350010E94400244
:1002300080934F010E942F02809151010E94C500BE
:1002400080935101809150010E94C500809350011C
:1002500080914F010E94C50080934F016D2F8C2F1C
:100260000E94C00280914F010E94CE008AE30E944A
:10027000B602809150010E94CE008AE30E94B6022D
:10028000809151010E94CE0002C080E090E0DF9199
:10029000CF91089582E085BF8BB780648BBF0895AE
:1002A0001F920F920FB60F9211248F939F93AF93CB
:1002B000BF938091430190914401A0914501B09179
:1002C00046010196A11DB11D809343019093440105
:1002D000A0934501B093460181E080932A01BF912C
:1002E000AF919F918F910F900FBE0F901F90189517
:1002F00080912B018A3098F0E0912C01F0E0EE0F14
:10030000FF1FE15DFE4F80912D0190912E01208114
:100310003181821B930B90932E0180932D01F894D1
:100320008091430190914401A0914501B091460113
:10033000E0912C01F0E0EE0FFF1FE15DFE4F918395
:100340008083109243011092440110924501109253
:100350004601789480912C01E82FF0E0EE0FFF1F0A
:10036000E15DFE4F4081518120912D0130912E01A0
:10037000240F351F30932E0120932D018F5F8A307B
:1003800018F480932C0102C010922C0180912B0153
:100390008A3060F48F5F80932B0145E0849FC00119
:1003A0001124092E000CAA0BBB0B04C082E390E0C1
:1003B000A0E0B0E08093610090936200A09363009E
:1003C000B09364008091650090916600289FB00111
:1003D000299F700D389F700D112480E090E02091CE
:1003E00061003091620040916300509164000E946E
:1003F0007505C901089584B38C7F84BB80E280B900
:10040000089580EA96E8A1E0B0E0809352019093CD
:100410005301A0935401B093550184EA86BF06B6F8
:1004200007FC1AC08091520190915301A091540190
:10043000B09155010197A109B109809352019093A0
:100440005301A0935401B0935501892B8A2B8B2B18
:1004500031F780E090E0089581E090E0089584E92C
:1004600086BF089583B984E886BF06B607FEFDCF30
:10047000089584EC86BF06B607FEFDCF83B10895CC
:1004800084E886BF06B607FEFDCF83B10895DB9AE8
:1004900095E89A95F1F700009BB39F709BBB9BB3C7
:1004A0008295807F892B8BBBDB9885E88A95F1F755
:1004B00000000895CF93C82F611102C0DA9801C0DF
:1004C000DA9A8C2F82958F700E9447028C2FCF91E1
:1004D0000C9447028EEF8ABB1BBA8FE295E7019717
:1004E000F1F700C0000083E00E9447028FE39FE124
:1004F0000197F1F700C0000083E00E94470287ECFB
:1005000090E00197F1F700C0000083E00E944702ED
:100510008FEC97E00197F1F700C0000082E00E94A5
:1005200047028FEC97E00197F1F700C0000060E010
:1005300088E20E945A028FEC97E00197F1F700C021
:10054000000060E08CE00E945A028FEC97E0019777
:10055000F1F700C0000060E086E00E945A028FECD4
:1005600097E00197F1F700C00000089561E00E9454
:100570005A028FE19EE40197F1F700C00000089550
:1005800090E4699F800D112460E080680C945A0209
:10059000CF93DF93EC018991882319F00E94B60272
:1005A000FACFDF91CF9108950F931F93CF93DF93ED
:1005B0008B0128E0829FC001112460E080640E94CA
:1005C0005A02E801085F1F4F61E089910E945A02B8
:1005D000C017D107C9F7DF91CF911F910F910895EF
:1005E0009C01629FC001639F900D729F900D11242A
:1005F0009C0140E050E060E072E18AE790E00E94F8
:100600007505C901019708952FEFAC01249FC00122
:10061000259F900D112464E670E00E946105CB01D6
:1006200008959C0191B3906391BB1DBC1CBC82EAF0
:100630008FBD8AE18EBD37BD26BD0895BB9A12BE1F
:100640008BE683BF08959BBD8ABD79BD68BD0895C3
:100650008BE083BF89B7826089BF8DE78CBF089527
:100660001F920F920FB60F9211248F939F93AF9307
:10067000BF938091470190914801A0914901B091A9
:100680004A010196A11DB11D809347019093480135
:10069000A0934901B0934A01BF91AF919F918F916F
:1006A0000F900FBE0F901F901895609147017091A9
:1006B00048018091490190914A01089590BD89B9FE
:1006C00088E98AB9599A86E880BD08955D9BFECF76
:1006D0008CB908951F920F920FB60F9211248F9329
:1006E000EF93FF93CF93DF931F92CDB7DEB71982BD
:1006F0008CB1898389818D3021F080914B018F31BC
:1007000060F0E0914B01F0E0EA5AFE4F1082109247
:100710004B0181E080934C010CC0E0914B01F0E073
:100720008981EA5AFE4F808380914B018F5F8093CD
:100730004B010F90DF91CF91FF91EF918F910F902F
:100740000FBE0F901F901895CF93DF93EC01899106
:10075000882319F00E946603FACFDF91CF910895A4
:1007600086E591E00E94A40310924C010895EF9257
:10077000FF920F931F93CF93DF93CDB7DEB7A09770
:100780000FB6F894DEBF0FBECDBF80914C01882319
:1007900009F4D4C045E050E065E770E086E591E0FB
:1007A0000E94D705892BD1F40E9478019F938F93E3
:1007B0008BE790E09F938F938E010F5F1F4F1F93E6
:1007C0000F930E941406C8010E94A40310924C01CA
:1007D0000F900F900F900F900F900F9044E050E00B
:1007E00067E970E086E591E00E94D705892B09F55D
:1007F000809151011F928F93809150011F928F938E
:1008000080914F011F928F938CE990E09F938F937B
:100810008E010F5F1F4F1F930F930E941406C80194
:100820000E94A40310924C010FB6F894DEBF0FBED5
:10083000CDBF42E050E06AEB70E086E591E00E94B7
:10084000D705892BE9F567E171E086E591E00E9423
:10085000C9056DEB70E080E090E00E94C9058C0155
:100860006DEB70E080E090E00E94C9057C01C8015A
:100870000E94AB05182F092FC7010E94AB05F82E67
:10088000E92E682F792F812F902F0E94DB00EF92A5
:10089000FF920F931F938FEB90E09F938F938E01A6
:1008A0000F5F1F4F1F930F930E941406C8010E94F1
:1008B000A40310924C010FB6F894DEBF0FBECDBF5B
:1008C00043E050E067ED70E086E591E00E94D705D7
:1008D000892B31F567E171E086E591E00E94C90559
:1008E0006DEB70E080E090E00E94C9058C016BED3B
:1008F00070E00E94CE05892B21F0969A8EED90E053
:100900000AC067EF70E0C8010E94CE05892B29F06C
:1009100096988BEF90E00E94A40310924C010CC0BB
:1009200083E191E00E94A40386E591E00E94A40384
:1009300084ED90E00E94A40310924C01A0960FB6A3
:10094000F894DEBF0FBECDBFDF91CF911F910F9105
:10095000FF90EF900895CF93DF93CDB7DEB7279741
:100960000FB6F894DEBF0FBECDBF789487E690E057
:100970000E945E030E94FB010E9428030E941E0346
:100980000E944A010E946A020E94490087E690E0A4
:100990000E94A40368E070E080ED97E00E94F002FE
:1009A0000E94110384E190E00E940403BC010E94B4
:1009B00023038FE6282E80E0382E8E010F5F1F4F15
:1009C00080912A01882329F160E080E00E94C00222
:1009D00087E40E94B6028091470190914801A0915E
:1009E0004901B0914A0184199509A609B7098C3BC0
:1009F0009240A105B10568F060E080E00E94C0026D
:100A000080E20E94B6020E9455032B013C01109225
:100A10002A018091470190914801A0914901B0912C
:100A20004A0188199909AA09BB094497A105B1058A
:100A300040F00E94B7030E94AA000E9455034B0198
:100A40005C018091470190914801A0914901B091CA
:100A50004A018C199D09AE09BF0984389340A1054C
:100A6000B10508F4ADCF60E070E084E090E00E9452
:100A7000F8000E9478019F938F933F922F921F93CB
:100A80000F930E94140661E086E00E94C002C80134
:100A90000E94C8020E9455036B017C010F900F90C9
:100AA0000F900F900F900F908BCF991B79E004C09F
:100AB000991F961708F0961B881F7A95C9F780959D
:100AC000089597FB072E16F4009407D077FD09D000
:100AD0000E94970507FC05D03EF4909581959F4FA5
:100AE0000895709561957F4F0895A1E21A2EAA1B73
:100AF000BB1BFD010DC0AA1FBB1FEE1FFF1FA217CE
:100B0000B307E407F50720F0A21BB30BE40BF50BCA
:100B1000661F771F881F991F1A9469F76095709553
:100B2000809590959B01AC01BD01CF010895AA1B52
:100B3000BB1B51E107C0AA1FBB1FA617B70710F0C8
:100B4000A61BB70B881F991F5A95A9F780959095FA
:100B5000BC01CD010895FC0188279927E8942191D3
:100B60002032E9F3293010F02E30C8F32B3241F057
:100B70002D3239F4689404C00E940C06820F911D36
:100B8000219120532A30C0F31EF4909581959F4FF8
:100B900008954DE451E00E94E5050895FB01DC0154
:100BA0008D91019080190110D9F3990B0895FB01E3
:100BB000DC014150504030F08D910190801919F4C2
:100BC0000020B9F7881B990B0895FA01A191B08113
:100BD000009719F41097E1F0CD01DC01CD010D90E3
:100BE000002011F4C00113C0FB012191222319F050
:100BF0002015D9F7F3CFFB012191201519F41E928E
:100C0000119606C02223C1F70D900020A1F7D00154
:100C1000FA01A193B08308957AE0979F902D879F62
:100C2000802D910D11240895AEE0B0E0EAE1F6E0E8
:100C30000C94D5080D891E8986E08C831A8309835C
:100C40008FEF9FE79E838D83AE01475E5F4F6F8975
:100C5000788DCE0101960E943606EF81F885E00F6F
:100C6000F11F10822E96E4E00C94F108ABE0B0E0A6
:100C7000ECE3F6E00C94C7086C017B018A01FC01EF
:100C800017821682838181FFCCC1CE0101963C017F
:100C9000F6019381F70193FD859193FF81917F0187
:100CA000882309F4BAC1853239F493FD859193FF05
:100CB00081917F01853229F4B60190E00E942D08D0
:100CC000E7CF912C212C312CFFE1F315D8F08B329A
:100CD00079F038F4803279F08332A1F4232D206149
:100CE0001DC08D3261F0803369F4232D216016C060
:100CF000832D8260382EE32DE4603E2E2AC0F32D32
:100D0000F8601DC037FC2DC020ED280F2A3040F0C0
:100D10008E32B9F436FC81C1232D2064322E19C0E5
:100D200036FE06C08AE0989E200D1124922E11C036
:100D3000EAE02E9E200D1124222EF32DF0623F2E8C
:100D400008C08C3621F4832D8068382E02C0883686
:100D500041F4F70193FD859193FF81917F0181110A
:100D6000B3CF982F9F7D9554933028F40C5F1F4F7D
:100D70009FE399830DC0833631F0833771F083355B
:100D800009F059C021C0F801808189830E5F1F4F8F
:100D900088248394912C530113C02801F2E04F0E54
:100DA000511CF801A080B18036FE03C0692D70E0AF
:100DB00002C06FEF7FEFC5010E9422084C01820143
:100DC000F32DFF773F2E16C0280122E0420E511C62
:100DD000F801A080B18036FE03C0692D70E002C02A
:100DE0006FEF7FEFC5010E9417084C01F32DF068EB
:100DF0003F2E820133FC1BC0822D90E0881699069D
:100E0000B0F4B60180E290E00E942D082A94F4CF5D
:100E1000F50137FC859137FE81915F01B60190E0C5
:100E20000E942D0821102A9421E0821A9108811431
:100E3000910471F7E8C0843611F0893641F5F80164
:100E400037FE07C060817181828193810C5F1F4FE3
:100E500008C060817181072E000C880B990B0E5F12
:100E60001F4FF32DFF763F2E97FF09C09095809579
:100E7000709561957F4F8F4F9F4FF0683F2E2AE00E
:100E800030E0A3010E946908882E861845C0853786
:100E900031F4232D2F7EB22E2AE030E025C0932D91
:100EA000997FB92E8F36C1F018F4883579F0B5C026
:100EB000803719F0883721F0B0C0E92FE061BE2EED
:100EC000B4FE0DC0FB2DF460BF2E09C034FE0AC075
:100ED000292F2660B22E06C028E030E005C020E1B0
:100EE00030E002C020E132E0F801B7FE07C06081C7
:100EF0007181828193810C5F1F4F06C06081718177
:100F000080E090E00E5F1F4FA3010E946908882EC9
:100F10008618FB2DFF773F2E36FE0DC0232D2E7F2A
:100F2000A22E891458F434FE0BC032FC09C0832D64
:100F30008E7EA82E05C0B82CA32C03C0B82C01C0EF
:100F4000B92CA4FE0FC0FE01E80DF11D8081803395
:100F500021F49A2D997EA92E09C0A2FE06C0B39451
:100F6000B39404C08A2D867809F0B394A3FC11C011
:100F7000A0FE06C0B21488F4280C922C9B180EC058
:100F8000B21460F4B60180E290E00E942D08B394A0
:100F9000F7CFB21418F42B1802C0982C212CA4FE01
:100FA00010C0B60180E390E00E942D08A2FE17C099
:100FB000A1FC03C088E790E002C088E590E0B6019C
:100FC0000CC08A2D867859F0A1FE02C08BE201C0C8
:100FD00080E2A7FC8DE2B60190E00E942D08891402
:100FE00038F4B60180E390E00E942D089A94F7CF80
:100FF0008A94F301E80DF11D8081B60190E00E9412
:101000002D088110F5CF222009F442CEB60180E2EE
:1010100090E00E942D082A94F6CFF60186819781F0
:1010200002C08FEF9FEF2B96E2E10C94E308FC01E6
:101030000590615070400110D8F7809590958E0F03
:101040009F1F0895FC016150704001900110D8F776
:10105000809590958E0F9F1F08950F931F93CF93A8
:10106000DF93FB01238121FD03C08FEF9FEF2CC095
:1010700022FF16C0468157812481358142175307CC
:1010800044F4A081B1819D012F5F3F4F31832083C4
:101090008C93268137812F5F3F4F3783268314C07F
:1010A0008B01EC01FB010084F185E02D0995892B72
:1010B000E1F6D80116968D919C9117970196179697
:1010C0009C938E931697CE01DF91CF911F910F9134
:1010D0000895FA01AA27283051F1203181F1E894CE
:1010E0006F936E7F6E5F7F4F8F4F9F4FAF4FB1E01B
:1010F0003ED0B4E03CD0670F781F891F9A1FA11D16
:10110000680F791F8A1F911DA11D6A0F711D811D16
:10111000911DA11D20D009F468943F912AE0269FDB
:1011200011243019305D3193DEF6CF010895462F3A
:101130004770405D4193B3E00FD0C9F7F6CF462F1B
:101140004F70405D4A3318F0495D31FD4052419384
:1011500002D0A9F7EACFB4E0A69597958795779541
:101160006795BA95C9F700976105710508959B01C8
:10117000AC010A2E06945795479537952795BA9551
:10118000C9F7620F731F841F951FA01D08952F922A
:101190003F924F925F926F927F928F929F92AF9207
:1011A000BF92CF92DF92EF92FF920F931F93CF9354
:1011B000DF93CDB7DEB7CA1BDB0B0FB6F894DEBFEB
:1011C0000FBECDBF09942A88398848885F846E8411
:1011D0007D848C849B84AA84B984C884DF80EE805B
:1011E000FD800C811B81AA81B981CE0FD11D0FB664
:1011F000F894DEBF0FBECDBFED010895F894FFCF88
:10120000320100000022005541525420454E002575
:10121000642075520067616D6D61001B5B303B336C
:10122000316D2047616D6D613A2025642075522033
:101230001B5B306D0D0A0074696D65001B5B313BF3
:1012400033336D20253032643A253032643A25300C
:101250003264201B5B306D0D0A007374002C007328
:1012600065742074696D65202D3E20253032643A06
:10127000253032640D0A00736E64006F6E001B5BD4
:10128000303B33316D20536F756E64204F464620DE
:101290001B5B306D0D0A006F6666001B5B303B33D5
:1012A000326D20536F756E64204F4E201B5B306D86
:0A12B0000D0A004745543A200000E3
:00000001FF
