:100000000C942A000C942E010C9447000C94470089
:100010000C9447000C9447000C9447000C94470044
:100020000C9447000C9447000C9447000C94620118
:100030000C9447000C9447000C9447000C94470024
:100040000C9447000C9447000C9447000C9400015A
:100050000C94470011241FBECFE5D4E0DEBFCDBF16
:1000600010E0A0E6B0E0E4E2FDE002C005900D92F1
:10007000A037B107D9F720E0A0E7B0E001C01D929A
:10008000AE39B207E1F70E9494020C9490060C94EA
:10009000000080E280B9089584EA86BF06B607FEB4
:1000A000FDCF089584E986BF089583B984E886BFAB
:1000B00006B607FEFDCF08956AE00E946203292F6D
:1000C00030E1839FC0011124822B0895982F9295CF
:1000D0009F708F702AE0929F800D1124089584EC08
:1000E00086BF06B607FEFDCF83B1089584E886BFBC
:1000F00006B607FEFDCF83B10895CF936AE00E9454
:100100006203C92F805D0E94590280E38C0FCF915A
:100110000C945902CF93DF93C62FD22F80E280B97F
:100120000E944C0080ED0E94550080E00E94550026
:1001300080E00E9455008D2F0E945C000E945500B7
:100140008C2F0E945C000E94550084E986BFDF91DD
:10015000CF9108951F93CF93DF93D82F162F80E26E
:1001600080B90E944C0080ED0E94550080E00E9402
:100170005500C4E9C6BF0E944C0081ED0E945500A5
:100180000E946F0080937D000E946F0080937C002E
:100190000E94760080937B00C6BF80917D000E9404
:1001A000660080937D0080917C000E9466008093B1
:1001B0007C0080917B000E94660080937B00612F11
:1001C0008D2F0E94630280917B000E947D008AE354
:1001D0000E94590280917C000E947D008AE30E9467
:1001E000590280917D00DF91CF911F910C947D0089
:1001F0008BE083BF89B7826089BF8DE78CBF08958C
:100200001F920F920FB60F9211248F939F93AF936B
:10021000BF938091750090917600A0917700B09186
:1002200078000196A11DB11D809375009093760012
:10023000A0937700B0937800BF91AF919F918F9179
:100240000F900FBE0F901F901895609175007091E0
:100250007600809177009091780008951F920F9218
:100260000FB60F9211248F939F93AF93BF938091FA
:10027000710090917200A0917300B091740001968A
:10028000A11DB11D8093710090937200A093730023
:10029000B093740081E080937000BF91AF919F9103
:1002A0008F910F900FBE0F901F90189590BD89B938
:1002B00088E98AB9599A86E880BD08955D9BFECF8A
:1002C0008CB908951F920F920FB60F9211248F933D
:1002D000EF93FF93CF93DF931F92CDB7DEB71982D1
:1002E0008CB1898389818D3021F0809179008F31A3
:1002F000B0F0E0917900F0E0E258FF4F10821092E8
:10030000790081E080937A000F90DF91CF91FF9187
:10031000EF918F910F900FBE0F901F901895E09165
:100320007900F0E08981E258FF4F80838091790065
:100330008F5F80937900E8CFCF93DF93EC018991B1
:10034000811103C0DF91CF9108950E945E01F7CF24
:100350008EE790E00E949C0110927A0008959C0123
:10036000629FC001639F900D729F900D11249C01AC
:1003700050E040E060E072E18AE790E00E94820392
:10038000C901019708959C0191B3906391BB1DBC75
:100390001CBC82EA8FBD8AE18EBD37BD26BD0895A3
:1003A000BB9A12BE8BE683BF08959BBD8ABD79BD03
:1003B00068BD08952FEFAC01249FC001259F900DCB
:1003C000112464E670E00E946E03CB0108958295CB
:1003D000807FDB9A95E89A95F1F700009BB39F70B8
:1003E0009BBB8BBB8BB384708BBB85E88A95F1F785
:1003F00000000895CF93C82F61110AC0DA988C2F9E
:1004000082958F700E94E7018C2FCF910C94E701A9
:100410008BB3876F8BBBF3CF8FEF8ABB81E08BBB36
:100420008FE295E70197F1F700C0000083E00E949A
:10043000E7018FE39FE10197F1F700C0000083E03F
:100440000E94E70187EC90E00197F1F700C00000FF
:1004500083E00E94E7018FEC97E00197F1F700C07D
:10046000000082E00E94E7018FEC97E00197F1F72E
:1004700000C0000060E088E20E94FA018FEC97E083
:100480000197F1F700C0000060E08CE00E94FA01E3
:100490008FEC97E00197F1F700C0000060E086E084
:1004A0000E94FA018FEC97E00197F1F700C000007D
:1004B000089561E00E94FA018FE19EE40197F1F74F
:1004C00000C0000008956295660F660F607C860F7D
:1004D00060E080680C94FA01CF93DF93EC0189917E
:1004E000811103C0DF91CF9108950E945902F7CF87
:1004F0000F931F93CF93DF938B0128E0829FC0015E
:10050000112460E080640E94FA01E801085F1F4F37
:1005100061E089910E94FA01C017D107C9F7DF9104
:10052000CF911F910F910895CF93DF9300D000D00A
:10053000CDB7DEB778940E94F8000E9449000E946F
:100540000C0287E690E00E94560185E690E00E944A
:100550009C0182E085BF8BB780648BBF68E070E050
:1005600088EB9BE00E94AF010E94C30182E390E010
:100570000E94DA01BC010E94D5010E94D00182E3F1
:1005800090E00E94DA018CBF809160009091610040
:10059000A0916200B091630089839A83AB83BC838E
:1005A000812C912C5401C12CD12C7601412C512C41
:1005B00032018DE6282E80E0382E8E010F5F1F4F0E
:1005C0008091750090917600A0917700B0917800AD
:1005D00088199909AA09BB0984389340A105B10576
:1005E00070F070E060E090E080E00E94AA008090EF
:1005F000750090907600A0907700B0907800809180
:10060000710090917200A0917300B09174008415F4
:100610009505A605B70531F160E08CE00E94630204
:100620008091710090917200A0917300B09174005C
:10063000BF93AF939F938F933F922F921F930F93EC
:100640000E94B803C8010E946C0240907100509053
:10065000720060907300709074000FB6F894DEBF63
:100660000FBECDBF80917000882309F4A9CF60E050
:100670008BE00E94630287E40E945902809175001A
:1006800090917600A0917700B09178008C199D0927
:10069000AE09BF09843F9140A105B10508F490CF90
:1006A00060E08BE00E94630280E20E945902109297
:1006B0007000C0907500D0907600E0907700F090C8
:1006C00078007ECF991B79E004C0991F961708F037
:1006D000961B881F7A95C9F78095089597FB072E7A
:1006E00016F4009407D077FD09D00E94A40307FCFC
:1006F00005D03EF4909581959F4F08957095619532
:100700007F4F0895A1E21A2EAA1BBB1BFD010DC04D
:10071000AA1FBB1FEE1FFF1FA217B307E407F507B1
:1007200020F0A21BB30BE40BF50B661F771F881F8D
:10073000991F1A9469F760957095809590959B0123
:10074000AC01BD01CF010895AA1BBB1B51E107C03D
:10075000AA1FBB1FA617B70710F0A61BB70B881F51
:10076000991F5A95A9F780959095BC01CD010895E0
:10077000AEE0B0E0EEEBF3E00C9467060D891E8965
:1007800086E08C831A8309838FEF9FE79E838D8396
:10079000AE01475E5F4F6F89788DCE0101960E9452
:1007A000DB032F813885020F131FF80110822E966C
:1007B000E4E00C948306ABE0B0E0E1EEF3E00C94EF
:1007C00059067C013B018A01FC0117821682838154
:1007D00081FFC8C1CE0101965C01F7019381F3014D
:1007E00093FD859193FF81913F01882309F453C1C3
:1007F000853239F493FD859193FF81913F018532D4
:1008000029F4B70190E00E94CB05E7CF912C212C71
:10081000312CFFE1F31538F08B3211F190F4803276
:1008200009F1833229F137FC3CC020ED280F2A3032
:1008300050F536FE20C08AE0989E200D1124922E9D
:1008400006C08D3291F0803371F7689430F8F3016F
:1008500093FD859193FF81913F018111DACF21C0F2
:10086000689431F8689432F8F2CF689433F8EFCF97
:10087000689434F8ECCFEAE02E9E200D1124222E4D
:10088000689435F8E4CF8E3229F436FC04C16894BC
:1008900036F8DDCF8C3619F4689437F8D8CF88361F
:1008A000B1F2982F9F7D95549330E0F08336A1F1FB
:1008B0008337C1F1833509F063C02801F2E04F0EA0
:1008C000511CF801C080D180692D70E036FC02C057
:1008D0006FEF7FEFC6010E94B5054C01689437F8B1
:1008E00082010AC00C5F1F4FFFE3F98388248394C1
:1008F000912C6501E89437F833FE2DC0522C8114F9
:10090000910471F5552009F468CFB70180E290E0B9
:100910000E94CB055A94F6CFF801808189830E5F3F
:100920001F4FE4CF2801F2E04F0E511CF801C080A8
:10093000D180692D70E036FC02C06FEF7FEFC601F9
:100940000E94C0054C018201D5CFB70180E290E042
:100950000E94CB052A942814190409F0B0F7CECFD1
:10096000F60137FC859137FE81916F01B70190E068
:100970000E94CB0551105A94F1E08F1A9108BFCF15
:10098000843619F0893609F077C0F80137FE6BC05C
:1009900060817181828193810C5F1F4FF32DFF76FF
:1009A0003F2E97FF09C090958095709561957F4F78
:1009B0008F4F9F4F689437F82AE030E0A5010E94DE
:1009C000FB05C82ECA188C2C432C36FE0CC0E894AC
:1009D00040F8C91440F434FE05C032FC03C0F32DC6
:1009E000FE7E4F2E892C44FE95C0FE01EC0DF11DBC
:1009F0008081803309F087C0242D297E422E842DEA
:100A00008870582E43FC95C040FE8FC09C2C8214E9
:100A100018F42C0C922C981844FE91C0B70180E376
:100A200090E00E94CB0542FE09C088E790E041FEBD
:100A300002C088E590E0B7010E94CB05C91408F414
:100A40008AC0CA94D12C9FEFC91AD90ACA0CDB1CE0
:100A5000F60182916F01B70190E00E94CB05AC14C2
:100A6000BD04B1F74FCF60817181072E000C880B58
:100A7000990B0E5F1F4F92CFD32CE894D4F82AE045
:100A800030E0853739F1232D297FD22E8F3601F1C1
:100A900048F48835A9F0F701868197812B96E2E129
:100AA0000C947506803749F08837A9F7D4FE02C048
:100AB0006894D2F820E130E00DC06894D4F8F6CF05
:100AC00034FE03C0822F8660D82E20E132E002C0BF
:100AD00028E030E0F801D7FE0FC06081718182818B
:100AE00093810C5F1F4FA5010E94FB05C82ECA18F9
:100AF0003D2CE89437F867CF6081718190E080E009
:100B00000E5F1F4FF0CF42FC02C0839478CF8394D6
:100B1000839475CF842D867809F471CFF6CFB70111
:100B200080E290E00E94CB0583948214C0F3512CA4
:100B300073CF522C5818821408F46ECFF8CF842D3E
:100B4000867809F47BCF8BE241FE80E247FC8DE2A0
:100B5000B70190E071CFB70180E390E00E94CB0530
:100B60009A946CCF8FEF9FEF99CFFC010590615065
:100B700070400110D8F7809590958E0F9F1F0895B3
:100B8000FC016150704001900110D8F7809590955C
:100B90008E0F9F1F08950F931F93CF93DF93182FEE
:100BA000092FEB018B8181FD09C01FEF0FEF812F12
:100BB000902FDF91CF911F910F91089582FF14C064
:100BC0002E813F818C819D81281739073CF4E88173
:100BD000F981CF0101969983888310838E819F814B
:100BE00001969F838E83E3CFE885F985812F099550
:100BF000892BA1F3DACFFA01AA27283051F120314D
:100C000081F1E8946F936E7F6E5F7F4F8F4F9F4FA0
:100C1000AF4FB1E03ED0B4E03CD0670F781F891FE2
:100C20009A1FA11D680F791F8A1F911DA11D6A0FB0
:100C3000711D811D911DA11D20D009F468943F9163
:100C40002AE0269F11243019305D3193DEF6CF0162
:100C50000895462F4770405D4193B3E00FD0C9F728
:100C6000F6CF462F4F70405D4A3318F0495D31FD95
:100C70004052419302D0A9F7EACFB4E0A6959795E8
:100C8000879577956795BA95C9F7009761057105BE
:100C900008959B01AC010A2E069457954795379508
:100CA0002795BA95C9F7620F731F841F951FA01D62
:100CB00008952F923F924F925F926F927F928F9200
:100CC0009F92AF92BF92CF92DF92EF92FF920F93DB
:100CD0001F93CF93DF93CDB7DEB7CA1BDB0B0FB6E5
:100CE000F894DEBF0FBECDBF09942A8839884888A2
:100CF0005F846E847D848C849B84AA84B984C88438
:100D0000DF80EE80FD800C811B81AA81B981CE0F2E
:100D1000D11D0FB6F894DEBF0FBECDBFED01089513
:040D2000F894FFCF75
:100D240030302F6E005541525420454E002564004A
:00000001FF
