:100000000C942A000C94E1010C9447000C944700D6
:100010000C9447000C9447000C9447000C94470044
:100020000C9447000C9447000C9447000C94380241
:100030000C9447000C9447000C9447000C94470024
:100040000C9447000C9447000C9447000C94D0008B
:100050000C94470011241FBECFE5D4E0DEBFCDBF16
:1000600011E0A0E6B0E0E0E9F1E102C005900D92F8
:10007000AC31B107D9F721E0ACE1B1E001C01D928C
:10008000AB35B207E1F70E945D040C94C6080C94EE
:10009000000080E884BB85B3806685BBAF98BA9AC0
:1000A000C29A8E9A0895809160009091610049965D
:1000B0009093610080936000809160009091610056
:1000C0008E36910524F010926100109260008091AC
:1000D0006000909161000E94A6038CBF0895E82FF4
:1000E000F0E0E45EFE4F9081992321F0913019F108
:1000F00010820AC023B330E0082E02C03595279540
:100100000A94E2F720FF03C090E080E00895AFE397
:10011000BCE91197F1F700C0000023B330E002C042
:10012000359527958A95E2F720FDEECF81E0808313
:1001300081E090E0089523B330E0082E02C03595A9
:1001400027950A94E2F720FFDFCFAFE3BCE91197D0
:10015000F1F700C0000023B330E002C035952795C9
:100160008A95E2F720FFD0CFC3CF86E00E946F00D0
:10017000892B11F00E94530085E00E946F00892BAB
:1001800029F082B390E4892782BB08950000089586
:100190008BE083BF89B7826089BF8DE78CBF0895EC
:1001A0001F920F920FB60F9211248F939F93AF93CC
:1001B000BF938091240190912501A0912601B091D7
:1001C00027010196A11DB11D809324019093250163
:1001D000A0932601B0932701BF91AF919F918F917A
:1001E0000F900FBE0F901F90189560912401709191
:1001F00025018091260190912701089584B38C7F79
:1002000084BB80E280B9089580EA96E8A1E0B0E07E
:100210008093350190933601A0933701B093380154
:1002200084EA86BF06B607FE03C081E090E0089529
:100230008091350190913601A0913701B09138013C
:100240000197A109B1098093350190933601A093DC
:100250003701B0933801892B8A2B8B2B19F790E04B
:1002600080E0089584E986BF089583B984E886BF55
:1002700006B607FEFDCF089584EC86BF06B607FEDE
:10028000FDCF83B1089584E886BF06B607FEFDCF93
:1002900083B108956AE00E942F05292F30E1839FE2
:1002A000C0011124822B0895982F92959F708F7012
:1002B0002AE0929F800D11240895CF93DF93C82FD9
:1002C000D62F0E94FE000E94040180ED0E9435019D
:1002D00080E00E94350180E00E9435018D2F0E9450
:1002E0004A010E9435018C2F0E944A010E9435016B
:1002F00084E986BFDF91CF910895CF936AE00E9491
:100300002F05C92F805D0E94220480E38C0FCF91BE
:100310000C9422041F93CF93DF93D82F162FF894B9
:100320000E94FE000E940401892B09F447C080ED61
:100330000E94350180E00E943501C4E9C6BF0E94D9
:10034000040181ED0E9435010E943C0180933A0135
:100350000E943C01809339010E9443018093340143
:10036000C6BF80913A010E94540180933A01809166
:1003700039010E94540180933901809134010E9417
:10038000540180933401612F8D2F0E942C048091A1
:1003900034010E947D018AE30E9422048091390188
:1003A0000E947D018AE30E94220480913A010E940A
:1003B0007D017894DF91CF911F91089590E080E0C6
:1003C000F9CF1F920F920FB60F9211242F933F93E4
:1003D0004F935F938F939F93EF93FF9381E080936D
:1003E0002F01E0912901F0E0E65DFE4F2091280108
:1003F00081E090E0AC0102C0440F551F2A95E2F75E
:100400008081842B8083FF91EF919F918F915F91E9
:100410004F913F912F910F900FBE0F901F90189505
:10042000FC01BC016B5F7F4F90E080E0419150E0A8
:1004300030E020E0DA01022E02C0B595A7950A94BB
:10044000E2F7A0FD01962F5F3F4F2830310591F76D
:10045000E617F70759F7089590BD89B988E98AB971
:10046000599A86E880BD08955D9BFECF8CB90895AA
:100470001F920F920FB60F9211248F93EF93FF9359
:10048000CF93DF931F92CDB7DEB719828CB18983EA
:1004900089818D3021F0809130018F31B0F0E09171
:1004A0003001F0E0E55CFE4F10821092300181E0F7
:1004B000809331010F90DF91CF91FF91EF918F9158
:1004C0000F900FBE0F901F901895E0913001F0E053
:1004D0008981E55CFE4F8083809130018F5F80933E
:1004E0003001E8CFCF93DF93EC018991811103C0F4
:1004F000DF91CF9108950E943402F7CF8BE391E012
:100500000E947202109231010895EF92FF920F93B0
:100510001F93CF93DF93CDB7DEB7A0970FB6F894B4
:10052000DEBF0FBECDBF80913101882309F4BEC06C
:1005300045E050E067E770E08BE391E00E94B10591
:10054000892BE1F48AE291E00E9410029F938F933D
:100550008DE790E09F938F938E010F5F1F4F1F9346
:100560000F930E94EE05C8010E94720210923101A1
:100570000F900F900F900F900F900F9044E050E06D
:1005800069E970E08BE391E00E94B105892B09F5E0
:1005900080913A011F928F93809139011F928F931E
:1005A000809134011F928F938EE990E09F938F93F7
:1005B0008E010F5F1F4F1F930F930E94EE05C8011E
:1005C0000E947202109231010FB6F894DEBF0FBE86
:1005D000CDBF42E050E06CEB70E08BE391E00E9415
:1005E000B105892BE9F569E171E08BE391E00E94A7
:1005F000A3056FEB70E090E080E00E94A3058C0102
:100600006FEB70E090E080E00E94A3057C01C801E0
:100610000E948505182F092FC7010E948505F82E15
:10062000E92E682F792F812F902F0E945D01EF9284
:10063000FF920F931F9381EC90E09F938F938E0115
:100640000F5F1F4F1F930F930E94EE05C8010E947A
:100650007202109231010FB6F894DEBF0FBECDBF0B
:1006600043E050E069ED70E08BE391E00E94B1055A
:10067000892BA1F569E171E08BE391E00E94A3056C
:100680006FEB70E090E080E00E94A3058C016DEDBF
:1006900070E00E94A805892BB1F0969A80EE90E058
:1006A0000E9472021092310110923101A0960FB691
:1006B000F894DEBF0FBECDBFDF91CF911F910F9198
:1006C000FF90EF90089569EF70E0C8010E94A805BF
:1006D000892B41F396988DEF90E0E2CF85E191E090
:1006E0000E9472028BE391E00E94720286ED90E01C
:1006F0000E947202D9CF9C01629FC001639F900D3E
:10070000729F900D11249C0150E040E060E072E186
:100710008AE790E00E944F05C901019708959C0166
:1007200091B3906391BB1DBC1CBC82EA8FBD8AE172
:100730008EBD37BD26BD0895BB9A12BE8BE683BF22
:1007400008959BBD8ABD79BD68BD08952FEFAC01AA
:10075000249FC001259F900D112464E670E00E9443
:100760003B05CB010895DB9A95E89A95F1F70000D7
:100770009BB39F709BBB9BB38295807F892B8BBB68
:10078000DB9885E88A95F1F700000895CF93C82F8C
:1007900061110AC0DA988C2F82958F700E94B30382
:1007A0008C2FCF910C94B303DA9AF5CF8EEF8ABBDE
:1007B0001BBA8FE295E70197F1F700C0000083E0D4
:1007C0000E94B3038FE39FE10197F1F700C000009F
:1007D00083E00E94B30387EC90E00197F1F700C03B
:1007E000000083E00E94B3038FEC97E00197F1F7DC
:1007F00000C0000082E00E94B3038FEC97E00197F5
:10080000F1F700C0000060E088E20E94C6038FECB0
:1008100097E00197F1F700C0000060E08CE00E94D3
:10082000C6038FEC97E00197F1F700C0000060E08D
:1008300086E00E94C6038FEC97E00197F1F700C0B5
:100840000000089561E00E94C6038FE19EE40197D5
:10085000F1F700C0000008956295660F660F607C96
:10086000860F60E080680C94C603CF93DF93EC01A1
:100870008991811103C0DF91CF9108950E942204D4
:10088000F7CF0F931F93CF93DF938B0128E0829FC5
:10089000C001112460E080640E94C603E801085F83
:1008A0001F4F61E089910E94C603C017D107C9F7A5
:1008B000DF91CF911F910F91089578940E94C80005
:1008C0000E9449000E94D6030E949C0387E690E0A4
:1008D0000E942C0289E690E00E94720282E085BFAD
:1008E0008BB780648BBF68E070E080ED97E00E947A
:1008F0007B030E948F0384E190E00E94A603BC0169
:100900000E94A103412C512C3201812C912C5401C5
:10091000C12CD12C760101E710E0C2E6D0E0222400
:100920002394312C0E9485020E94B50080912401FD
:1009300090912501A0912601B0912701881999096C
:10094000AA09BB09843F9140A105B10550F070E0B0
:1009500060E084E090E00E948A010E94F5004B0173
:100960005C0180912F01882319F160E080E00E94F2
:100970002C0487E40E94220461E086E00E942C049B
:100980008AE291E00E9410029F938F931F930F932E
:10099000DF93CF930E94EE0582E690E00E9435043B
:1009A00010922F010F900F900F900F900F900F90BB
:1009B0008091240190912501A0912601B0912701F9
:1009C0008C199D09AE09BF09883E9340A105B10568
:1009D00058F060E080E00E942C0480E20E94220433
:1009E0000E94F5006B017C0180912401909125010A
:1009F000A0912601B091270184199509A609B7098C
:100A0000883E9340A105B10508F48CCF0E94F50003
:100A10002B013C01809128018F5F80932801883051
:100A200058F0809129018F5F80932901109228014D
:100A3000853010F010922901E0912901F0E0E65D87
:100A4000FE4F80912801910102C0220F331F8A9529
:100A5000E2F7C901809590818923808363CF991B38
:100A600079E004C0991F961708F0961B881F7A95A5
:100A7000C9F78095089597FB072E16F4009407D0C8
:100A800077FD09D00E94710507FC05D03EF49095D2
:100A900081959F4F0895709561957F4F0895A1E2CC
:100AA0001A2EAA1BBB1BFD010DC0AA1FBB1FEE1FE8
:100AB000FF1FA217B307E407F50720F0A21BB30B33
:100AC000E40BF50B661F771F881F991F1A9469F7AF
:100AD00060957095809590959B01AC01BD01CF010B
:100AE0000895AA1BBB1B51E107C0AA1FBB1FA61775
:100AF000B70710F0A61BB70B881F991F5A95A9F7C7
:100B000080959095BC01CD010895FC018827992717
:100B1000E89421912032E9F3293010F02E30C8F307
:100B20002B3241F02D3239F4689404C00E94E6055E
:100B3000820F911D219120532A30C0F31EF490950D
:100B400081959F4F089542E351E00E94BF050895AB
:100B5000FB01DC018D91019080190110D9F3990BF3
:100B60000895FB01DC014150504030F08D9101901F
:100B7000801919F40020B9F7881B990B0895FA0120
:100B8000A191B081009719F41097E1F0CD01DC013B
:100B9000CD010D90002011F4C00113C0FB01219183
:100BA000222319F02015D9F7F3CFFB01219120154D
:100BB00019F41E92119606C02223C1F70D90002051
:100BC000A1F7D001FA01A193B08308957AE0979F2D
:100BD000902D879F802D910D11240895AEE0B0E0F7
:100BE000E4EFF5E00C949D080D891E8986E08C8366
:100BF0001A8309838FEF9FE79E838D83AE01475E43
:100C00005F4F6F89788DCE0101960E9411062F816A
:100C10003885020F131FF80110822E96E4E00C9421
:100C2000B908ABE0B0E0E7E1F6E00C948F087C0196
:100C30003B018A01FC0117821682838181FFC8C1B2
:100C4000CE0101965C01F7019381F30193FD85913B
:100C500093FF81913F01882309F453C1853239F410
:100C600093FD859193FF81913F01853229F4B7016E
:100C700090E00E940108E7CF912C212C312CFFE15C
:100C8000F31538F08B3211F190F4803209F1833290
:100C900029F137FC3CC020ED280F2A3050F536FEF4
:100CA00020C08AE0989E200D1124922E06C08D321D
:100CB00091F0803371F7689430F8F30193FD8591DA
:100CC00093FF81913F018111DACF21C0689431F8FF
:100CD000689432F8F2CF689433F8EFCF689434F820
:100CE000ECCFEAE02E9E200D1124222E689435F8D8
:100CF000E4CF8E3229F436FC04C1689436F8DDCF97
:100D00008C3619F4689437F8D8CF8836B1F2982F1A
:100D10009F7D95549330E0F08336A1F18337C1F184
:100D2000833509F063C02801F2E04F0E511CF80131
:100D3000C080D180692D70E036FC02C06FEF7FEF7C
:100D4000C6010E94EB074C01689437F882010AC083
:100D50000C5F1F4FFFE3F98388248394912C650176
:100D6000E89437F833FE2DC0522C8114910471F5AC
:100D7000552009F468CFB70180E290E00E94010895
:100D80005A94F6CFF801808189830E5F1F4FE4CF1C
:100D90002801F2E04F0E511CF801C080D180692D6E
:100DA00070E036FC02C06FEF7FEFC6010E94F607CD
:100DB0004C018201D5CFB70180E290E00E9401088A
:100DC0002A942814190409F0B0F7CECFF60137FCA5
:100DD000859137FE81916F01B70190E00E94010873
:100DE00051105A94F1E08F1A9108BFCF843619F050
:100DF000893609F077C0F80137FE6BC060817181D8
:100E0000828193810C5F1F4FF32DFF763F2E97FF5A
:100E100009C090958095709561957F4F8F4F9F4F3A
:100E2000689437F82AE030E0A5010E943108C82E06
:100E3000CA188C2C432C36FE0CC0E89440F8C91418
:100E400040F434FE05C032FC03C0F32DFE7E4F2E6D
:100E5000892C44FE95C0FE01EC0DF11D808180338C
:100E600009F087C0242D297E422E842D8870582EAB
:100E700043FC95C040FE8FC09C2C821418F42C0CAF
:100E8000922C981844FE91C0B70180E390E00E9434
:100E9000010842FE09C088E790E041FE02C088E5F3
:100EA00090E0B7010E940108C91408F48AC0CA94EE
:100EB000D12C9FEFC91AD90ACA0CDB1CF60182910A
:100EC0006F01B70190E00E940108AC14BD04B1F7B6
:100ED0004FCF60817181072E000C880B990B0E5F3C
:100EE0001F4F92CFD32CE894D4F82AE030E0853716
:100EF00039F1232D297FD22E8F3601F148F4883520
:100F0000A9F0F701868197812B96E2E10C94AB085A
:100F1000803749F08837A9F7D4FE02C06894D2F828
:100F200020E130E00DC06894D4F8F6CF34FE03C061
:100F3000822F8660D82E20E132E002C028E030E027
:100F4000F801D7FE0FC060817181828193810C5FAF
:100F50001F4FA5010E943108C82ECA183D2CE894E5
:100F600037F867CF6081718190E080E00E5F1F4F9E
:100F7000F0CF42FC02C0839478CF8394839475CFE2
:100F8000842D867809F471CFF6CFB70180E290E026
:100F90000E94010883948214C0F3512C73CF522C09
:100FA0005818821408F46ECFF8CF842D867809F48F
:100FB0007BCF8BE241FE80E247FC8DE2B70190E0FF
:100FC00071CFB70180E390E00E9401089A946CCF42
:100FD0008FEF9FEF99CFFC01059061507040011099
:100FE000D8F7809590958E0F9F1F0895FC01615052
:100FF000704001900110D8F7809590958E0F9F1F3B
:1010000008950F931F93CF93DF93182F092FEB01B0
:101010008B8181FD09C01FEF0FEF812F902FDF9192
:10102000CF911F910F91089582FF14C02E813F81AF
:101030008C819D81281739073CF4E881F981CF0123
:1010400001969983888310838E819F8101969F8367
:101050008E83E3CFE885F985812F0995892BA1F34C
:10106000DACFFA01AA27283051F1203181F1E89432
:101070006F936E7F6E5F7F4F8F4F9F4FAF4FB1E08B
:101080003ED0B4E03CD0670F781F891F9A1FA11D86
:10109000680F791F8A1F911DA11D6A0F711D811D87
:1010A000911DA11D20D009F468943F912AE0269F4C
:1010B00011243019305D3193DEF6CF010895462FAB
:1010C0004770405D4193B3E00FD0C9F7F6CF462F8C
:1010D0004F70405D4A3318F0495D31FD40524193F5
:1010E00002D0A9F7EACFB4E0A695979587957795B2
:1010F0006795BA95C9F700976105710508959B0139
:10110000AC010A2E06945795479537952795BA95C1
:10111000C9F7620F731F841F951FA01D08952F929A
:101120003F924F925F926F927F928F929F92AF9277
:10113000BF92CF92DF92EF92FF920F931F93CF93C4
:10114000DF93CDB7DEB7CA1BDB0B0FB6F894DEBF5B
:101150000FBECDBF09942A88398848885F846E8481
:101160007D848C849B84AA84B984C884DF80EE80CB
:10117000FD800C811B81AA81B981CE0FD11D0FB6D4
:10118000F894DEBF0FBECDBFED010895F894FFCFF8
:101190003200303000000000005541525420454ECE
:1011A0000025642075520067616D6D61001B5B3026
:1011B0003B33316D2047616D6D613A2025642075A8
:1011C00052201B5B306D0D0A0074696D65001B5B5E
:1011D000313B33336D20253032643A253032643A66
:1011E00025303264201B5B306D0D0A007374002CB7
:1011F000007365742074696D65202D3E20253032A2
:10120000643A253032640D0A00736E64006F6E001C
:101210001B5B303B33316D20536F756E64204F463E
:1012200046201B5B306D0D0A006F6666001B5B304D
:101230003B33326D20536F756E64204F4E201B5B25
:0C124000306D0D0A004745543A200000B4
:00000001FF
