:100000000C942A000C942E010C9447000C94470089
:100010000C9447000C9447000C9447000C94470044
:100020000C9447000C9447000C9447000C948501F5
:100030000C9447000C9447000C9447000C94470024
:100040000C9447000C9447000C9447000C9400015A
:100050000C94470011241FBECFE5D4E0DEBFCDBF16
:1000600010E0A0E6B0E0E4EBFDE002C005900D92E8
:10007000A437B107D9F720E0A4E7B0E001C01D9292
:10008000A53AB207E1F70E94B4020C94D8060C948A
:10009000000080E280B9089584EA86BF06B607FEB4
:1000A000FDCF089584E986BF089583B984E886BFAB
:1000B00006B607FEFDCF08956AE00E94AA03292F25
:1000C00030E1839FC0011124822B0895982F9295CF
:1000D0009F708F702AE0929F800D1124089584EC08
:1000E00086BF06B607FEFDCF83B1089584E886BFBC
:1000F00006B607FEFDCF83B10895CF936AE00E9454
:10010000AA03C92F805D0E94790280E38C0FCF91F2
:100110000C947902CF93DF93C62FD22F80E280B95F
:100120000E944C0080ED0E94550080E00E94550026
:1001300080E00E9455008D2F0E945C000E945500B7
:100140008C2F0E945C000E94550084E986BFDF91DD
:10015000CF9108951F93CF93DF93D82F162F80E26E
:1001600080B90E944C0080ED0E94550080E00E9402
:100170005500C4E9C6BF0E944C0081ED0E945500A5
:100180000E946F00809384000E946F008093830020
:100190000E94760080938200C6BF809184000E94F6
:1001A000660080938400809183000E9466008093A3
:1001B0008300809182000E94660080938200612FFC
:1001C0008D2F0E948302809182000E947D008AE32D
:1001D0000E947902809183000E947D008AE30E9440
:1001E000790280918400DF91CF911F910C947D0062
:1001F0008BE083BF89B7826089BF8DE78CBF08958C
:100200001F920F920FB60F9211248F939F93AF936B
:10021000BF9380917C0090917D00A0917E00B09171
:100220007F000196A11DB11D80937C0090937D00FD
:10023000A0937E00B0937F00BF91AF919F918F916B
:100240000F900FBE0F901F90189560917C007091D9
:100250007D0080917E0090917F0008951F920F9203
:100260000FB60F9211242F933F934F935F938F9369
:100270009F93EF93FF9381E080937B00E091750063
:10028000F0E0EA58FF4F2091740081E090E0AC016B
:1002900002C0440F551F2A95E2F78081842B80838A
:1002A000FF91EF919F918F915F914F913F912F918E
:1002B0000F900FBE0F901F901895FC01BC016B5F53
:1002C0007F4F90E080E0419150E030E020E0DA01A3
:1002D000022E02C0B595A7950A94E2F7A0FD0196FB
:1002E0002F5F3F4F2830310591F7E617F70759F791
:1002F000089590BD89B988E98AB9599A86E880BD80
:1003000008955D9BFECF8CB908951F920F920FB692
:100310000F9211248F93EF93FF93CF93DF931F924C
:10032000CDB7DEB719828CB1898389818D3021F0F8
:10033000809180008F31B0F0E0918000F0E0EB57C9
:10034000FF4F10821092800081E0809381000F9017
:10035000DF91CF91FF91EF918F910F900FBE0F9092
:100360001F901895E0918000F0E08981EB57FF4FD6
:100370008083809180008F5F80938000E8CFCF934F
:10038000DF93EC018991811103C0DF91CF91089532
:100390000E948101F7CF85E890E00E94BF01109292
:1003A000810008959C01629FC001639F900D729F20
:1003B000900D11249C0150E040E060E072E18AE77A
:1003C00090E00E94CA03C901019708959C0191B36E
:1003D000906391BB1DBC1CBC82EA8FBD8AE18EBDBF
:1003E00037BD26BD0895BB9A12BE8BE683BF089524
:1003F0009BBD8ABD79BD68BD08952FEFAC01249FD8
:10040000C001259F900D112464E670E00E94B603A0
:10041000CB010895DB9A95E89A95F1F700009BB31C
:100420009F709BBB9BB38295807F892B8BBBDB9896
:1004300085E88A95F1F700000895CF93C82F6111E0
:100440000AC0DA988C2F82958F700E940A028C2F36
:10045000CF910C940A02DA9AF5CF8EEF8ABB1BBAC1
:100460008FE295E70197F1F700C0000083E00E945A
:100470000A028FE39FE10197F1F700C0000083E0DB
:100480000E940A0287EC90E00197F1F700C000009B
:1004900083E00E940A028FEC97E00197F1F700C019
:1004A000000082E00E940A028FEC97E00197F1F7CA
:1004B00000C0000060E088E20E941D028FEC97E01F
:1004C0000197F1F700C0000060E08CE00E941D027F
:1004D0008FEC97E00197F1F700C0000060E086E044
:1004E0000E941D028FEC97E00197F1F700C0000019
:1004F000089561E00E941D028FE19EE40197F1F7EB
:1005000000C0000008956295660F660F607C860F3C
:1005100060E080680C941D02CF93DF93EC01899119
:10052000811103C0DF91CF9108950E947902F7CF26
:100530000F931F93CF93DF938B0128E0829FC0011D
:10054000112460E080640E941D02E801085F1F4FD3
:1005500061E089910E941D02C017D107C9F7DF91A0
:10056000CF911F910F910895CF93DF9300D000D0CA
:100570001F92CDB7DEB778940E94F8000E94490020
:100580000E942D0287E690E00E94790180E690E0CB
:100590000E94BF0182E085BF8BB780648BBF68E09B
:1005A00070E080ED97E00E94D2010E94E60182E3B4
:1005B00090E00E94FD01BC010E94F8010E94F3013D
:1005C00082E390E00E94FD018CBF85E0EEE6F0E062
:1005D0008E010F5F1F4FD80101900D928A95E1F7B0
:1005E000412C512C3201812C912C5401C12CD12C45
:1005F000760188E6282E80E0382E80917C0090914C
:100600007D00A0917E00B0917F0088199909AA0908
:10061000BB09843F9140A105B10570F070E060E036
:1006200084E090E00E94AA0080907C0090907D0081
:10063000A0907E00B0907F0080917B00882351F1D4
:1006400061E080E00E94830287E40E94790261E019
:1006500085E00E94830286E790E00E945D019F93FF
:100660008F933F922F921F930F930E940004C80113
:100670000E948C0261E087E00E9483028BE690E09A
:100680000E948C0210927B000F900F900F900F90A1
:100690000F900F9080917C0090917D00A0917E0042
:1006A000B0917F008C199D09AE09BF09883E934027
:1006B000A105B10578F061E080E00E94830280E24C
:1006C0000E947902C0907C00D0907D00E0907E0076
:1006D000F0907F0080917C0090917D00A0917E0041
:1006E000B0917F0084199509A609B709883E934007
:1006F000A105B10508F481CF40907C0050907D00A9
:1007000060907E0070907F00809174008F5F809376
:100710007400883058F0809175008F5F8093750069
:1007200010927400853010F010927500E091750001
:10073000F0E0EA58FF4F8091740021E030E002C001
:10074000220F331F8A95E2F7C90180959081892392
:10075000808353CF991B79E004C0991F961708F046
:10076000961B881F7A95C9F78095089597FB072EE9
:1007700016F4009407D077FD09D00E94EC0307FC23
:1007800005D03EF4909581959F4F089570956195A1
:100790007F4F0895A1E21A2EAA1BBB1BFD010DC0BD
:1007A000AA1FBB1FEE1FFF1FA217B307E407F50721
:1007B00020F0A21BB30BE40BF50B661F771F881FFD
:1007C000991F1A9469F760957095809590959B0193
:1007D000AC01BD01CF010895AA1BBB1B51E107C0AD
:1007E000AA1FBB1FA617B70710F0A61BB70B881FC1
:1007F000991F5A95A9F780959095BC01CD01089550
:10080000AEE0B0E0E6E0F4E00C94AF060D891E899E
:1008100086E08C831A8309838FEF9FE79E838D8305
:10082000AE01475E5F4F6F89788DCE0101960E94C1
:1008300023042F813885020F131FF80110822E9692
:10084000E4E00C94CB06ABE0B0E0E9E2F4E00C9419
:10085000A1067C013B018A01FC011782168283817B
:1008600081FFC8C1CE0101965C01F7019381F301BC
:1008700093FD859193FF81913F01882309F453C132
:10088000853239F493FD859193FF81913F01853243
:1008900029F4B70190E00E941306E7CF912C212C98
:1008A000312CFFE1F31538F08B3211F190F48032E6
:1008B00009F1833229F137FC3CC020ED280F2A30A2
:1008C00050F536FE20C08AE0989E200D1124922E0D
:1008D00006C08D3291F0803371F7689430F8F301DF
:1008E00093FD859193FF81913F018111DACF21C062
:1008F000689431F8689432F8F2CF689433F8EFCF07
:10090000689434F8ECCFEAE02E9E200D1124222EBC
:10091000689435F8E4CF8E3229F436FC04C168942B
:1009200036F8DDCF8C3619F4689437F8D8CF88368E
:10093000B1F2982F9F7D95549330E0F08336A1F16A
:100940008337C1F1833509F063C02801F2E04F0E0F
:10095000511CF801C080D180692D70E036FC02C0C6
:100960006FEF7FEFC6010E94FD054C01689437F8D8
:1009700082010AC00C5F1F4FFFE3F9838824839430
:10098000912C6501E89437F833FE2DC0522C811468
:10099000910471F5552009F468CFB70180E290E029
:1009A0000E9413065A94F6CFF801808189830E5F66
:1009B0001F4FE4CF2801F2E04F0E511CF801C08018
:1009C000D180692D70E036FC02C06FEF7FEFC60169
:1009D0000E9408064C018201D5CFB70180E290E069
:1009E0000E9413062A942814190409F0B0F7CECFF8
:1009F000F60137FC859137FE81916F01B70190E0D8
:100A00000E94130651105A94F1E08F1A9108BFCF3B
:100A1000843619F0893609F077C0F80137FE6BC0CB
:100A200060817181828193810C5F1F4FF32DFF766E
:100A30003F2E97FF09C090958095709561957F4FE7
:100A40008F4F9F4F689437F82AE030E0A5010E944D
:100A50004306C82ECA188C2C432C36FE0CC0E894D2
:100A600040F8C91440F434FE05C032FC03C0F32D35
:100A7000FE7E4F2E892C44FE95C0FE01EC0DF11D2B
:100A80008081803309F087C0242D297E422E842D59
:100A90008870582E43FC95C040FE8FC09C2C821459
:100AA00018F42C0C922C981844FE91C0B70180E3E6
:100AB00090E00E94130642FE09C088E790E041FEE4
:100AC00002C088E590E0B7010E941306C91408F43B
:100AD0008AC0CA94D12C9FEFC91AD90ACA0CDB1C50
:100AE000F60182916F01B70190E00E941306AC14E9
:100AF000BD04B1F74FCF60817181072E000C880BC8
:100B0000990B0E5F1F4F92CFD32CE894D4F82AE0B4
:100B100030E0853739F1232D297FD22E8F3601F130
:100B200048F48835A9F0F701868197812B96E2E198
:100B30000C94BD06803749F08837A9F7D4FE02C06F
:100B40006894D2F820E130E00DC06894D4F8F6CF74
:100B500034FE03C0822F8660D82E20E132E002C02E
:100B600028E030E0F801D7FE0FC0608171818281FA
:100B700093810C5F1F4FA5010E944306C82ECA181F
:100B80003D2CE89437F867CF6081718190E080E078
:100B90000E5F1F4FF0CF42FC02C0839478CF839446
:100BA000839475CF842D867809F471CFF6CFB70181
:100BB00080E290E00E94130683948214C0F3512CCB
:100BC00073CF522C5818821408F46ECFF8CF842DAE
:100BD000867809F47BCF8BE241FE80E247FC8DE210
:100BE000B70190E071CFB70180E390E00E94130657
:100BF0009A946CCF8FEF9FEF99CFFC0105906150D5
:100C000070400110D8F7809590958E0F9F1F089522
:100C1000FC016150704001900110D8F780959095CB
:100C20008E0F9F1F08950F931F93CF93DF93182F5D
:100C3000092FEB018B8181FD09C01FEF0FEF812F81
:100C4000902FDF91CF911F910F91089582FF14C0D3
:100C50002E813F818C819D81281739073CF4E881E2
:100C6000F981CF0101969983888310838E819F81BA
:100C700001969F838E83E3CFE885F985812F0995BF
:100C8000892BA1F3DACFFA01AA27283051F12031BC
:100C900081F1E8946F936E7F6E5F7F4F8F4F9F4F10
:100CA000AF4FB1E03ED0B4E03CD0670F781F891F52
:100CB0009A1FA11D680F791F8A1F911DA11D6A0F20
:100CC000711D811D911DA11D20D009F468943F91D3
:100CD0002AE0269F11243019305D3193DEF6CF01D2
:100CE0000895462F4770405D4193B3E00FD0C9F798
:100CF000F6CF462F4F70405D4A3318F0495D31FD05
:100D00004052419302D0A9F7EACFB4E0A695979557
:100D1000879577956795BA95C9F70097610571052D
:100D200008959B01AC010A2E069457954795379577
:100D30002795BA95C9F7620F731F841F951FA01DD1
:100D400008952F923F924F925F926F927F928F926F
:100D50009F92AF92BF92CF92DF92EF92FF920F934A
:100D60001F93CF93DF93CDB7DEB7CA1BDB0B0FB654
:100D7000F894DEBF0FBECDBF09942A883988488811
:100D80005F846E847D848C849B84AA84B984C884A7
:100D9000DF80EE80FD800C811B81AA81B981CE0F9E
:100DA000D11D0FB6F894DEBF0FBECDBFED01089583
:040DB000F894FFCFE5
:100DB4005541525420454E00256400755200303090
:040DC4002F6E00008E
:00000001FF
