:100000000C942A000C9450010C9447000C94470067
:100010000C9447000C9447000C9447000C94470044
:100020000C9447000C9447000C9447000C949E03DA
:100030000C9447000C9447000C9447000C94470024
:100040000C9447000C9447000C9447000C946403F4
:100050000C94470011241FBECFE5D4E0DEBFCDBF16
:1000600011E0A0E6B0E0EAEAF1E102C005900D92ED
:10007000AA31B107D9F721E0AAE1B1E001C01D9290
:10008000A136B207E1F70E94E1040C94D3080C9466
:10009000000084B3877884BB85B3886785BB8E9A5C
:1000A000969A089580916000875E809360008091A9
:1000B00060008E3610F0109260008091600090E039
:1000C0000E9438038CBF0895E82FF0E0E65EFE4FF3
:1000D0009081992319F0913001F138C023B330E0B9
:1000E000082E02C0359527950A94E2F720FD2FC00F
:1000F000AFE3BCE91197F1F700C0000023B330E093
:10010000A90102C0559547958A95E2F740FD1FC0A9
:1001100081E0808381E090E0089523B330E0082EF1
:1001200002C0359527950A94E2F720FF10C0AFE38F
:10013000BCE91197F1F700C0000023B330E0A9013A
:1001400002C0559547958A95E2F740FD108280E000
:1001500090E0089586E00E946400892B11F00E94CF
:10016000520085E00E946400892B21F092B380E464
:10017000892782BB08956AE00E942A05292F30E171
:10018000839FC0011124822B0895982F92959F7010
:100190008F702AE0929F800D11240895CF936AE01A
:1001A0000E942A05C92F805D0E94EA0280E38C0F1D
:1001B000CF910C94EA02CF93DF93C82FD62F0E94E1
:1001C000350280ED0E94660280E00E94660280E0B7
:1001D0000E9466028D2F0E94BB000E9466028C2F37
:1001E0000E94BB000E946602DF91CF910C946302D3
:1001F000CF93DF93C82FD62F0E943502892B09F4A5
:1002000044C080ED0E94660280E00E9466020E9467
:1002100063020E94350281ED0E9466020E946D0217
:1002200080933C010E946D0280933B010E94740206
:1002300080933A010E94630280913C010E94C500B4
:1002400080933C0180913B010E94C50080933B015B
:1002500080913A010E94C50080933A016D2F8C2F46
:100260000E94F40280913A010E94CE008AE30E942B
:10027000EA0280913B010E94CE008AE30E94EA02DA
:1002800080913C010E94CE0002C080E090E0DF91AE
:10029000CF91089582E085BF8BB780648BBF0895AE
:1002A0001F920F920FB60F9211248F939F93EF938B
:1002B000FF9381E080932901E0912301F0E0EC5D60
:1002C000FE4F81E090E00090220102C0880F991F4C
:1002D0000A94E2F79081892B8083FF91EF919F919F
:1002E0008F910F900FBE0F901F901895FC01BC01CD
:1002F0006B5F7F4F80E090E0419150E020E030E084
:10030000DA01022E02C0B595A7950A94E2F7A0FD86
:1003100001962F5F3F4F2830310591F76E177F0709
:1003200059F7089580912901882339F160E080E030
:100330000E94F40287E40E94EA0261E086E00E94E3
:10034000F40284E291E00E9476011F928F9388E686
:1003500090E09F938F9381E690E09F938F930E940C
:10036000E90581E690E00E94FC02109229010F90BD
:100370000F900F900F900F900F90809132019091FD
:100380003301A0913401B091350140912A0150917F
:100390002B0160912C0170912D01841B950BA60BF4
:1003A000B70B883E9340A105B10588F060E080E07E
:1003B0000E94F40280E20E94EA020E948903609394
:1003C0002A0170932B0180932C0190932D01809131
:1003D000320190913301A0913401B09135014091E7
:1003E0002E0150912F016091300170913101841BD9
:1003F000950BA60BB70B883E9340A105B10570F194
:100400000E94890360933201709333018093340119
:1004100090933501809122018F5F80932201883073
:1004200058F0809123018F5F809323011092220165
:10043000853010F010922301E0912301F0E0EC5D93
:10044000FE4F81E090E00090220102C0880F991FCA
:100450000A94E2F78095908189238083089584B37C
:100460008C7F84BB80E280B9089580EA96E8A1E0A1
:10047000B0E080933D0190933E01A0933F01B09383
:10048000400184EA86BF06B607FC1AC080913D0190
:1004900090913E01A0913F01B09140010197A109C7
:1004A000B10980933D0190933E01A0933F01B09329
:1004B0004001892B8A2B8B2B31F780E090E0089547
:1004C00081E090E0089584E986BF089583B984E8C7
:1004D00086BF06B607FEFDCF089584EC86BF06B63C
:1004E00007FEFDCF83B1089584E886BF06B607FEF8
:1004F000FDCF83B10895DB9A95E89A95F1F7000056
:100500009BB39F709BBB9BB38295807F892B8BBBDA
:10051000DB9885E88A95F1F700000895CF93C82FFE
:10052000611102C0DA9801C0DA9A8C2F82958F701F
:100530000E947B028C2FCF910C947B028EEF8ABBA2
:100540001BBA8FE295E70197F1F700C0000083E046
:100550000E947B028FE39FE10197F1F700C000004A
:1005600083E00E947B0287EC90E00197F1F700C0E6
:10057000000083E00E947B028FEC97E00197F1F787
:1005800000C0000082E00E947B028FEC97E00197A0
:10059000F1F700C0000060E088E20E948E028FEC5C
:1005A00097E00197F1F700C0000060E08CE00E9446
:1005B0008E028FEC97E00197F1F700C0000060E039
:1005C00086E00E948E028FEC97E00197F1F700C061
:1005D0000000089561E00E948E028FE19EE4019781
:1005E000F1F700C00000089590E4699F800D112488
:1005F00060E080680C948E02CF93DF93EC018991C8
:10060000882319F00E94EA02FACFDF91CF91089572
:100610000F931F93CF93DF938B0128E0829FC0013C
:10062000112460E080640E948E02E801085F1F4F81
:1006300061E089910E948E02C017D107C9F7DF914E
:10064000CF911F910F9108959C01629FC001639FFC
:10065000900D729F900D11249C0140E050E060E0ED
:1006600072E18AE790E00E944A05C9010197089566
:100670002FEFAC01249FC001259F900D112464E64B
:1006800070E00E943605CB0108959C0191B3906300
:1006900091BB1DBC1CBC82EA8FBD8AE18EBD37BDFB
:1006A00026BD0895BB9A12BE8BE683BF08959BBDFD
:1006B0008ABD79BD68BD08958BE083BF89B782602C
:1006C00089BF8DE78CBF08951F920F920FB60F92CE
:1006D00011248F939F93AF93BF9380913201909198
:1006E0003301A0913401B09135010196A11DB11DD6
:1006F0008093320190933301A0933401B09335017C
:10070000BF91AF919F918F910F900FBE0F901F904F
:10071000189560913201709133018091340190916C
:100720003501089590BD89B988E98AB9599A86E852
:1007300080BD08955D9BFECF8CB908951F920F92E6
:100740000FB60F9211248F93EF93FF93CF93DF9304
:100750001F92CDB7DEB719828CB1898389818D3024
:1007600021F0809136018F3160F0E0913601F0E0A8
:10077000EF5BFE4F10821092360181E080933701CB
:100780000CC0E0913601F0E08981EF5BFE4F808381
:10079000809136018F5F809336010F90DF91CF916A
:1007A000FF91EF918F910F900FBE0F901F901895B2
:1007B000CF93DF93EC018991882319F00E949A036B
:1007C000FACFDF91CF91089581E491E00E94D803A0
:1007D000109237010895EF92FF920F931F93CF93DA
:1007E000DF93CDB7DEB7A0970FB6F894DEBF0FBE8C
:1007F000CDBF80913701882309F4D6C045E050E091
:1008000066E770E081E491E00E94AC05892BE1F499
:1008100084E291E00E9476011F928F938CE790E032
:100820009F938F938E010F5F1F4F1F930F930E9413
:10083000E905C8010E94D803109237010F900F906C
:100840000F900F900F900F9044E050E068E970E037
:1008500081E491E00E94AC05892B09F580913C016F
:100860001F928F9380913B011F928F9380913A0149
:100870001F928F938DE990E09F938F938E010F5F6E
:100880001F4F1F930F930E94E905C8010E94D803D0
:10089000109237010FB6F894DEBF0FBECDBF42E015
:1008A00050E06BEB70E081E491E00E94AC05892B95
:1008B000E9F568E171E081E491E00E949E056EEB4C
:1008C00070E080E090E00E949E058C016EEB70E08D
:1008D00080E090E00E949E057C01C8010E94800596
:1008E000182F092FC7010E948005F82EE92E682FC6
:1008F000792F812F902F0E94DB00EF92FF920F93B0
:100900001F9380EC90E09F938F938E010F5F1F4F9A
:100910001F930F930E94E905C8010E94D80310920B
:1009200037010FB6F894DEBF0FBECDBF43E050E0F5
:1009300068ED70E081E491E00E94AC05892B31F50F
:1009400068E171E081E491E00E949E056EEB70E049
:1009500080E090E00E949E058C016CED70E00E94AA
:10096000A305892B21F0969A8FED90E00AC068EFDD
:1009700070E0C8010E94A305892B29F096988CEF9E
:1009800090E00E94D803109237010CC084E191E0FE
:100990000E94D80381E491E00E94D80385ED90E0A5
:1009A0000E94D80310923701A0960FB6F894DEBFCC
:1009B0000FBECDBFDF91CF911F910F91FF90EF90B0
:1009C000089578940E942F020E945C030E944900BF
:1009D0000E949E020E9452030E944A0187E690E014
:1009E0000E9492038EE690E00E94D80368E070E0D7
:1009F00080ED97E00E9424030E94450384E190E08B
:100A00000E943803BC010E945703C12CD12C7601EF
:100A10000E94EB030E94AA00809132019091330161
:100A2000A0913401B09135018C199D09AE09BF091F
:100A3000843F9140A105B10550F060E070E084E092
:100A400090E00E94F8000E9489036B017C010E94E3
:100A50009201DECF991B79E004C0991F961708F028
:100A6000961B881F7A95C9F78095089597FB072EE6
:100A700016F4009407D077FD09D00E946C0507FC9E
:100A800005D03EF4909581959F4F0895709561959E
:100A90007F4F0895A1E21A2EAA1BBB1BFD010DC0BA
:100AA000AA1FBB1FEE1FFF1FA217B307E407F5071E
:100AB00020F0A21BB30BE40BF50B661F771F881FFA
:100AC000991F1A9469F760957095809590959B0190
:100AD000AC01BD01CF010895AA1BBB1B51E107C0AA
:100AE000AA1FBB1FA617B70710F0A61BB70B881FBE
:100AF000991F5A95A9F780959095BC01CD0108954D
:100B0000FC0188279927E89421912032E9F32930C4
:100B100010F02E30C8F32B3241F02D3239F46894A6
:100B200004C00E94E105820F911D219120532A30BB
:100B3000C0F31EF4909581959F4F089548E351E0CE
:100B40000E94BA050895FB01DC018D910190801986
:100B50000110D9F3990B0895FB01DC01415050407D
:100B600030F08D910190801919F40020B9F7881B9D
:100B7000990B0895FA01A191B081009719F410978B
:100B8000E1F0CD01DC01CD010D90002011F4C00198
:100B900013C0FB012191222319F02015D9F7F3CFBF
:100BA000FB012191201519F41E92119606C02223F3
:100BB000C1F70D900020A1F7D001FA01A193B083F5
:100BC00008957AE0979F902D879F802D910D112495
:100BD0000895AEE0B0E0EFEEF5E00C94AA080D89C0
:100BE0001E8986E08C831A8309838FEF9FE79E839B
:100BF0008D83AE01475E5F4F6F89788DCE01019680
:100C00000E940B06EF81F885E00FF11F10822E96EF
:100C1000E4E00C94C608ABE0B0E0E1E1F6E00C944F
:100C20009C086C017B018A01FC011782168283817A
:100C300081FFCCC1CE0101963C01F6019381F70101
:100C400093FD859193FF81917F01882309F4BAC1B7
:100C5000853239F493FD859193FF81917F0185322F
:100C600029F4B60190E00E940208E7CF912C212CD4
:100C7000312CFFE1F315D8F08B3279F038F4803263
:100C800079F08332A1F4232D20611DC08D3261F0F3
:100C9000803369F4232D216016C0832D8260382EA5
:100CA000E32DE4603E2E2AC0F32DF8601DC037FC12
:100CB0002DC020ED280F2A3040F08E32B9F436FCDA
:100CC00081C1232D2064322E19C036FE06C08AE071
:100CD000989E200D1124922E11C0EAE02E9E200D28
:100CE0001124222EF32DF0623F2E08C08C3621F401
:100CF000832D8068382E02C0883641F4F70193FDB9
:100D0000859193FF81917F018111B3CF982F9F7DB2
:100D10009554933028F40C5F1F4F9FE399830DC0C7
:100D2000833631F0833771F0833509F059C021C023
:100D3000F801808189830E5F1F4F88248394912C52
:100D4000530113C02801F2E04F0E511CF801A0809E
:100D5000B18036FE03C0692D70E002C06FEF7FEFF7
:100D6000C5010E94F7074C018201F32DFF773F2E4A
:100D700016C0280122E0420E511CF801A080B1806B
:100D800036FE03C0692D70E002C06FEF7FEFC50132
:100D90000E94EC074C01F32DF0683F2E820133FCDA
:100DA0001BC0822D90E088169906B0F4B60180E24F
:100DB00090E00E9402082A94F4CFF50137FC859157
:100DC00037FE81915F01B60190E00E940208211078
:100DD0002A9421E0821A91088114910471F7E8C0E5
:100DE000843611F0893641F5F80137FE07C060817D
:100DF0007181828193810C5F1F4F08C06081718176
:100E0000072E000C880B990B0E5F1F4FF32DFF76FA
:100E10003F2E97FF09C090958095709561957F4F03
:100E20008F4F9F4FF0683F2E2AE030E0A3010E94D1
:100E30003E08882E861845C0853731F4232D2F7E35
:100E4000B22E2AE030E025C0932D997FB92E8F363F
:100E5000C1F018F4883579F0B5C0803719F08837BB
:100E600021F0B0C0E92FE061BE2EB4FE0DC0FB2D15
:100E7000F460BF2E09C034FE0AC0292F2660B22EAE
:100E800006C028E030E005C020E130E002C020E1EB
:100E900032E0F801B7FE07C06081718182819381E1
:100EA0000C5F1F4F06C06081718180E090E00E5F93
:100EB0001F4FA3010E943E08882E8618FB2DFF7746
:100EC0003F2E36FE0DC0232D2E7FA22E891458F4FE
:100ED00034FE0BC032FC09C0832D8E7EA82E05C0C7
:100EE000B82CA32C03C0B82C01C0B92CA4FE0FC091
:100EF000FE01E80DF11D8081803321F49A2D997E49
:100F0000A92E09C0A2FE06C0B394B39404C08A2DD2
:100F1000867809F0B394A3FC11C0A0FE06C0B214F9
:100F200088F4280C922C9B180EC0B21460F4B60101
:100F300080E290E00E940208B394F7CFB21418F454
:100F40002B1802C0982C212CA4FE10C0B60180E3FF
:100F500090E00E940208A2FE17C0A1FC03C088E72F
:100F600090E002C088E590E0B6010CC08A2D86783A
:100F700059F0A1FE02C08BE201C080E2A7FC8DE225
:100F8000B60190E00E940208891438F4B60180E3AB
:100F900090E00E9402089A94F7CF8A94F301E80D3A
:100FA000F11D8081B60190E00E9402088110F5CF0A
:100FB000222009F442CEB60180E290E00E940208AD
:100FC0002A94F6CFF6018681978102C08FEF9FEFBA
:100FD0002B96E2E10C94B808FC010590615070403A
:100FE0000110D8F7809590958E0F9F1F0895FC01F2
:100FF0006150704001900110D8F7809590958E0F48
:101000009F1F08950F931F93CF93DF93FB012381BD
:1010100021FD03C08FEF9FEF2CC022FF16C0468139
:101020005781248135814217530744F4A081B1814F
:101030009D012F5F3F4F318320838C932681378121
:101040002F5F3F4F3783268314C08B01EC01FB01D8
:101050000084F185E02D0995892BE1F6D8011696DB
:101060008D919C911797019617969C938E93169746
:10107000CE01DF91CF911F910F910895FA01AA2718
:10108000283051F1203181F1E8946F936E7F6E5FCB
:101090007F4F8F4F9F4FAF4FB1E03ED0B4E03CD079
:1010A000670F781F891F9A1FA11D680F791F8A1F5C
:1010B000911DA11D6A0F711D811D911DA11D20D0C3
:1010C00009F468943F912AE0269F11243019305D7D
:1010D0003193DEF6CF010895462F4770405D41936E
:1010E000B3E00FD0C9F7F6CF462F4F70405D4A33BB
:1010F00018F0495D31FD4052419302D0A9F7EACF83
:10110000B4E0A6959795879577956795BA95C9F7B1
:1011100000976105710508959B01AC010A2E0694A4
:101120005795479537952795BA95C9F7620F731F5D
:10113000841F951FA01D08952F923F924F925F929A
:101140006F927F928F929F92AF92BF92CF92DF92D7
:10115000EF92FF920F931F93CF93DF93CDB7DEB73C
:10116000CA1BDB0B0FB6F894DEBF0FBECDBF0994D0
:101170002A88398848885F846E847D848C849B8427
:10118000AA84B984C884DF80EE80FD800C811B8135
:10119000AA81B981CE0FD11D0FB6F894DEBF0FBE64
:0A11A000CDBFED010895F894FFCFD4
:1011AA00323030000000000025642075520055419D
:1011BA00525420454E0067616D6D61001B5B303BE8
:1011CA0033316D2047616D6D613A20256420755277
:1011DA00201B5B306D0D0A0074696D65001B5B3165
:1011EA003B33336D20253032643A253032643A2558
:1011FA00303264201B5B306D0D0A007374002C00C2
:10120A007365742074696D65202D3E202530326423
:10121A003A253032640D0A00736E64006F6E001B4B
:10122A005B303B33316D20536F756E64204F4646F9
:10123A00201B5B306D0D0A006F6666001B5B303B3E
:10124A0033326D20536F756E64204F4E201B5B3016
:0A125A006D0D0A004745543A2000CC
:00000001FF
