:100000000C942A000C942E010C9447000C94470089
:100010000C9447000C9447000C9447000C94470044
:100020000C9447000C9447000C9447000C948501F5
:100030000C9447000C9447000C9447000C94470024
:100040000C9447000C9447000C9447000C9451000A
:100050000C94470011241FBECFE5D4E0DEBFCDBF16
:1000600010E0A0E6B0E0ECE9FDE002C005900D92E2
:10007000A437B107D9F720E0A4E7B0E001C01D9292
:10008000A53AB207E1F70E94B4020C94CC060C9496
:1000900000008BE083BF89B7826089BF8DE78CBF8A
:1000A00008951F920F920FB60F9211248F939F9372
:1000B000AF93BF938091740090917500A0917600EA
:1000C000B09177000196A11DB11D809374009093AB
:1000D0007500A0937600B0937700BF91AF919F9188
:1000E0008F910F900FBE0F901F9018956091740024
:1000F000709175008091760090917700089580E26C
:1001000080B9089584EA86BF06B607FEFDCF08953C
:1001100084E986BF089583B984E886BF06B607FEE2
:10012000FDCF089584EC86BF06B607FEFDCF83B1F0
:10013000089584E886BF06B607FEFDCF83B1089513
:100140006AE00E949E03292F30E1839FC0011124A1
:10015000822B0895982F92959F708F702AE0929F1E
:10016000800D11240895CF93DF93C62FD22F80E204
:1001700080B90E94820080ED0E948B0080E00E9486
:100180008B0080E00E948B008D2F0E94A0000E94B7
:100190008B008C2F0E94A0000E948B0084E986BFF8
:1001A000DF91CF910895CF936AE00E949E03C92FFB
:1001B000805D0E94790280E38C0FCF910C947902CC
:1001C0001F93CF93DF93D82F162F80E280B90E9420
:1001D000820080ED0E948B0080E00E948B00C4E9C9
:1001E000C6BF0E94820081ED0E948B000E94920097
:1001F000809384000E949200809383000E94990063
:1002000080938200C6BF809184000E94AA008093E0
:100210008400809183000E94AA00809383008091D3
:1002200082000E94AA0080938200612F8D2F0E947D
:100230008302809182000E94D3008AE30E947902A7
:10024000809183000E94D3008AE30E94790280910A
:100250008400DF91CF911F910C94D3001F920F92D5
:100260000FB60F9211242F933F934F935F938F9369
:100270009F93EF93FF9381E080937F00E09179005B
:10028000F0E0E658FF4F2091780081E090E0AC016B
:1002900002C0440F551F2A95E2F78081842B80838A
:1002A000FF91EF919F918F915F914F913F912F918E
:1002B0000F900FBE0F901F901895FC01BC016B5F53
:1002C0007F4F90E080E0419150E030E020E0DA01A3
:1002D000022E02C0B595A7950A94E2F7A0FD0196FB
:1002E0002F5F3F4F2830310591F7E617F70759F791
:1002F000089590BD89B988E98AB9599A86E880BD80
:1003000008955D9BFECF8CB908951F920F920FB692
:100310000F9211248F93EF93FF93CF93DF931F924C
:10032000CDB7DEB719828CB1898389818D3021F0F8
:10033000809180008F31B0F0E0918000F0E0EB57C9
:10034000FF4F10821092800081E0809381000F9017
:10035000DF91CF91FF91EF918F910F900FBE0F9092
:100360001F901895E0918000F0E08981EB57FF4FD6
:100370008083809180008F5F80938000E8CFCF934F
:10038000DF93EC018991811103C0DF91CF91089532
:100390000E948101F7CF85E890E00E94BF01109292
:1003A000810008959C01629FC001639F900D729F20
:1003B000900D11249C0150E040E060E072E18AE77A
:1003C00090E00E94BE03C901019708959C0191B37A
:1003D000906391BB1DBC1CBC82EA8FBD8AE18EBDBF
:1003E00037BD26BD0895BB9A12BE8BE683BF089524
:1003F0009BBD8ABD79BD68BD08952FEFAC01249FD8
:10040000C001259F900D112464E670E00E94AA03AC
:10041000CB010895DB9A95E89A95F1F700009BB31C
:100420009F709BBB9BB38295807F892B8BBBDB9896
:1004300085E88A95F1F700000895CF93C82F6111E0
:100440000AC0DA988C2F82958F700E940A028C2F36
:10045000CF910C940A02DA9AF5CF8EEF8ABB1BBAC1
:100460008FE295E70197F1F700C0000083E00E945A
:100470000A028FE39FE10197F1F700C0000083E0DB
:100480000E940A0287EC90E00197F1F700C000009B
:1004900083E00E940A028FEC97E00197F1F700C019
:1004A000000082E00E940A028FEC97E00197F1F7CA
:1004B00000C0000060E088E20E941D028FEC97E01F
:1004C0000197F1F700C0000060E08CE00E941D027F
:1004D0008FEC97E00197F1F700C0000060E086E044
:1004E0000E941D028FEC97E00197F1F700C0000019
:1004F000089561E00E941D028FE19EE40197F1F7EB
:1005000000C0000008956295660F660F607C860F3C
:1005100060E080680C941D02CF93DF93EC01899119
:10052000811103C0DF91CF9108950E947902F7CF26
:100530000F931F93CF93DF938B0128E0829FC0011D
:10054000112460E080640E941D02E801085F1F4FD3
:1005500061E089910E941D02C017D107C9F7DF91A0
:10056000CF911F910F910895CF93DF9300D000D0CA
:100570001F92CDB7DEB778940E9449000E947F0099
:100580000E942D0287E690E00E94790180E690E0CB
:100590000E94BF0182E085BF8BB780648BBF68E09B
:1005A00070E080ED97E00E94D2010E94E60182E3B4
:1005B00090E00E94FD01BC010E94F8010E94F3013D
:1005C00082E390E00E94FD018CBF85E0EEE6F0E062
:1005D0008E010F5F1F4FD80101900D928A95E1F7B0
:1005E000412C512C3201812C912C5401C12CD12C45
:1005F000760188E6282E80E0382E80917400909154
:100600007500A0917600B091770088199909AA0920
:10061000BB09843F9140A105B10550F070E060E056
:1006200084E090E00E94E0000E9476004B015C01B3
:1006300080917F00882351F160E080E00E94830276
:1006400087E40E94790261E085E00E9483028AE7E4
:1006500090E00E945D019F938F933F922F921F9392
:100660000F930E94F403C8010E948C0261E087E0AE
:100670000E9483028BE690E00E948C0210927F0021
:100680000F900F900F900F900F900F90809174002B
:1006900090917500A0917600B09177008C199D091A
:1006A000AE09BF09883E9340A105B10558F060E04E
:1006B00080E00E94830280E20E9479020E9476001C
:1006C0006B017C018091740090917500A09176007F
:1006D000B091770084199509A609B709883E93401F
:1006E000A105B10508F489CF0E9476002B013C01D9
:1006F000809178008F5F80937800883058F08091E7
:1007000079008F5F8093790010927800853010F027
:1007100010927900E0917900F0E0E658FF4F809167
:10072000780021E030E002C0220F331F8A95E2F703
:10073000C90180959081892380835FCF991B79E0DF
:1007400004C0991F961708F0961B881F7A95C9F761
:100750008095089597FB072E16F4009407D077FD37
:1007600009D00E94E00307FC05D03EF490958195E6
:100770009F4F0895709561957F4F0895A1E21A2EBD
:10078000AA1BBB1BFD010DC0AA1FBB1FEE1FFF1F35
:10079000A217B307E407F50720F0A21BB30BE40B85
:1007A000F50B661F771F881F991F1A9469F76095CC
:1007B0007095809590959B01AC01BD01CF01089586
:1007C000AA1BBB1B51E107C0AA1FBB1FA617B70777
:1007D00010F0A61BB70B881F991F5A95A9F7809593
:1007E0009095BC01CD010895AEE0B0E0EAEFF3E0F2
:1007F0000C94A3060D891E8986E08C831A830983D5
:100800008FEF9FE79E838D83AE01475E5F4F6F89B9
:10081000788DCE0101960E9417042F813885020F32
:10082000131FF80110822E96E4E00C94BF06ABE093
:10083000B0E0EDE1F4E00C9495067C013B018A0107
:10084000FC0117821682838181FFC8C1CE01019607
:100850005C01F7019381F30193FD859193FF8191F1
:100860003F01882309F453C1853239F493FD859102
:1008700093FF81913F01853229F4B70190E00E94F6
:100880000706E7CF912C212C312CFFE1F31538F02E
:100890008B3211F190F4803209F1833229F137FC67
:1008A0003CC020ED280F2A3050F536FE20C08AE0EB
:1008B000989E200D1124922E06C08D3291F0803327
:1008C00071F7689430F8F30193FD859193FF81915E
:1008D0003F018111DACF21C0689431F8689432F871
:1008E000F2CF689433F8EFCF689434F8ECCFEAE0B5
:1008F0002E9E200D1124222E689435F8E4CF8E32DE
:1009000029F436FC04C1689436F8DDCF8C3619F42E
:10091000689437F8D8CF8836B1F2982F9F7D9554D8
:100920009330E0F08336A1F18337C1F1833509F0CC
:1009300063C02801F2E04F0E511CF801C080D18045
:10094000692D70E036FC02C06FEF7FEFC6010E9498
:10095000F1054C01689437F882010AC00C5F1F4F03
:10096000FFE3F98388248394912C6501E89437F898
:1009700033FE2DC0522C8114910471F5552009F4D9
:1009800068CFB70180E290E00E9407065A94F6CF44
:10099000F801808189830E5F1F4FE4CF2801F2E0C8
:1009A0004F0E511CF801C080D180692D70E036FCDB
:1009B00002C06FEF7FEFC6010E94FC054C0182016F
:1009C000D5CFB70180E290E00E9407062A94281450
:1009D000190409F0B0F7CECFF60137FC859137FE48
:1009E00081916F01B70190E00E94070651105A945F
:1009F000F1E08F1A9108BFCF843619F0893609F0DB
:100A000077C0F80137FE6BC060817181828193816C
:100A10000C5F1F4FF32DFF763F2E97FF09C0909577
:100A20008095709561957F4F8F4F9F4F689437F8F1
:100A30002AE030E0A5010E943706C82ECA188C2C87
:100A4000432C36FE0CC0E89440F8C91440F434FE40
:100A500005C032FC03C0F32DFE7E4F2E892C44FED0
:100A600095C0FE01EC0DF11D8081803309F087C037
:100A7000242D297E422E842D8870582E43FC95C04B
:100A800040FE8FC09C2C821418F42C0C922C9818C9
:100A900044FE91C0B70180E390E00E94070642FE49
:100AA00009C088E790E041FE02C088E590E0B70108
:100AB0000E940706C91408F48AC0CA94D12C9FEF7B
:100AC000C91AD90ACA0CDB1CF60182916F01B70161
:100AD00090E00E940706AC14BD04B1F74FCF6081CF
:100AE0007181072E000C880B990B0E5F1F4F92CF60
:100AF000D32CE894D4F82AE030E0853739F1232D5F
:100B0000297FD22E8F3601F148F48835A9F0F701FC
:100B1000868197812B96E2E10C94B106803749F0EB
:100B20008837A9F7D4FE02C06894D2F820E130E0FB
:100B30000DC06894D4F8F6CF34FE03C0822F8660CF
:100B4000D82E20E132E002C028E030E0F801D7FEE4
:100B50000FC060817181828193810C5F1F4FA5015D
:100B60000E943706C82ECA183D2CE89437F867CF84
:100B70006081718190E080E00E5F1F4FF0CF42FCFA
:100B800002C0839478CF8394839475CF842D867824
:100B900009F471CFF6CFB70180E290E00E9407061A
:100BA00083948214C0F3512C73CF522C58188214A2
:100BB00008F46ECFF8CF842D867809F47BCF8BE2D2
:100BC00041FE80E247FC8DE2B70190E071CFB701B2
:100BD00080E390E00E9407069A946CCF8FEF9FEF1E
:100BE00099CFFC010590615070400110D8F78095B5
:100BF00090958E0F9F1F0895FC01615070400190E9
:100C00000110D8F7809590958E0F9F1F08950F9330
:100C10001F93CF93DF93182F092FEB018B8181FD59
:100C200009C01FEF0FEF812F902FDF91CF911F9100
:100C30000F91089582FF14C02E813F818C819D8188
:100C4000281739073CF4E881F981CF01019699838F
:100C5000888310838E819F8101969F838E83E3CF4B
:100C6000E885F985812F0995892BA1F3DACFFA015F
:100C7000AA27283051F1203181F1E8946F936E7FDB
:100C80006E5F7F4F8F4F9F4FAF4FB1E03ED0B4E0CC
:100C90003CD0670F781F891F9A1FA11D680F791F0D
:100CA0008A1F911DA11D6A0F711D811D911DA11D1E
:100CB00020D009F468943F912AE0269F112430192E
:100CC000305D3193DEF6CF010895462F4770405DC9
:100CD0004193B3E00FD0C9F7F6CF462F4F70405D78
:100CE0004A3318F0495D31FD4052419302D0A9F7D3
:100CF000EACFB4E0A6959795879577956795BA95CD
:100D0000C9F700976105710508959B01AC010A2E92
:100D100006945795479537952795BA95C9F7620F69
:100D2000731F841F951FA01D08952F923F924F920D
:100D30005F926F927F928F929F92AF92BF92CF926B
:100D4000DF92EF92FF920F931F93CF93DF93CDB774
:100D5000DEB7CA1BDB0B0FB6F894DEBF0FBECDBFEC
:100D600009942A88398848885F846E847D848C84BD
:100D70009B84AA84B984C884DF80EE80FD800C81C6
:100D80001B81AA81B981CE0FD11D0FB6F894DEBFA9
:0C0D90000FBECDBFED010895F894FFCF19
:100D9C005541525420454E002564007552003030A8
:040DAC002F6E0000A6
:00000001FF
