:100000000C942A000C9403040C9447000C944700B1
:100010000C9447000C9447000C9447000C94470044
:100020000C9447000C9447000C9447000C94D801A2
:100030000C9447000C9447000C9447000C94470024
:100040000C9447000C9447000C9447000C949E01BC
:100050000C94470011241FBECFE5D4E0DEBFCDBF16
:1000600011E0A0E6B0E0EEEDF1E102C005900D92E6
:10007000AA31B107D9F721E0AAE1B1E001C01D9290
:10008000A136B207E1F70E940D050C94ED080C941F
:10009000000084B3877884BB85B3886785BB8E9A5C
:1000A000969A089580916000875E809360008091A9
:1000B00060008E3610F0109260008091600090E039
:1000C0000E942F038CBF0895E82FF0E0E65EFE4FFC
:1000D0009081992321F0913019F110820AC023B345
:1000E00030E0082E02C0359527950A94E2F720FFEC
:1000F00003C090E080E00895AFE3BCE91197F1F709
:1001000000C0000023B330E002C0359527958A95E2
:10011000E2F720FDEECF81E0808381E090E008955A
:1001200023B330E0082E02C0359527950A94E2F7F4
:1001300020FFDFCFAFE3BCE91197F1F700C000006B
:1001400023B330E002C0359527958A95E2F720FF6A
:10015000D0CFC3CF86E00E946400892B11F00E94AB
:10016000520085E00E946400892B21F082B390E464
:10017000892782BB089584B38C7F84BB80E280B9D9
:10018000089580EA96E8A1E0B0E080933A01909368
:100190003B01A0933C01B0933D0184EA86BF06B6C3
:1001A00007FE03C081E090E0089580913A019091AC
:1001B0003B01A0913C01B0913D010197A109B1091A
:1001C00080933A0190933B01A0933C01B0933D0191
:1001D000892B8A2B8B2B19F790E080E0089584E916
:1001E00086BF089583B984E886BF06B607FEFDCFB3
:1001F000089584EC86BF06B607FEFDCF83B108954F
:1002000084E886BF06B607FEFDCF83B108956AE095
:100210000E945605292F30E1839FC0011124822BB3
:100220000895982F92959F708F702AE0929F800D6D
:1002300011240895CF936AE00E945605C92F805D6E
:100240000E94C20380E38C0FCF910C94C203CF9322
:10025000DF93C82FD62F0E94C10080ED0E94F200CC
:1002600080E00E94F20080E00E94F2008D2F0E9448
:1002700007010E94F2008C2F0E9407010E94F200E9
:10028000DF91CF910C94EF00CF93DF93C82FD62F3F
:100290000E94C100892B09F446C080ED0E94F20043
:1002A00080E00E94F2000E94EF000E94C10081EDF8
:1002B0000E94F2000E94F900809340010E94F90020
:1002C00080933F010E94000180933E010E94EF0055
:1002D000809140010E9411018093400180913F0173
:1002E0000E94110180933F0180913E010E94110103
:1002F00080933E016D2F8C2F0E94CC0380913E0194
:100300000E941A018AE30E94C20380913F010E9469
:100310001A018AE30E94C203809140010E941A01DF
:10032000DF91CF91089590E080E0FACF8BE083BF1A
:1003300089B7826089BF8DE78CBF08951F920F92A5
:100340000FB60F9211248F939F93AF93BF93809119
:10035000220190912301A0912401B09125010196E1
:10036000A11DB11D8093220190932301A09324012C
:10037000B0932501BF91AF919F918F910F900FBEC8
:100380000F901F9018956091220170912301809128
:10039000240190912501089590BD89B988E98AB911
:1003A000599A86E880BD08955D9BFECF8CB908956B
:1003B0001F920F920FB60F9211248F93EF93FF931A
:1003C000CF93DF931F92CDB7DEB719828CB18983AB
:1003D00089818D3021F0809126018F31B0F0E0913C
:1003E0002601F0E0EF5BFE4F10821092260181E0C3
:1003F000809327010F90DF91CF91FF91EF918F9123
:100400000F900FBE0F901F901895E0912601F0E01D
:100410008981EF5BFE4F8083809126018F5F8093FF
:100420002601E8CFCF93DF93EC018991811103C0BE
:10043000DF91CF9108950E94D401F7CF81E491E03C
:100440000E941202109227010895EF92FF920F93DB
:100450001F93CF93DF93CDB7DEB7A0970FB6F89475
:10046000DEBF0FBECDBF80912701882309F4BEC037
:1004700045E050E060E770E081E491E00E94D8053B
:10048000892BE1F48AE291E00E9432041F928F935B
:1004900086E790E09F938F938E010F5F1F4F1F930E
:1004A0000F930E941506C8010E94120210922701A4
:1004B0000F900F900F900F900F900F9044E050E02E
:1004C00062E970E081E491E00E94D805892B09F58A
:1004D000809140011F928F9380913F011F928F93D3
:1004E00080913E011F928F9387E990E09F938F93B5
:1004F0008E010F5F1F4F1F930F930E941506C801B7
:100500000E941202109227010FB6F894DEBF0FBEB0
:10051000CDBF42E050E065EB70E081E491E00E94E5
:10052000D805892BE9F562E171E081E491E00E9450
:10053000CA0568EB70E090E080E00E94CA058C017B
:1005400068EB70E090E080E00E94CA057C01C80181
:100550000E94AC05182F092FC7010E94AC05F82E88
:10056000E92E682F792F812F902F0E942701EF927B
:10057000FF920F931F938AEB90E09F938F938E01CE
:100580000F5F1F4F1F930F930E941506C8010E9413
:100590001202109227010FB6F894DEBF0FBECDBF36
:1005A00043E050E062ED70E081E491E00E94D80504
:1005B000892BA1F562E171E081E491E00E94CA0516
:1005C00068EB70E090E080E00E94CA058C0166ED67
:1005D00070E00E94CF05892BB1F0969A89ED90E0EA
:1005E0000E9412021092270110922701A0960FB6C6
:1005F000F894DEBF0FBECDBFDF91CF911F910F9159
:10060000FF90EF90089562EF70E0C8010E94CF055F
:10061000892B41F3969886EF90E0E2CF8EE091E04F
:100620000E94120281E491E00E9412028FEC90E09D
:100630000E941202D9CF9C01629FC001639F900D5E
:10064000729F900D11249C0150E040E060E072E147
:100650008AE790E00E947605C901019708952FEF7F
:10066000AC01249FC001259F900D112464E670E029
:100670000E946205CB0108959C0191B3906391BBE8
:100680001DBC1CBC82EA8FBD8AE18EBD37BD26BD74
:100690000895BB9A12BE8BE683BF08959BBD8ABDA9
:1006A00079BD68BD0895DB9A95E89A95F1F7000049
:1006B0009BB39F709BBB9BB38295807F892B8BBB29
:1006C000DB9885E88A95F1F700000895CF93C82F4D
:1006D00061110AC0DA988C2F82958F700E945303A3
:1006E0008C2FCF910C945303DA9AF5CF8EEF8ABBFF
:1006F0001BBA8FE295E70197F1F700C0000083E095
:100700000E9453038FE39FE10197F1F700C00000BF
:1007100083E00E94530387EC90E00197F1F700C05B
:10072000000083E00E9453038FEC97E00197F1F7FC
:1007300000C0000082E00E9453038FEC97E0019715
:10074000F1F700C0000060E088E20E9466038FECD1
:1007500097E00197F1F700C0000060E08CE00E9494
:1007600066038FEC97E00197F1F700C0000060E0AE
:1007700086E00E9466038FEC97E00197F1F700C0D6
:100780000000089561E00E9466038FE19EE40197F6
:10079000F1F700C0000008956295660F660F607C57
:1007A000860F60E080680C946603CF93DF93EC01C2
:1007B0008991811103C0DF91CF9108950E94C203F6
:1007C000F7CF0F931F93CF93DF938B0128E0829F86
:1007D000C001112460E080640E946603E801085FA4
:1007E0001F4F61E089910E946603C017D107C9F7C6
:1007F000DF91CF911F910F91089582E085BF8BB754
:1008000080648BBF08951F920F920FB60F92112430
:100810002F933F934F935F938F939F93EF93FF9308
:1008200081E080932F01E0912901F0E0E65DFE4F29
:100830002091280181E090E0AC0102C0440F551FD7
:100840002A95E2F78081842B8083FF91EF919F911D
:100850008F915F914F913F912F910F900FBE0F900D
:100860001F901895FC01BC016B5F7F4F90E080E00A
:10087000419150E030E020E0DA01022E02C0B5954F
:10088000A7950A94E2F7A0FD01962F5F3F4F28300D
:10089000310591F7E617F70759F708950F931F935E
:1008A000CF93DF9300D000D000D01F92CDB7DEB73A
:1008B00080912F018823B1F160E080E00E94CC0399
:1008C00087E40E94C20361E086E00E94CC0383E0DB
:1008D000E1E6F0E08E010F5F1F4FD80101900D920D
:1008E0008A95E1F7FE01349684E0DF011D928A9536
:1008F000E9F78AE291E00E9432041F928F9384E12B
:1009000091E09F938F931F930F930E941506C80148
:100910000E94D50310922F010F900F900F900F900F
:100920000F900F908091220190912301A0912401BA
:10093000B091250140913001509131016091320117
:1009400070913301841B950BA60BB70B883E934027
:10095000A105B10588F060E080E00E94CC0380E250
:100960000E94C2030E94C301609330017093310161
:100970008093320190933301809122019091230161
:10098000A0912401B091250140913401509135018D
:100990006091360170913701841B950BA60BB70B44
:1009A000883E9340A105B10568F10E94C3016093A0
:1009B00038017093390180933A0190933B01809103
:1009C00028018F5F80932801883058F08091290199
:1009D0008F5F8093290110922801853010F01092CA
:1009E0002901E0912901F0E0E65DFE4F2091280108
:1009F00081E090E001C0880F2A95EAF78095908108
:100A00008923808327960FB6F894DEBF0FBECDBF33
:100A1000DF91CF911F910F91089578940E94BB00B0
:100A20000E9496010E9449000E9476030E94490399
:100A30000E94FD0387E690E00E94CC0188E690E0EA
:100A40000E94120268E070E080ED97E00E941B03B4
:100A50000E943C0384E190E00E942F03BC010E94AD
:100A60004E03C12CD12C76010E9425020E94AA00BF
:100A70008091220190912301A0912401B091250140
:100A80008C199D09AE09BF09843F9140A105B105AC
:100A900050F070E060E084E090E00E9444010E9429
:100AA000C3016B017C010E944E04DECF991B79E0EB
:100AB00004C0991F961708F0961B881F7A95C9F7EE
:100AC0008095089597FB072E16F4009407D077FDC4
:100AD00009D00E94980507FC05D03EF490958195B9
:100AE0009F4F0895709561957F4F0895A1E21A2E4A
:100AF000AA1BBB1BFD010DC0AA1FBB1FEE1FFF1FC2
:100B0000A217B307E407F50720F0A21BB30BE40B11
:100B1000F50B661F771F881F991F1A9469F7609558
:100B20007095809590959B01AC01BD01CF01089512
:100B3000AA1BBB1B51E107C0AA1FBB1FA617B70703
:100B400010F0A61BB70B881F991F5A95A9F780951F
:100B50009095BC01CD010895FC0188279927E89460
:100B600021912032E9F3293010F02E30C8F32B32D6
:100B700041F02D3239F4689404C00E940D06820FB2
:100B8000911D219120532A30C0F31EF49095819538
:100B90009F4F089548E351E00E94E6050895FB0148
:100BA000DC018D91019080190110D9F3990B089502
:100BB000FB01DC014150504030F08D9101908019D3
:100BC00019F40020B9F7881B990B0895FA01A19137
:100BD000B081009719F41097E1F0CD01DC01CD014F
:100BE0000D90002011F4C00113C0FB0121912223BC
:100BF00019F02015D9F7F3CFFB012191201519F435
:100C00001E92119606C02223C1F70D900020A1F775
:100C1000D001FA01A193B08308957AE0979F902DB7
:100C2000879F802D910D11240895AEE0B0E0EBE197
:100C3000F6E00C94C4080D891E8986E08C831A8323
:100C400009838FEF9FE79E838D83AE01475E5F4FE1
:100C50006F89788DCE0101960E9438062F813885E4
:100C6000020F131FF80110822E96E4E00C94E008A6
:100C7000ABE0B0E0EEE3F6E00C94B6087C013B019B
:100C80008A01FC0117821682838181FFC8C1CE01CF
:100C900001965C01F7019381F30193FD859193FF28
:100CA00081913F01882309F453C1853239F493FDC2
:100CB000859193FF81913F01853229F4B70190E03E
:100CC0000E942808E7CF912C212C312CFFE1F3154D
:100CD00038F08B3211F190F4803209F1833229F12E
:100CE00037FC3CC020ED280F2A3050F536FE20C0DE
:100CF0008AE0989E200D1124922E06C08D3291F02C
:100D0000803371F7689430F8F30193FD859193FF78
:100D100081913F018111DACF21C0689431F8689444
:100D200032F8F2CF689433F8EFCF689434F8ECCF10
:100D3000EAE02E9E200D1124222E689435F8E4CF8F
:100D40008E3229F436FC04C1689436F8DDCF8C3637
:100D500019F4689437F8D8CF8836B1F2982F9F7D70
:100D600095549330E0F08336A1F18337C1F1833598
:100D700009F063C02801F2E04F0E511CF801C08059
:100D8000D180692D70E036FC02C06FEF7FEFC601A5
:100D90000E9412084C01689437F882010AC00C5F67
:100DA0001F4FFFE3F98388248394912C6501E89415
:100DB00037F833FE2DC0522C8114910471F5552063
:100DC00009F468CFB70180E290E00E9428085A94A5
:100DD000F6CFF801808189830E5F1F4FE4CF280191
:100DE000F2E04F0E511CF801C080D180692D70E0F7
:100DF00036FC02C06FEF7FEFC6010E941D084C0158
:100E00008201D5CFB70180E290E00E9428082A94A1
:100E10002814190409F0B0F7CECFF60137FC8591FC
:100E200037FE81916F01B70190E00E9428085110B0
:100E30005A94F1E08F1A9108BFCF843619F08936A1
:100E400009F077C0F80137FE6BC060817181828143
:100E500093810C5F1F4FF32DFF763F2E97FF09C044
:100E600090958095709561957F4F8F4F9F4F6894B7
:100E700037F82AE030E0A5010E945808C82ECA18A9
:100E80008C2C432C36FE0CC0E89440F8C91440F476
:100E900034FE05C032FC03C0F32DFE7E4F2E892C9C
:100EA00044FE95C0FE01EC0DF11D8081803309F0F8
:100EB00087C0242D297E422E842D8870582E43FC15
:100EC00095C040FE8FC09C2C821418F42C0C922CE0
:100ED000981844FE91C0B70180E390E00E94280872
:100EE00042FE09C088E790E041FE02C088E590E03C
:100EF000B7010E942808C91408F48AC0CA94D12CEA
:100F00009FEFC91AD90ACA0CDB1CF60182916F0146
:100F1000B70190E00E942808AC14BD04B1F74FCF90
:100F200060817181072E000C880B990B0E5F1F4F9B
:100F300092CFD32CE894D4F82AE030E0853739F109
:100F4000232D297FD22E8F3601F148F48835A9F060
:100F5000F701868197812B96E2E10C94D2088037C5
:100F600049F08837A9F7D4FE02C06894D2F820E18E
:100F700030E00DC06894D4F8F6CF34FE03C0822F61
:100F80008660D82E20E132E002C028E030E0F8018F
:100F9000D7FE0FC060817181828193810C5F1F4FEA
:100FA000A5010E945808C82ECA183D2CE89437F8AD
:100FB00067CF6081718190E080E00E5F1F4FF0CFBE
:100FC00042FC02C0839478CF8394839475CF842DA0
:100FD000867809F471CFF6CFB70180E290E00E94E5
:100FE000280883948214C0F3512C73CF522C5818C4
:100FF000821408F46ECFF8CF842D867809F47BCF65
:101000008BE241FE80E247FC8DE2B70190E071CFB8
:10101000B70180E390E00E9428089A946CCF8FEF8C
:101020009FEF99CFFC010590615070400110D8F7F7
:10103000809590958E0F9F1F0895FC016150704020
:1010400001900110D8F7809590958E0F9F1F0895FD
:101050000F931F93CF93DF93182F092FEB018B81F1
:1010600081FD09C01FEF0FEF812F902FDF91CF91EE
:101070001F910F91089582FF14C02E813F818C81B2
:101080009D81281739073CF4E881F981CF01019649
:101090009983888310838E819F8101969F838E839D
:1010A000E3CFE885F985812F0995892BA1F3DACF64
:1010B000FA01AA27283051F1203181F1E8946F9389
:1010C0006E7F6E5F7F4F8F4F9F4FAF4FB1E03ED02F
:1010D000B4E03CD0670F781F891F9A1FA11D680FCD
:1010E000791F8A1F911DA11D6A0F711D811D911D00
:1010F000A11D20D009F468943F912AE0269F112475
:101100003019305D3193DEF6CF010895462F4770D8
:10111000405D4193B3E00FD0C9F7F6CF462F4F7033
:10112000405D4A3318F0495D31FD4052419302D091
:10113000A9F7EACFB4E0A695979587957795679537
:10114000BA95C9F700976105710508959B01AC0137
:101150000A2E06945795479537952795BA95C9F75E
:10116000620F731F841F951FA01D08952F923F9239
:101170004F925F926F927F928F929F92AF92BF92A7
:10118000CF92DF92EF92FF920F931F93CF93DF9353
:10119000CDB7DEB7CA1BDB0B0FB6F894DEBF0FBEB0
:1011A000CDBF09942A88398848885F846E847D84FD
:1011B0008C849B84AA84B984C884DF80EE80FD80FF
:1011C0000C811B81AA81B981CE0FD11D0FB6F89475
:0E11D000DEBF0FBECDBFED010895F894FFCF36
:1011DE0032303000000000005541525420454E0080
:1011EE0067616D6D61001B5B303B33316D20476174
:1011FE006D6D613A202564207552201B5B306D0D9C
:10120E000A0074696D65001B5B313B33336D20251D
:10121E003032643A253032643A25303264201B5B1A
:10122E00306D0D0A007374002C00736574207469A0
:10123E006D65202D3E20253032643A253032640D06
:10124E000A00736E64006F6E001B5B303B33316DB2
:10125E0020536F756E64204F4646201B5B306D0D1C
:10126E000A006F6666001B5B303B33326D20536F96
:10127E00756E64204F4E201B5B306D0D0A00474586
:0A128E00543A200025642075520038
:00000001FF
