:100000000C942A000C94A6010C9447000C94470011
:100010000C9447000C9447000C9447000C94470044
:100020000C9447000C9447000C9447000C94FD017D
:100030000C9447000C9447000C9447000C94470024
:100040000C9447000C9447000C9447000C94C90092
:100050000C94470011241FBECFE5D4E0DEBFCDBF16
:1000600011E0A0E6B0E0E6E2F0E102C005900D92FA
:10007000AA30B107D9F721E0AAE0B1E001C01D9292
:10008000A534B207E1F70E9424040C9411080C94E3
:10009000000080E884BB85B3806685BBAF98BA9AC0
:1000A000C29A8E9A0895809160009091610049965D
:1000B0009093610080936000809160009091610056
:1000C0008E36910524F01092610010926000089520
:1000D000E82FF0E0E65FFE4F9081992321F0913008
:1000E00019F110820AC023B330E0082E02C0359502
:1000F00027950A94E2F720FF03C090E080E008957E
:10010000AFE3BCE91197F1F700C0000023B330E082
:1001100002C0359527958A95E2F720FDEECF81E064
:10012000808381E090E0089523B330E0082E02C080
:10013000359527950A94E2F720FFDFCFAFE3BCE9BE
:100140001197F1F700C0000023B330E002C03595ED
:1001500027958A95E2F720FFD0CFC3CF86E00E9493
:100160006800892B11F00E94530085E00E9468000E
:10017000892B29F082B390E4892782BB089500007F
:1001800008958BE083BF89B7826089BF8DE78CBFFC
:1001900008951F920F920FB60F9211248F939F9381
:1001A000AF93BF938091120190911301A09114011C
:1001B000B09115010196A11DB11D8093120190937C
:1001C0001301A0931401B0931501BF91AF919F91BA
:1001D0008F910F900FBE0F901F9018956091120194
:1001E000709113018091140190911501089580E29E
:1001F00080B9089584EA86BF06B607FEFDCF08954C
:1002000084E986BF089583B984E886BF06B607FEF1
:10021000FDCF089584EC86BF06B607FEFDCF83B1FF
:10022000089584E886BF06B607FEFDCF83B1089522
:100230006AE00E947A04292F30E1839FC0011124D3
:10024000822B0895982F92959F708F702AE0929F2D
:10025000800D11240895CF93DF93C62FD22F80E213
:1002600080B90E94FA0080ED0E94030180E00E94A4
:10027000030180E00E9403018D2F0E9418010E945B
:1002800003018C2F0E9418010E94030184E986BF9C
:10029000DF91CF910895CF936AE00E947A04C92F2D
:1002A000805D0E94E90380E38C0FCF910C94E903F9
:1002B0001F93CF93DF93D82F162F80E280B90E942F
:1002C000FA0080ED0E94030180E00E940301C4E96E
:1002D000C6BF0E94FA0081ED0E9403010E940A013C
:1002E000809324010E940A01809323010E9411013E
:1002F00080932201C6BF809124010E942201809335
:100300002401809123010E94220180932301809186
:1003100022010E94220180932201612F8D2F0E94D1
:10032000F303809122010E944B018AE30E94E903BA
:10033000809123010E944B018AE30E94E90380918E
:100340002401DF91CF911F910C944B011F920F92CA
:100350000FB60F9211242F933F934F935F938F9378
:100360009F93EF93FF9381E080931D01E09117012C
:10037000F0E0E85EFE4F2091160181E090E0AC01D4
:1003800002C0440F551F2A95E2F78081842B808399
:10039000FF91EF919F918F915F914F913F912F919D
:1003A0000F900FBE0F901F901895FC01BC016B5F62
:1003B0007F4F90E080E0419150E030E020E0DA01B2
:1003C000022E02C0B595A7950A94E2F7A0FD01960A
:1003D0002F5F3F4F2830310591F7E617F70759F7A0
:1003E000089590BD89B988E98AB9599A86E880BD8F
:1003F00008955D9BFECF8CB908951F920F920FB6A2
:100400000F9211248F93EF93FF93CF93DF931F925B
:10041000CDB7DEB719828CB1898389818D3021F007
:1004200080911E018F31B0F0E0911E01F0E0EB5D94
:10043000FE4F108210921E0181E080931F010F90E9
:10044000DF91CF91FF91EF918F910F900FBE0F90A1
:100450001F901895E0911E01F0E08981EB5DFE4F41
:10046000808380911E018F5F80931E01E8CFCF9320
:10047000DF93EC018991811103C0DF91CF91089541
:100480000E94F901F7CF85E291E00E9437021092B5
:100490001F010895EF92FF920F931F93CF93DF9365
:1004A000CDB7DEB7A0970FB6F894DEBF0FBECDBFB5
:1004B00080911F01882309F4C0C045E050E063E744
:1004C00070E085E291E00E94FC04892BD1F482E681
:1004D00090E09F938F9389E790E09F938F938E0195
:1004E0000F5F1F4F1F930F930E943905C8010E9491
:1004F000370210921F010F900F900F900F900F90E6
:100500000F9044E050E068E870E085E291E00E94DE
:10051000FC04892B09F5809124011F928F9380910F
:1005200023011F928F93809122011F928F938DE858
:1005300090E09F938F938E010F5F1F4F1F930F9338
:100540000E943905C8010E94370210921F010FB6A0
:10055000F894DEBF0FBECDBF42E050E06BEA70E022
:1005600085E291E00E94FC04892B09F040C068E01C
:1005700071E085E291E00E94EE046EEA70E090E0A6
:1005800080E00E94EE048C016EEA70E090E080E072
:100590000E94EE047C01C8010E94D0048C01C701B6
:1005A0000E94D0047C019C01990F440B550BB801AB
:1005B000012E000C880B990B0E942B01FF92EF92E9
:1005C0001F930F9380EB90E09F938F938E010F5FAB
:1005D0001F4F1F930F930E943905C8010E943702D5
:1005E00010921F010FB6F894DEBF0FBECDBF43E0DF
:1005F00050E068EC70E085E291E00E94FC04892BF9
:10060000A1F568E071E085E291E00E94EE046EEAF7
:1006100070E090E080E00E94EE048C016CEC70E0F1
:100620000E94F304892BB1F0969A8FEC90E00E941F
:10063000370210921F0110921F01A0960FB6F89476
:10064000DEBF0FBECDBFDF91CF911F910F91FF9005
:10065000EF90089568EE70E0C8010E94F304892BC2
:1006600041F396988CEE90E0E2CF84E091E00E9416
:10067000370285E291E00E94370285E890E00E940F
:100680003702D9CF9C01629FC001639F900D729F7A
:10069000900D11249C0150E040E060E072E18AE797
:1006A00090E00E949A04C901019708959C0191B3BA
:1006B000906391BB1DBC1CBC82EA8FBD8AE18EBDDC
:1006C00037BD26BD0895BB9A12BE8BE683BF089541
:1006D0009BBD8ABD79BD68BD08952FEFAC01249FF5
:1006E000C001259F900D112464E670E00E948604ED
:1006F000CB010895DB9A95E89A95F1F700009BB33A
:100700009F709BBB9BB38295807F892B8BBBDB98B3
:1007100085E88A95F1F700000895CF93C82F6111FD
:100720000AC0DA988C2F82958F700E947A038C2FE2
:10073000CF910C947A03DA9AF5CF8EEF8ABB1BBA6D
:100740008FE295E70197F1F700C0000083E00E9477
:100750007A038FE39FE10197F1F700C0000083E087
:100760000E947A0387EC90E00197F1F700C0000047
:1007700083E00E947A038FEC97E00197F1F700C0C5
:10078000000082E00E947A038FEC97E00197F1F776
:1007900000C0000060E088E20E948D038FEC97E0CB
:1007A0000197F1F700C0000060E08CE00E948D032B
:1007B0008FEC97E00197F1F700C0000060E086E061
:1007C0000E948D038FEC97E00197F1F700C00000C5
:1007D000089561E00E948D038FE19EE40197F1F797
:1007E00000C0000008956295660F660F607C860F5A
:1007F00060E080680C948D03CF93DF93EC018991C6
:10080000811103C0DF91CF9108950E94E903F7CFD2
:100810000F931F93CF93DF938B0128E0829FC0013A
:10082000112460E080640E948D03E801085F1F4F7F
:1008300061E089910E948D03C017D107C9F7DF914C
:10084000CF911F910F91089578940E94C1000E944A
:1008500049002FEF80E792E0215080409040E1F77F
:1008600000C000000E94F7002FEF80E792E02150C7
:1008700080409040E1F700C000000E949D032FEFF0
:1008800080E792E0215080409040E1F700C00000F6
:1008900087E690E00E94F10186E690E00E94370230
:1008A00082E085BF8BB780648BBF68E070E088EB27
:1008B0009BE00E9442030E94560382E390E00E9464
:1008C0006D03BC010E9468030E94630360E080E046
:1008D0000E94F3038EE690E00E94FC030E94AE00AB
:1008E00080916000909161000E946D038CBF0E9416
:1008F0004A02F4CF991B79E004C0991F961708F0BB
:10090000961B881F7A95C9F78095089597FB072E47
:1009100016F4009407D077FD09D00E94BC0407FCB0
:1009200005D03EF4909581959F4F089570956195FF
:100930007F4F0895A1E21A2EAA1BBB1BFD010DC01B
:10094000AA1FBB1FEE1FFF1FA217B307E407F5077F
:1009500020F0A21BB30BE40BF50B661F771F881F5B
:10096000991F1A9469F760957095809590959B01F1
:10097000AC01BD01CF010895AA1BBB1B51E107C00B
:10098000AA1FBB1FA617B70710F0A61BB70B881F1F
:10099000991F5A95A9F780959095BC01CD010895AE
:1009A000FC0188279927E89421912032E9F3293026
:1009B00010F02E30C8F32B3241F02D3239F4689408
:1009C00004C00E943105820F911D219120532A30CD
:1009D000C0F31EF4909581959F4F089540E251E039
:1009E0000E940A050895FB01DC018D910190801998
:1009F0000110D9F3990B0895FB01DC0141505040DF
:100A000030F08D910190801919F40020B9F7881BFE
:100A1000990B0895FA01A191B081009719F41097EC
:100A2000E1F0CD01DC01CD010D90002011F4C001F9
:100A300013C0FB012191222319F02015D9F7F3CF20
:100A4000FB012191201519F41E92119606C0222354
:100A5000C1F70D900020A1F7D001FA01A193B08356
:100A600008957AE0979F902D879F802D910D1124F6
:100A70000895AEE0B0E0EFE3F5E00C94E8070D89EF
:100A80001E8986E08C831A8309838FEF9FE79E83FC
:100A90008D83AE01475E5F4F6F89788DCE010196E1
:100AA0000E945C052F813885020F131FF801108208
:100AB0002E96E4E00C940408ABE0B0E0E2E6F5E04A
:100AC0000C94DA077C013B018A01FC011782168233
:100AD000838181FFC8C1CE0101965C01F70193813A
:100AE000F30193FD859193FF81913F01882309F4E0
:100AF00053C1853239F493FD859193FF81913F0174
:100B0000853229F4B70190E00E944C07E7CF912C81
:100B1000212C312CFFE1F31538F08B3211F190F4D8
:100B2000803209F1833229F137FC3CC020ED280FD7
:100B30002A3050F536FE20C08AE0989E200D112400
:100B4000922E06C08D3291F0803371F7689430F8A0
:100B5000F30193FD859193FF81913F018111DACFDC
:100B600021C0689431F8689432F8F2CF689433F871
:100B7000EFCF689434F8ECCFEAE02E9E200D1124DC
:100B8000222E689435F8E4CF8E3229F436FC04C165
:100B9000689436F8DDCF8C3619F4689437F8D8CFDE
:100BA0008836B1F2982F9F7D95549330E0F08336CC
:100BB000A1F18337C1F1833509F063C02801F2E068
:100BC0004F0E511CF801C080D180692D70E036FCB9
:100BD00002C06FEF7FEFC6010E9436074C01689498
:100BE00037F882010AC00C5F1F4FFFE3F9838824A6
:100BF0008394912C6501E89437F833FE2DC0522C74
:100C00008114910471F5552009F468CFB70180E291
:100C100090E00E944C075A94F6CFF80180818983B6
:100C20000E5F1F4FE4CF2801F2E04F0E511CF80178
:100C3000C080D180692D70E036FC02C06FEF7FEF7D
:100C4000C6010E9441074C018201D5CFB70180E265
:100C500090E00E944C072A942814190409F0B0F778
:100C6000CECFF60137FC859137FE81916F01B70138
:100C700090E00E944C0751105A94F1E08F1A9108AD
:100C8000BFCF843619F0893609F077C0F80137FEF6
:100C90006BC060817181828193810C5F1F4FF32D46
:100CA000FF763F2E97FF09C09095809570956195CE
:100CB0007F4F8F4F9F4F689437F82AE030E0A501AF
:100CC0000E947C07C82ECA188C2C432C36FE0CC000
:100CD000E89440F8C91440F434FE05C032FC03C067
:100CE000F32DFE7E4F2E892C44FE95C0FE01EC0DA7
:100CF000F11D8081803309F087C0242D297E422E8A
:100D0000842D8870582E43FC95C040FE8FC09C2CCB
:100D1000821418F42C0C922C981844FE91C0B70140
:100D200080E390E00E944C0742FE09C088E790E013
:100D300041FE02C088E590E0B7010E944C07C9144B
:100D400008F48AC0CA94D12C9FEFC91AD90ACA0CD8
:100D5000DB1CF60182916F01B70190E00E944C0705
:100D6000AC14BD04B1F74FCF60817181072E000C28
:100D7000880B990B0E5F1F4F92CFD32CE894D4F8B9
:100D80002AE030E0853739F1232D297FD22E8F36A6
:100D900001F148F48835A9F0F701868197812B96F7
:100DA000E2E10C94F607803749F08837A9F7D4FEC2
:100DB00002C06894D2F820E130E00DC06894D4F805
:100DC000F6CF34FE03C0822F8660D82E20E132E0B9
:100DD00002C028E030E0F801D7FE0FC060817181C9
:100DE000828193810C5F1F4FA5010E947C07C82E52
:100DF000CA183D2CE89437F867CF6081718190E084
:100E000080E00E5F1F4FF0CF42FC02C0839478CF8A
:100E10008394839475CF842D867809F471CFF6CFAF
:100E2000B70180E290E00E944C0783948214C0F3E3
:100E3000512C73CF522C5818821408F46ECFF8CF6F
:100E4000842D867809F47BCF8BE241FE80E247FC5B
:100E50008DE2B70190E071CFB70180E390E00E948E
:100E60004C079A946CCF8FEF9FEF99CFFC010590C0
:100E7000615070400110D8F7809590958E0F9F1F9C
:100E80000895FC016150704001900110D8F78095E1
:100E900090958E0F9F1F08950F931F93CF93DF930D
:100EA000182F092FEB018B8181FD09C01FEF0FEF78
:100EB000812F902FDF91CF911F910F91089582FF85
:100EC00014C02E813F818C819D81281739073CF405
:100ED000E881F981CF0101969983888310838E81FF
:100EE0009F8101969F838E83E3CFE885F985812FCB
:100EF0000995892BA1F3DACFFA01AA27283051F1FD
:100F0000203181F1E8946F936E7F6E5F7F4F8F4F3A
:100F10009F4FAF4FB1E03ED0B4E03CD0670F781F99
:100F2000891F9A1FA11D680F791F8A1F911DA11D7E
:100F30006A0F711D811D911DA11D20D009F46894B7
:100F40003F912AE0269F11243019305D3193DEF65F
:100F5000CF010895462F4770405D4193B3E00FD015
:100F6000C9F7F6CF462F4F70405D4A3318F0495D00
:100F700031FD4052419302D0A9F7EACFB4E0A695E3
:100F80009795879577956795BA95C9F70097610505
:100F9000710508959B01AC010A2E0694579547955B
:100FA00037952795BA95C9F7620F731F841F951F50
:100FB000A01D08952F923F924F925F926F927F9261
:100FC0008F929F92AF92BF92CF92DF92EF92FF9259
:100FD0000F931F93CF93DF93CDB7DEB7CA1BDB0B05
:100FE0000FB6F894DEBF0FBECDBF09942A883988AA
:100FF00048885F846E847D848C849B84AA84B984B1
:10100000C884DF80EE80FD800C811B81AA81B981BC
:10101000CE0FD11D0FB6F894DEBF0FBECDBFED01D0
:061020000895F894FFCFD3
:101026001900303000005541525420454E005445B9
:1010360053540067616D6D610047616D6D613A20C3
:1010460025642075520D0A0074696D65001B5B31BD
:101056003B33336D20253032643A253032643A25ED
:10106600303264201B5B306D0D0A007374002C0057
:101076007365742074696D65202D3E2025303264B9
:101086003A253032640D0A00736E64006F6E001BE1
:101096005B303B33316D20536F756E64204F46468F
:1010A600201B5B306D0D0A006F6666001B5B303BD4
:1010B60033326D20536F756E64204F4E201B5B30AC
:0A10C6006D0D0A004745543A200062
:00000001FF
