:100000000C942A000C94A5010C9447000C94470012
:100010000C9447000C9447000C9447000C94470044
:100020000C9447000C9447000C9447000C94FC017E
:100030000C9447000C9447000C9447000C94470024
:100040000C9447000C9447000C9447000C94C80093
:100050000C94470011241FBECFE5D4E0DEBFCDBF16
:1000600010E0A0E6B0E0E2E1F1E102C005900D92FF
:10007000A43EB107D9F721E0A4EEB0E001C01D9283
:10008000AF31B207E1F70E9423040C9487080C9467
:10009000000080E884BB85B3806685BBAF98BA9AC0
:1000A000C29A8E9A0895809160009091610049965D
:1000B0009093610080936000809160009091610056
:1000C0008E36910524F01092610010926000089520
:1000D000E82FF0E0EC51FF4F9081992321F091300F
:1000E00019F110820AC023B330E0082E02C0359502
:1000F00027950A94E2F720FF03C090E080E008957E
:10010000AFE3BCE91197F1F700C0000023B330E082
:1001100002C0359527958A95E2F720FDEECF81E064
:10012000808381E090E0089523B330E0082E02C080
:10013000359527950A94E2F720FFDFCFAFE3BCE9BE
:100140001197F1F700C0000023B330E002C03595ED
:1001500027958A95E2F720FFD0CFC3CF86E00E9493
:100160006800892B11F00E94530085E00E9468000E
:10017000892B21F085B3805885BB08950000089530
:100180008BE083BF89B7826089BF8DE78CBF0895FC
:100190001F920F920FB60F9211248F939F93AF93DC
:1001A000BF938091EC009091ED00A091EE00B09192
:1001B000EF000196A11DB11D8093EC009093ED001E
:1001C000A093EE00B093EF00BF91AF919F918F91FC
:1001D0000F900FBE0F901F9018956091EC007091DA
:1001E000ED008091EE009091EF00089580E280B9DB
:1001F000089584EA86BF06B607FEFDCF089584E918
:1002000086BF089583B984E886BF06B607FEFDCF92
:10021000089584EC86BF06B607FEFDCF83B108952E
:1002200084E886BF06B607FEFDCF83B108956AE075
:100230000E94F004292F30E1839FC0011124822BFA
:100240000895982F92959F708F702AE0929F800D4D
:1002500011240895CF93DF93C62FD22F80E280B967
:100260000E94F90080ED0E94020180E00E940201DC
:1002700080E00E9402018D2F0E9417010E9402015E
:100280008C2F0E9417010E94020184E986BFDF9132
:10029000CF910895CF936AE00E94F004C92F805D4A
:1002A0000E94E80380E38C0FCF910C94E8031F9326
:1002B000CF93DF93D82F162F80E280B90E94F900E8
:1002C00080ED0E94020180E00E940201C4E9C6BFE5
:1002D0000E94F90081ED0E9402010E9409018093B1
:1002E000FE000E9409018093FD000E94100180938E
:1002F000FC00C6BF8091FE000E9421018093FE0099
:100300008091FD000E9421018093FD008091FC00FE
:100310000E9421018093FC00612F8D2F0E94F20327
:100320008091FC000E944A018AE30E94E8038091C8
:10033000FD000E944A018AE30E94E8038091FE00CA
:10034000DF91CF911F910C944A011F920F920FB62B
:100350000F9211242F933F934F935F938F939F930B
:10036000EF93FF9381E08093F700E091F100F0E0DC
:10037000EE50FF4F2091F00081E090E0AC0102C010
:10038000440F551F2A95E2F78081842B8083FF91CB
:10039000EF919F918F915F914F913F912F910F908E
:1003A0000FBE0F901F901895FC01BC016B5F7F4F33
:1003B00090E080E0419150E030E020E0DA01022E50
:1003C00002C0B595A7950A94E2F7A0FD01962F5FAC
:1003D0003F4F2830310591F7E617F70759F7089591
:1003E00090BD89B988E98AB9599A86E880BD08958F
:1003F0005D9BFECF8CB908951F920F920FB60F929E
:1004000011248F93EF93FF93CF93DF931F92CDB778
:10041000DEB719828CB1898389818D3021F080917A
:10042000F8008F31B0F0E091F800F0E0E150FF4FBC
:1004300010821092F80081E08093F9000F90DF9114
:10044000CF91FF91EF918F910F900FBE0F901F9062
:100450001895E091F800F0E08981E150FF4F80832A
:100460008091F8008F5F8093F800E8CFCF93DF93FF
:10047000EC018991811103C0DF91CF9108950E9411
:10048000F801F7CF8FEF90E00E9436021092F9004A
:100490000895EF92FF920F931F93CF93DF93CDB701
:1004A000DEB7A0970FB6F894DEBF0FBECDBF809128
:1004B000F900882309F4C0C045E050E064E770E02B
:1004C0008FEF90E00E947205892BD1F482E690E0D4
:1004D0009F938F938AE790E09F938F938E010F5F96
:1004E0001F4F1F930F930E94AF05C8010E94360251
:1004F0001092F9000F900F900F900F900F900F90A7
:1005000044E050E069E870E08FEF90E00E947205EF
:10051000892B09F58091FE001F928F938091FD0039
:100520001F928F938091FC001F928F938EE890E032
:100530009F938F938E010F5F1F4F1F930F930E9406
:10054000AF05C8010E9436021092F9000FB6F89468
:10055000DEBF0FBECDBF42E050E06FE970E08FEF2D
:1005600090E00E947205892B09F040C062EE70E0B5
:100570008FEF90E00E94640562EA70E090E080E016
:100580000E9464058C0162EA70E090E080E00E94C5
:1005900064057C01C8010E9446058C01C7010E94C8
:1005A00046057C019C01990F440B550BB801012EA7
:1005B000000C880B990B0E942A01FF92EF921F9367
:1005C0000F9384EA90E09F938F938E010F5F1F4FEC
:1005D0001F930F930E94AF05C8010E94360210922C
:1005E000F9000FB6F894DEBF0FBECDBF43E050E078
:1005F0006CEB70E08FEF90E00E947205892BA1F503
:1006000062EE70E08FEF90E00E94640562EA70E0B5
:1006100090E080E00E9464058C0160EC70E00E9434
:100620006905892BB1F0969A83EC90E00E9436021E
:100630001092F9001092F900A0960FB6F894DEBF60
:100640000FBECDBFDF91CF911F910F91FF90EF9023
:1006500008956FEC70E0C8010E946905892B41F391
:10066000969883ED90E0E2CF8EED90E00E94360206
:100670008FEF90E00E9436028CEC90E00E943602F0
:10068000D9CF9C01629FC001639F900D729F900D16
:1006900011249C0150E040E060E072E18AE790E0C4
:1006A0000E941005C901019708959C0191B39063C0
:1006B00091BB1DBC1CBC82EA8FBD8AE18EBD37BDDB
:1006C00026BD0895BB9A12BE8BE683BF08959BBDDD
:1006D0008ABD79BD68BD08952FEFAC01249FC0018C
:1006E000259F900D112464E670E00E94FC04CB016C
:1006F0000895DB9A95E89A95F1F700009BB39F70F7
:100700009BBB9BB38295807F892B8BBBDB9885E855
:100710008A95F1F700000895CF93C82F61110AC0A0
:10072000DA988C2F82958F700E9479038C2FCF914D
:100730000C947903DA9AF5CF8EEF8ABB1BBA8FE25D
:1007400095E70197F1F700C0000083E00E9479036C
:100750008FE39FE10197F1F700C0000083E00E9462
:10076000790387EC90E00197F1F700C0000083E087
:100770000E9479038FEC97E00197F1F700C0000029
:1007800082E00E9479038FEC97E00197F1F700C0B7
:10079000000060E088E20E948C038FEC97E00197F4
:1007A000F1F700C0000060E08CE00E948C038FEC49
:1007B00097E00197F1F700C0000060E086E00E943A
:1007C0008C038FEC97E00197F1F700C000000895CB
:1007D00061E00E948C038FE19EE40197F1F700C075
:1007E000000008956295660F660F607C860F60E0DA
:1007F00080680C948C03CF93DF93EC018991811175
:1008000003C0DF91CF9108950E94E803F7CF0F93C3
:100810001F93CF93DF938B0128E0829FC0011124A7
:1008200060E080640E948C03E801085F1F4F61E074
:1008300089910E948C03C017D107C9F7DF91CF912E
:100840001F910F91089578940E94C0000E94490062
:100850000E949C0387E690E00E94F00186E690E00B
:100860000E9436022BE230E040E050E06FE070E0A2
:1008700080E090E00E942A0182E085BF8BB780640F
:100880008BBF68E070E080ED97E00E9441030E941A
:10089000550382E390E00E946C03BC010E94670351
:1008A0000E946203812C912C5401C12CD12C760121
:1008B0008EE6682E80E0782EC2E6D0E001E010E0FF
:1008C0000E94AE0080916000909161000E946C03D4
:1008D0008CBF8091F700882359F160E080E00E948E
:1008E000F20387E40E94E80361E086E00E94F203DD
:1008F00082EF90E00E94D4019F938F937F926F923A
:10090000DF93CF930E94AF0582E690E00E94FB0345
:1009100061E088E00E94F20381E790E00E94FB031F
:100920001092F7000F900F900F900F900F900F9074
:100930008091EC009091ED00A091EE00B091EF005D
:100940008C199D09AE09BF09883E9340A105B105E8
:1009500058F060E080E00E94F20380E20E94E80329
:100960000E94ED006B017C018091EC009091ED0004
:10097000A091EE00B091EF0088199909AA09BB096E
:10098000883E9340A105B10540F10E94ED004B0166
:100990005C018091F0008F5F8093F000883058F008
:1009A0008091F1008F5F8093F1001092F00085300C
:1009B00010F01092F100E091F100F0E0EE50FF4FE6
:1009C0008091F000980102C0220F331F8A95E2F750
:1009D000C90180959081892380830E94490270CF4C
:1009E000991B79E004C0991F961708F0961B881F81
:1009F0007A95C9F78095089597FB072E16F4009411
:100A000007D077FD09D00E94320507FC05D03EF4DF
:100A1000909581959F4F0895709561957F4F0895AA
:100A2000A1E21A2EAA1BBB1BFD010DC0AA1FBB1FF2
:100A3000EE1FFF1FA217B307E407F50720F0A21B64
:100A4000B30BE40BF50B661F771F881F991F1A94D1
:100A500069F760957095809590959B01AC01BD01FB
:100A6000CF010895AA1BBB1B51E107C0AA1FBB1FE2
:100A7000A617B70710F0A61BB70B881F991F5A952A
:100A8000A9F780959095BC01CD010895FC018827B8
:100A90009927E89421912032E9F3293010F02E3083
:100AA000C8F32B3241F02D3239F4689404C00E940F
:100AB000A705820F911D219120532A30C0F31EF407
:100AC000909581959F4F08954AEF50E00E948005D0
:100AD0000895FB01DC018D91019080190110D9F37B
:100AE000990B0895FB01DC014150504030F08D918D
:100AF0000190801919F40020B9F7881B990B08950B
:100B0000FA01A191B081009719F41097E1F0CD019D
:100B1000DC01CD010D90002011F4C00113C0FB01D8
:100B20002191222319F02015D9F7F3CFFB01219150
:100B3000201519F41E92119606C02223C1F70D90BC
:100B40000020A1F7D001FA01A193B08308957AE0C3
:100B5000979F902D879F802D910D11240895AEE0D1
:100B6000B0E0E5EBF5E00C945E080D891E8986E0A7
:100B70008C831A8309838FEF9FE79E838D83AE0159
:100B8000475E5F4F6F89788DCE0101960E94D20536
:100B90002F813885020F131FF80110822E96E4E092
:100BA0000C947A08ABE0B0E0E8EDF5E00C94500866
:100BB0007C013B018A01FC0117821682838181FF3F
:100BC000C8C1CE0101965C01F7019381F30193FD49
:100BD000859193FF81913F01882309F453C18532A8
:100BE00039F493FD859193FF81913F01853229F47A
:100BF000B70190E00E94C207E7CF912C212C312C45
:100C0000FFE1F31538F08B3211F190F4803209F1E5
:100C1000833229F137FC3CC020ED280F2A3050F5F3
:100C200036FE20C08AE0989E200D1124922E06C028
:100C30008D3291F0803371F7689430F8F30193FDB1
:100C4000859193FF81913F018111DACF21C0689492
:100C500031F8689432F8F2CF689433F8EFCF6894A3
:100C600034F8ECCFEAE02E9E200D1124222E689459
:100C700035F8E4CF8E3229F436FC04C1689436F896
:100C8000DDCF8C3619F4689437F8D8CF8836B1F2B6
:100C9000982F9F7D95549330E0F08336A1F18337F0
:100CA000C1F1833509F063C02801F2E04F0E511CF9
:100CB000F801C080D180692D70E036FC02C06FEF72
:100CC0007FEFC6010E94AC074C01689437F882019F
:100CD0000AC00C5F1F4FFFE3F98388248394912C93
:100CE0006501E89437F833FE2DC0522C811491042D
:100CF00071F5552009F468CFB70180E290E00E94B9
:100D0000C2075A94F6CFF801808189830E5F1F4F86
:100D1000E4CF2801F2E04F0E511CF801C080D180D1
:100D2000692D70E036FC02C06FEF7FEFC6010E94B4
:100D3000B7074C018201D5CFB70180E290E00E9455
:100D4000C2072A942814190409F0B0F7CECFF6018F
:100D500037FC859137FE81916F01B70190E00E94C9
:100D6000C20751105A94F1E08F1A9108BFCF843610
:100D700019F0893609F077C0F80137FE6BC0608141
:100D80007181828193810C5F1F4FF32DFF763F2E7F
:100D900097FF09C090958095709561957F4F8F4F13
:100DA0009F4F689437F82AE030E0A5010E94F207CF
:100DB000C82ECA188C2C432C36FE0CC0E89440F880
:100DC000C91440F434FE05C032FC03C0F32DFE7E8E
:100DD0004F2E892C44FE95C0FE01EC0DF11D808143
:100DE000803309F087C0242D297E422E842D8870FF
:100DF000582E43FC95C040FE8FC09C2C821418F4E2
:100E00002C0C922C981844FE91C0B70180E390E01E
:100E10000E94C20742FE09C088E790E041FE02C07E
:100E200088E590E0B7010E94C207C91408F48AC09F
:100E3000CA94D12C9FEFC91AD90ACA0CDB1CF6013F
:100E400082916F01B70190E00E94C207AC14BD040B
:100E5000B1F74FCF60817181072E000C880B990B81
:100E60000E5F1F4F92CFD32CE894D4F82AE030E0E5
:100E7000853739F1232D297FD22E8F3601F148F4A1
:100E80008835A9F0F701868197812B96E2E10C94D1
:100E90006C08803749F08837A9F7D4FE02C06894FF
:100EA000D2F820E130E00DC06894D4F8F6CF34FEDB
:100EB00003C0822F8660D82E20E132E002C028E0F5
:100EC00030E0F801D7FE0FC060817181828193818B
:100ED0000C5F1F4FA5010E94F207C82ECA183D2CB7
:100EE000E89437F867CF6081718190E080E00E5F11
:100EF0001F4FF0CF42FC02C0839478CF8394839439
:100F000075CF842D867809F471CFF6CFB70180E2D2
:100F100090E00E94C20783948214C0F3512C73CFD7
:100F2000522C5818821408F46ECFF8CF842D86788E
:100F300009F47BCF8BE241FE80E247FC8DE2B701F2
:100F400090E071CFB70180E390E00E94C2079A94CD
:100F50006CCF8FEF9FEF99CFFC01059061507040EF
:100F60000110D8F7809590958E0F9F1F0895FC0172
:100F70006150704001900110D8F7809590958E0FC8
:100F80009F1F08950F931F93CF93DF93182F092F5F
:100F9000EB018B8181FD09C01FEF0FEF812F902F97
:100FA000DF91CF911F910F91089582FF14C02E8180
:100FB0003F818C819D81281739073CF4E881F981B4
:100FC000CF0101969983888310838E819F8101963A
:100FD0009F838E83E3CFE885F985812F0995892B3F
:100FE000A1F3DACFFA01AA27283051F1203181F19B
:100FF000E8946F936E7F6E5F7F4F8F4F9F4FAF4F21
:10100000B1E03ED0B4E03CD0670F781F891F9A1F33
:10101000A11D680F791F8A1F911DA11D6A0F711DE7
:10102000811D911DA11D20D009F468943F912AE0F3
:10103000269F11243019305D3193DEF6CF010895DB
:10104000462F4770405D4193B3E00FD0C9F7F6CF0C
:10105000462F4F70405D4A3318F0495D31FD4052D4
:10106000419302D0A9F7EACFB4E0A695979587956A
:1010700077956795BA95C9F7009761057105089549
:101080009B01AC010A2E06945795479537952795F5
:10109000BA95C9F7620F731F841F951FA01D08958D
:1010A0002F923F924F925F926F927F928F929F9278
:1010B000AF92BF92CF92DF92EF92FF920F931F9366
:1010C000CF93DF93CDB7DEB7CA1BDB0B0FB6F89417
:1010D000DEBF0FBECDBF09942A88398848885F8457
:1010E0006E847D848C849B84AA84B984C884DF80C8
:1010F000EE80FD800C811B81AA81B981CE0FD11DAC
:101100000FB6F894DEBF0FBECDBFED010895F89481
:02111000FFCF0F
:101112001900303000005541525420454E002564DC
:101122000075520067616D6D610047616D6D613AD6
:101132002025642075520D0A0074696D6500253002
:1011420032643A253032643A253032640D0A007333
:1011520074002C007365742074696D65202D3E2027
:10116200253032643A253032640D0A00736E640011
:101172006F6E00536F756E64204F46460D0A006F06
:10118200666600536F756E64204F4E0D0A00474528
:04119200543A2000AB
:00000001FF
